:020000040800F2
:10000000180B0020A9010008E9340008392B00086A
:10001000E5340008190A00084D42000800000000FD
:10002000000000000000000000000000D5390008BA
:100030004D0A000800000000D13900083D3A0008D0
:10004000C3010008C3010008C3010008C301000880
:10005000C3010008C3010008C3010008C301000870
:10006000C3010008C3010008C3010008C301000860
:10007000C3010008C3010008C3010008C301000850
:100080001D0A00082D0A0008C30100080000000036
:10009000000000000000000000000000C301000894
:1000A000F13A0008C3010008C3010008C3010008B9
:1000B000C3010008C3010008C3010008C301000810
:1000C000C3010008C3010008C3010008C301000800
:1000D000C3010008C3010008C301000800000000BC
:1000E000C3010008C3010008C301000800000000AC
:1000F000000000000000000000000000C301000834
:1001000000000000C3010008C3010008C30100088B
:1001100000000000000000000000000000000000DF
:10012000C30100083D0A0008C3010008C30100081C
:10013000C3010008000000000000000000000000F3
:10014000000000000000000000000000C3010008E3
:10015000C3010008C3010008C3010008BD3F000837
:10016000C3010008C30100080000000000000000F7
:10017000000000000000000000000000000000007F
:1001800000000000C30100080000000000000000A3
:10019000C3010008DFF80CD000F096FB00480047D0
:1001A000C9520008180B002006488047064800473F
:1001B000FEE7FEE7FEE7FEE7FEE7FEE7FEE7FEE717
:1001C000FEE7FEE7DD3A0008950100082DE9F05F43
:1001D0000546002092469B468846064681464024B6
:1001E0001BE0284641464746224600F06FFA534638
:1001F0005A46C01A914110D311461846224600F0C3
:1002000056FA2D1A67EB01084F46224601200021BD
:1002100000F04DFA17EB00094E41201EA4F1010435
:10022000DFDC484631462A464346BDE8F09F2DE9CB
:10023000F0410024061B254671F1000605DA012471
:100240000027D0EB070067EB0101161E73F10006D3
:1002500005DA0027D2EB0702012567EB0303FFF75E
:10026000B5FF86460E4617469C46AC4204D0002594
:10027000D0EB050E65EB010624B10020D2EB0007A0
:1002800060EB030C704631463A466346BDE8F081A8
:1002900040EA01039B0703D009E008C9121F08C008
:1002A000042AFAD203E011F8013B00F8013B521E88
:1002B000F9D27047D2B201E000F8012B491EFBD2FF
:1002C00070470022F6E710B513460A460446194661
:1002D000FFF7F0FF204610BD30B50446002003466E
:1002E00000E05B1C934203D2E05CCD5C401BF8D085
:1002F00030BD2DE9FE4F804681EA0300C00F0C4659
:10030000009021F0004123F00045B8EB0200A94124
:1003100005D24046214690461C460B46024623F035
:100320000040104347D0270DC7F30A00C3F30A511A
:100330000290401A019040286BDAC3F3130040F496
:10034000801B0098924620B10023D2EB030A63EB96
:100350000B0B01985946C0F14002504600F0A7F936
:1003600006460D4650465946019A00F0BFF910EB7B
:1003700008006141002487EA115284EAE7731A43B6
:1003800040D0009A62B3019A012A4FEA075215DC65
:10039000001B61EB02014FF0004202EA0752CDE977
:1003A0000042001C41F5801132462B4600F0F6F960
:1003B00003B0BDE8F08F40462146F9E7001B61EB32
:1003C0000201001C41F5801300185B412018A2F5C2
:1003D000001747EB030140EAD570B6196D4111E0F3
:1003E0006D084FEA360645EAC0754FEA0752001B12
:1003F00061EB0201001C41F5801149084FEA300011
:100400000019514132462B4603B0BDE8F04F00F0D1
:10041000B6B90098012240000023D0EB020263EB42
:10042000E073009821464FEAE074B8EB000061EBFE
:100430000401E9E783F000435BE781F0004158E7FE
:100440002DE9FE4F81EA030404F0004421F000414D
:1004500000944FF0000B23F0004350EA01045ED0FB
:1004600052EA03045BD0C3F30A54C1F30A552C4487
:10047000A4F2F3340194A0FB0254C1F3130141F43C
:100480008011C3F3130343F4801301FB024400FB08
:10049000034E840A970A44EA815447EA8357A4FB2F
:1004A000076802958D0A05FB07854FEA932C04FB2C
:1004B0000C542705029D4FEA065847EA1637B5EB5C
:1004C00008056EEB070C870E920E47EA811742EA89
:1004D0008312A7FB0201B6EB0B0164EB00042B0DAA
:1004E00043EA0C335E1844EB1C50DA465146E7FBF6
:1004F0000201C5F313044FEA0B3343EA14534FEAE6
:100500000432019C43EA0603A4F10C040294009C0B
:10051000CDE900B400F042F903B0BDE8F08F00204F
:100520000146F9E72DE9F04D81EA030404F0004BA0
:1005300021F0004514464FF0000A23F0004150EA34
:10054000050220D054EA01021DD0C5F30A57024625
:10055000C5F31303C1F31300C1F30A5640F4801529
:1005600043F48013A7EB0608101BD64608F2FD38AB
:1005700073EB050002D308F1010801E092185B411A
:10058000B8F1000F03DA00200146BDE8F08D00202D
:100590004FF48011064684460EE0171B73EB0507E7
:1005A00005D3121B63EB050306434CEA010C490813
:1005B0004FEA300092185B4150EA0107EDD152EA50
:1005C000030012D082EA040083EA0501084305D043
:1005D000101BAB4106D20122002306E000224FF09F
:1005E000004302E06FF0010253101AEB06004CEBDF
:1005F000085110EB0A0041EB0B01BDE8F04D00F093
:10060000BEB80EB5C10F80EAE0700844CA070021E9
:1006100040F233438DE80E000A460B4600F0BEF868
:1006200003B000BD00F0004230F000400AD0C10D20
:1006300001F56071C0F3160042EA0151C20840079B
:100640001143704700200146704701F0004330B469
:1006500021F0004150EA010206D00A0DA2F56072B5
:10066000C1F31301002A02DC30BC00207047440FA4
:1006700044EAC104C100E01830BC00EBC25000F0F5
:1006800047B830B50B46014600202022012409E07E
:1006900021FA02F59D4205D303FA02F5491B04FA3B
:1006A00002F52844151EA2F10102F1DC30BD202A1A
:1006B00004DB203A00FA02F1002070479140C2F1B9
:1006C000200320FA03F3194390407047202A04DBEB
:1006D000203A21FA02F00021704721FA02F3D040BB
:1006E000C2F120029140084319467047202A06DBD8
:1006F000CB17203A41FA02F043EAE07306E041FAF0
:1007000002F3D040C2F120029140084319467047DD
:100710000029A8BF7047401C490008BF20F0010015
:10072000704710B4B0FA80FC00FA0CF050EA0104F3
:1007300004BF10BC704749B1CCF1200421FA04F485
:1007400011FA0CF118BF012121430843A3EB0C015E
:10075000CB1D4FEA00614FEA102042BF002010BCC1
:10076000704700EBC35010440029A4BF10BC704771
:10077000401C490008BF20F0010010BC704710B5B4
:10078000141E73F1000408DA401C41F100019218B4
:100790005B411A4301D120F0010010BD2DE9F04D5D
:1007A00092469B4611B1B1FA81F202E0B0FA80F2B2
:1007B00020329046FFF77BFF04460F4640EA0A00CE
:1007C00041EA0B0153465A46084313D0114653EAF7
:1007D000010019D0C8F140025046FFF777FF0546E7
:1007E0000E46504659464246FFF761FF084305D082
:1007F000012004E020463946BDE8F08D0020054385
:1008000046EAE0762C4337430A986305E40AA0EBF6
:1008100008000022FD0A44EA47540A3002D50020AD
:100820000146E9E7010510196941DDE908450019AC
:100830006941BDE8F04DA2E7C1F30A52C1F31301CB
:1008400040F2FF3341F480119A4202DA002001465F
:10085000704740F233439A42A2F2334202DC5242E2
:10086000FFF734BFFFF723BF30B5041E71F100045A
:1008700004DB4FF00044404264EB0101141E73F1AD
:10088000000405DB1C464FF00043524263EB0403B7
:100890008B4208BF824230BD30B5041E71F10004A6
:1008A00004DB4FF00044404264EB0101141E73F17D
:1008B000000405DB1C464FF00043524263EB040387
:1008C000994208BF904230BD064C074D06E0E068F3
:1008D00040F0010394E8070098471034AC42F6D387
:1008E000FFF75CFC8C8F0008AC8F00082DE9F04D01
:1008F00000231A461B1A8A4103DB00200146BDE88B
:10090000F08DC1F30A52C1F3130141F480154FF089
:10091000000BD10702D100186D41521E002704467A
:1009200040F2FF11384601EB620A3E46804602461D
:1009300000204FF48011FFF7C9FEC2197141BB18A6
:1009400046EB0100B4EB030C75EB000C04D3E41A86
:1009500065EB000517460E46241908F101006D41AC
:1009600080463428E3DDF91946EB0600091BA8414F
:1009700003D24FF0FF32134601E0002213461BEB77
:10098000070046EB0A51BDE8F04DFFF7F8BE000046
:1009900040F292100022C2F20000002103E000BFEA
:1009A0000132082A08D0835C5A2BF9D183185B786E
:1009B0005A2B08BF1146F3E7425C5A2A1DD108445E
:1009C00041785A2919D18178452916D1C3780179FE
:1009D00042790B4413448079073BDBB2834218BF52
:1009E000704742EA012000EE100A40F2A440B8EE3F
:1009F000400AC2F2000080ED000A704780B540F264
:100A0000785040F29211C2F20000C2F200010E22B0
:100A100001F070FF80BD0000FEE7000080B540F2ED
:100A2000D820C2F2000000F0EDF880BD80B540F2A1
:100A30003830C2F2000000F0E5F880BD80B540F229
:100A40009830C2F2000000F0DDF880BD7047000071
:100A5000F0B581B040F2BB02C2F20002127840F25F
:100A6000A014C2F2000482B1221D002505E000BFDF
:100A70000135142D02F10C0220D012F8043C8B42F7
:100A8000F6D113688342F3D119E0251D0026012217
:100A90002B4609E0132E06F101064FF0000238BF85
:100AA00001220C33142E12D013F8047C8F42F1D1A2
:100AB0001F688742EED1D2070CD01DE0002500F060
:100AC0003FFB05EB450104EB8101886029E000262E
:100AD000D20711D1002700BF15F8042C2AB1013725
:100AE000142F05F10C05F7D106E005F8041C286069
:100AF00000F026FB68603E4600F022FBF1B24900A0
:100B000051FA86F104EB810454F8081F54F8042CC0
:100B1000401A904202D2012001B0F0BD00F010FB5B
:100B20002060002001B0F0BDEFF3108072B600BF6E
:100B3000FEE7000080B540F23811C2F200015022F9
:100B4000FFF7A6FB80BD000040F21461C2F2000175
:100B50000A890281D1E900124260016070470000F9
:100B600070B5866D044600F0EBFA94F83510022952
:100B700025D105462068216C026822F01602026029
:100B8000426922F08002426109B9A16C19B1016881
:100B900021F008010160016821F00101016000BF3E
:100BA00020680068C0070ED000F0CAFA401B062873
:100BB000F6D320206065032084F835000CE0802007
:100BC0006065012008E0E06D3F2101FA00F0B060AF
:100BD000012084F835000020002184F8341070BD15
:100BE00090F83510022909D1052180F835100068E8
:100BF000016821F0010101600020704780214165FA
:100C000001207047F0B581B004460020009040F20A
:100C10000800C2F200000268D4E9166048F2B51379
:100C200037680821C1F64E3381403942A2FB0325C3
:100C30000CD0226813685B0708D5136823F00403FF
:100C40001360B160616D41F0010161650121814076
:100C5000394208D022685269120604D5B160616D2C
:100C600041F00201616504218140394208D02268C7
:100C70001268920704D5B160616D41F004016165AD
:100C800010218140394215D020680268120711D521
:100C9000B16002680168520306D4C90506D4016830
:100CA00021F00801016001E0080340D4216C09B182
:100CB00020468847E16D202000FA01F23A4242D0F6
:100CC00020680368DB063ED5B26094F835300268D0
:100CD000052B1CD122F016020260426922F080022C
:100CE0004261226C0AB9A26C1AB1026822F00802B1
:100CF00002603F208840B060012084F83500216DFB
:100D00000020002984F834003DD101B0F0BD016815
:100D1000520310D4C90512D4016821F010010160FA
:100D2000012084F83500002084F8340007E0A16C2D
:100D30000029BDD1BEE7080301D4616C00E0E16B7E
:100D400009B120468847606D0028DED0606DC0077D
:100D500016D0052084F835002068A90A026822F020
:100D600001020260009A01328A42009202D80268AF
:100D7000D207F7D1012084F83500002084F8340030
:100D8000E16C0029C1D02046884701B0F0BD0000C9
:100D90002DE9F041044600F0D3F9C4B10546022024
:100DA00084F835000020216884F83400086820F0B9
:100DB0000100086020680168C9070BD000F0C0F985
:100DC000401B0528F6D90321202203207BE00120C7
:100DD000BDE8F081016848F23F02CFF21002D4E989
:100DE000013501EA020ED4E9032143EA0E032B4345
:100DF000D4E9056C1A431143D4E90778314341EA39
:100E00000C02616A3A43042942EA080304D1D4E996
:100E10000B271A4342EA070303604269042922F0C0
:100E2000070241EA02012DD1D4E90A5341EA050142
:100E300043B3BCF5005F08D0BCF1000F12D1022D06
:100E400016D0012D07D09DB119E0032D17D8DFE88A
:100E500005F00B0F0B02A3F1C072B2FA82F2520935
:100E60004AB90FE0032D02D2012222B90AE006D1CD
:100E7000C3F3006232B101214022012023E00022AD
:100E8000002AF8D16FF00F024AF6AB2352FA80F233
:100E9000CAF6AA23A2FB033748F2DE2341613909CF
:100EA000C0F60003595C40F2FF3398435F2A4FF0CD
:100EB0003F0288BF0430C4E9160102FA01F18160E3
:100EC000002201210020626584F83510BDE8F08120
:100ED00070B590F834C0BCF1010F45D04FF0010C53
:100EE00080F834C0D0F858E090F835C0BCF1010F5C
:100EF00037D14FF0020C80F835C04FF0000CC0F82D
:100F000054C0D0F800C08468056CC06DDCF8006087
:100F1000402C26F48026CCF80060CCF804300B4638
:100F200004BF13460A463F2101FA00F0CCF808300E
:100F3000CCF80C20CEF80800DCF8000040F01600D9
:100F4000CCF800002DB1DCF8000040F00800CCF82F
:100F50000000DCF8000040F00100CCF800000020A8
:100F600070BD002180F83410022070BDB0B5044679
:100F700000F0E6F8054640F25000C2F200000078AA
:100F8000611C18BF044400BF00F0DAF8401BA04207
:100F9000FAD3B0BD2DE9F04F82B000F13E4241F2EC
:100FA000000502F1FF77C4F2020507224FEAB726D7
:100FB000A84208BF0422042E38BF4FEAB7224FF0E0
:100FC000010A002400274FF00009009209E000BF49
:100FD00009F101090437B9F1100F04F1020400F01E
:100FE000A6800A680AFA09FC12EA0C08F0D0D1F8C7
:100FF00004B00BF0030AAAF10102012A12D8826898
:101000000323CE6803FA04FE22EA0E02A64032430E
:1010100082604268CBF3001622EA0C0206FA09F657
:1010200032434260BAF1030F1DD0C26803238D68BA
:1010300003FA04F6B24305FA04F63243BAF1020F9A
:10104000C26010D16FF0030202EA59020244D2F8E2
:1010500020C007F01C050F230E69AB402CEA0303E8
:10106000AE4033431362026803234E68A3409A43A1
:1010700006F00303A3401A4316F4403F4FF0010A61
:101080000260A5D0002243F644030192C4F2020399
:101090001A6843F6004E42F480421A601A68C4F29D
:1010A000010E02F480420192019A29F003024FF6E8
:1010B000084C7244CFF6FF7C52F80C3007F00C0657
:1010C0000F25B540AB43009D05FA06F6334342F8C1
:1010D0000C30DEF808204B6842EA080643F60C4C58
:1010E000DD0258BF22EA0806CEF80860C4F2010CFF
:1010F000DCF800209D0242EA080658BF22EA0806F2
:10110000CCF80060DEF804209D0342EA080658BFD0
:1011100022EA0806CEF80460DEF80020DB0342EA8B
:10112000080658BF22EA0806CEF8006050E702B071
:10113000BDE8F08F0069084018BF0120704700002B
:1011400040F21470C2F2000000687047F0B581B040
:10115000B0B3044690F83D0028B9002084F83C0064
:10116000204600F02FFB242084F83D002068016811
:1011700021F001010160016841F400410160016852
:1011800021F40041016000F005FD48F28041C0F209
:101190001E0140F60012656888424FF00001C0F25F
:1011A0003D0248F2A16C4FF0000338BF012190428C
:1011B000C0F2010C38BF0123654538BF0B4613B19F
:1011C000012001B0F0BD4DF68361C4F21B31A0FBDC
:1011D000011221684FEA924E4B684FF4967623F045
:1011E0003F0343EA92434B6044F6D3530F6A0EFB2E
:1011F00006F6C1F26203A6FB033627F03F03B709E8
:10120000654538BF970C7A1C1A430A62CA6948F2CE
:10121000A0674CF6FF73C0F20107BD4222EA030C3F
:101220000AD801386A00B0FBF2F001306FF31F30CA
:10123000042898BF04202BE0A368A0F1010E9BB105
:1012400019206843BEFBF0F00422013062F31F3026
:10125000000512D09BB119206843BEFBF0F00422B8
:10126000013062F31F3011E005EB4500BEFBF0F0EA
:1012700001306FF31F300005ECD1012008E005EBD1
:101280004500BEFBF0F001306FF31F3040F400402A
:1012900040EA0C00C8610868D4E9072320F0C000C8
:1012A000104318430860886848F2FF3204F10C07C5
:1012B00090438CCF18431043A6698860C86820F01B
:1012C000FF0038433043C860086840F00100086000
:1012D00000202021206484F83D10206384F83E0023
:1012E00001B0F0BD2DE9F04F83B0984617460E4689
:1012F0000446FFF725FF94F83D10202920D1DDE9B1
:101300000CBA05462068806910F0020914D0FFF776
:1013100017FF401B1A28F5D300202021206384F8F2
:101320003D1084F83E00216CB9F1000F41F020011E
:10133000216484F83C0003D194F83C00012803D1D7
:10134000022003B0BDE8F08F0121206884F83C1032
:101350000168C90703D1016841F00101016001681A
:10136000DDF8389021F400610160222084F83D000E
:10137000402084F83E0000202064C4F824B0A4F883
:101380002AA0608D314620850020CFF6FF70E062F4
:1013900020463A464346CDF80090019501F0CEFB39
:1013A00018B1012003B0BDE8F08F208D022806D0CF
:1013B000012810D000BB00200290206812E02068B5
:1013C000016821F480610160016841F400610160FD
:1013D0000021029113E02068016821F4806101601E
:1013E000002102914169029181690291029901688B
:1013F00041F40071016007E000200290206841691B
:101400000291806902900298208D002800F0EB8004
:101410004FF0010B09F101074FF000084FF0200ACF
:10142000042817D202283CD0012854D120684169F1
:10143000490600F1D3804169C90600F1DB80FFF75E
:101440007FFEB9F1000F00F0E180401B4845EDD967
:10145000DCE000BF2068416949060DD44169C90636
:1014600000F1C880FFF76CFEB9F1000F00F0CE80EC
:10147000401B4845EED9C9E02068616A00690870E0
:10148000606A228D0130013A606222852168628D96
:10149000013A62854A69520740F19B8009690170EF
:1014A0008EE02068406910F0040075D18BEA900648
:1014B00006E02068406910F004008BEA90066BD1CA
:1014C000002FF6D0FFF73CFEB9F1000F55D0401BBE
:1014D0004845EED951E02068406910F0040022D15F
:1014E0008BEA900606E02068406910F004008BEA61
:1014F000900618D1002FF6D0FFF722FEB9F1000FA9
:1015000002D0401B4845EED9C4F8308084F83DA095
:1015100084F83E80206C40F020002064F00784F8BE
:101520003C807FF43EAF2068616A026822F48062EA
:10153000026000690870606A216801306062208D75
:1015400001382085608D01386085486910F00400FD
:1015500022D18BEA900606E02068406910F0040072
:101560008BEA900618D1002FF6D0FFF7E9FDB9F10C
:10157000000F02D0401B4845EED9C4F8308084F8F3
:101580003DA084F83E80206C40F020002064F007ED
:1015900084F83C807FF405AF2068616A026842F4F9
:1015A0000072026000690870606A2268411C616212
:1015B000218D01392185618D013961851169417064
:1015C000606A218D01306062481E2085608D01387F
:1015D0006085208D00287FF423AF04E02068616AD5
:1015E00000690870ECE7202084F83D00002084F8B2
:1015F0003E0017E06FF010014161002020212063C0
:1016000084F83D1084F83E00206C09E00020202181
:10161000206384F83D1084F83E00206C40F02000E8
:1016200020640120002184F83C1003B0BDE8F08F55
:101630002DE9F04F83B0994616460F460446FFF752
:101640007FFD94F83D10202922D1DDF83880DDF8A7
:1016500030B005462068806910F0020A14D0FFF708
:101660006FFD401B1A28F5D300202021206384F849
:101670003D1084F83E00216CBAF1000F41F02001CA
:10168000216484F83C0003D194F83C00012803D184
:10169000022003B0BDE8F08F0121206884F83C10DF
:1016A0000168C90703D1016841F0010101600168C7
:1016B000324621F400610160212084F83D00402081
:1016C00084F83E00002020640D98C4F824B06085A2
:1016D000608D394620850020CFF6FF70E0622046FD
:1016E0004B46CDF80080019501F050FB18B1012068
:1016F00003B0BDE8F08F208DA8B308F1010600BF4C
:10170000206850F8141F09060FD40168490540D419
:10171000002EF5D0FFF714FDB8F1000F4FF02001B7
:101720003BD0401B4045EBD937E0606A2168034657
:1017300013F8012B0A61228D6362531E2385678D86
:10174000013F67854F697F070AD51B0408D043789E
:1017500002300B616062901E2085608D01386085CB
:10176000208D0028CCD1204641462A4601F0F8FBC6
:10177000F8B92068016841F400710160202084F804
:101780003D00002084F83E0084F83C0003B0BDE832
:10179000F08F6FF48061016004210020202220631B
:1017A00084F83D2084F83E00226C1143216484F8C3
:1017B0003C00206C04289AD12068016841F4007133
:1017C000016094E72DE9F04387B0006845F6000119
:1017D000C4F2000100268842CDE90566CDE9036622
:1017E000029631D045F20041C4F20001884264D132
:1017F000002443F630050194C4F20205286802A9CA
:1018000040F002002860286800F002000190019872
:10181000C02002901220CDE903040320059004208B
:10182000069040F20040C4F20200FFF7B3FB0194BF
:10183000286940F400102861286900F40010019024
:10184000019807B0BDE8F08343F630070196C4F273
:101850000207386840F2004440F0020038603868FF
:10186000C4F2020400F00200019001984FF480607D
:101870000290042002AD4FF012084FF003090690C9
:1018800020462946CDE90386CDF81490FFF782FB68
:101890000820CDE902080920069020462946CDE916
:1018A0000469FFF777FB0196386940F480003861DE
:1018B000386900F480000190019807B0BDE8F0831A
:1018C00040F2500040F21471C2F20000C2F2000176
:1018D00000780A68104408607047000080B543F63D
:1018E0000040C4F20200016841F400710160016827
:1018F00041F480610160016841F48071016003205E
:1019000000F088F80F2000F005F800F02BF8002018
:1019100080BD0000B0B540F25002C2F2000240F2B9
:1019200008011278C2F200014FF47A730968B3FB20
:10193000F2F20446B1FBF2F1084600F02BFB0F2C4B
:101940004FF001050CD858B94FF0FF302146002266
:10195000002500F033F840F25400C2F200000460A9
:101960002846B0BD82B0002043F640010190C4F289
:1019700002014A6842F480424A604A6802F48042A6
:101980000192019A0090086840F080500860086851
:1019900000F080500090009802B07047002848BFC7
:1019A000704700F01F01012202FA01F14EF200120D
:1019B0004009CEF2000242F82010704710B54EF6F2
:1019C0000C5CCEF2000CDCF80030C3F3022E8EF07B
:1019D0000704042C28BF0424BEF103034FF0FF3E8C
:1019E0000EFA04F438BF0023A14399400EFA03F322
:1019F0009A4300F00F03043B1143634409010C3385
:101A000000F16042B0F1FF3FC8BF02F564431970B6
:101A100010BD00004EF60C51CEF200010A684FF6E0
:101A2000FF031A4060F30A2242F0806040F0FD702C
:101A3000086070472DE9F041002800F08B8043F6E4
:101A40000808C4F202080446D8F8F8030D4600F06E
:101A50000700884207D288F8F853D8F8F80300F056
:101A60000700A84276D12068810717D5410705D520
:101A7000D8F8001041F4E051C8F80010010705D56E
:101A8000D8F8001041F46041C8F80010D8F80010F0
:101A9000A26821F0F0011143C8F80010C0073FD13F
:101AA000D8F8F80300F00700A84207D988F8F853DF
:101AB000D8F8F80300F00700A8424BD1206841078E
:101AC00007D5D8F80010E26821F4E0511143C8F8B6
:101AD0000010000708D5D8F80000216920F4604004
:101AE00040EAC100C8F8000000F07CF8D8F8001007
:101AF00048F2C622C1F30311C0F60002515C40F265
:101B0000080220FA01F140F25400C2F2000000681D
:101B1000C2F200021160FFF7FDFE0020BDE8F08177
:101B20006068811E022907D258F8081C89015CBF31
:101B30000120BDE8F08110E0012807D158F8081C09
:101B400089035CBF0120BDE8F08106E058F8081C5D
:101B5000890702D40120BDE8F081D8F8001021F0F7
:101B600003010843C8F80000FFF7EAFA064641F20D
:101B7000883700BFD8F80000616800F00C00B0EBB7
:101B8000810F8DD0FFF7DCFA801BB842F2D9032019
:101B9000BDE8F08140F2080043F60801C2F20000FF
:101BA000C4F202010068096848F2D622C1F382211A
:101BB000C0F60002515CC8407047000040F20800C7
:101BC00043F60801C2F20000C4F20201006809688D
:101BD00048F2D622C1F34231C0F60002515CC8403F
:101BE0007047000010B543F60404C4F202046068B4
:101BF00000F00C0008280AD0042819BF42F2004067
:101C0000C0F2F40047F64000C0F27D1010BD20681D
:101C100021682368490247F64001C0F27D1100F0B7
:101C20003F02C3F388105CBF42F20041C0F2F401EE
:101C3000A1FB00010023FEF7C9FA21680222C1F3CB
:101C4000014102EB4101B0FBF1F010BD2DE9F04183
:101C500082B0002800F0A2800446007843F6000617
:101C6000C007C4F2020643D0B06800F00C0004289C
:101C700005D1306880033BD56068C8BB8EE0B06892
:101C800000F00C00082802D170684002F1D46568A9
:101C9000B5F5A02F0AD0B5F5803F0BD0306820F401
:101CA00080303060306820F4802006E0306840F4F6
:101CB00080203060306840F480303060FFF740FAB8
:101CC000002D054611D000BF3068800310D4FFF707
:101CD00037FA401B6428F7D922E100BFFFF730FA3A
:101CE000401B64284FF0030055D830688003F5D4BA
:101CF000207880071AD5B06810F00C0F09D0B068B2
:101D000000F00C00082840F08A807068400200F162
:101D100086803068800702D5E06801283ED13068AF
:101D2000216920F0F80040EAC10030602078000707
:101D300038D4207840074CD4A5695DB3B06800F072
:101D40000C00082840F09E80012D27D07068E169C2
:101D500000F480028A4221D1216A00F03F028A42C7
:101D60001CD147F6C071626A0140B1EB821F15D1E8
:101D7000A26A0023CFF6FF7303EBC23200F44031B6
:101D80006FF30F02914209D1E16A00F07060B0EB8D
:101D9000016F03D1002002B0BDE8F081012002B044
:101DA000BDE8F0816069002840F20000C4F24720DD
:101DB00057D00121C0F8801EFFF7C2F9054600BFC9
:101DC000706F8007B5D4FFF7BBF9401B0228F7D925
:101DD000A6E0306C10F080580AD100200190306CE1
:101DE00040F080503064306C00F0805001900198D9
:101DF00047F20007C4F200073868C00524D43868E9
:101E000040F480703860FFF79BF905463868C005DC
:101E10001AD4FFF795F9401B0228F7D980E0E06853
:101E2000002851D00020C4F2472001210160FFF7B3
:101E300087F90546306880073FF571AFFFF780F9F5
:101E4000401B0228F6D96BE0A568052D50D0012D66
:101E500052D0306F20F001003067306F20F0040066
:101E60004DE00021C0F8801EFFF76AF9054600BF6B
:101E7000706F80077FF55DAFFFF762F9401B0228A6
:101E8000F6D94DE00027C4F2472700203866FFF757
:101E900057F9022D05460BD13068800158D5FFF760
:101EA0004FF9401B02284FF00300F5D973E700BF3C
:101EB000306880017FF56EAFFFF742F9401B0228C2
:101EC0004FF00300F4D966E70020C4F24720002158
:101ED0000160FFF735F90546306880077FF526AFCA
:101EE000FFF72EF9401B02284FF00300F4D952E708
:101EF000306F40F004003067306F40F00100306711
:101F0000FFF71EF9002D054641F2883714D000BFB7
:101F1000306F800713D4FFF713F9401BB842F7D98D
:101F2000032002B0BDE8F081FFF70AF9401BB84278
:101F30004FF003003FF62FAF306F8007F4D4B8F1B5
:101F4000000F7FF4F9AE306C20F080503064F3E67F
:101F500004F11C052FCD08430021CFF6FF7140EAA4
:101F6000821001EBC3316FF30F0140EA05600843B3
:101F7000706001203866FFF7E3F80446306880019E
:101F80003FF508AFFFF7DCF8001B02284FF0030015
:101F9000F4D900E7411E0020B0EB116F1CBF0120F7
:101FA00070474EF21002CEF2000251604EF62351FD
:101FB000CEF20001F0230B70072190601160704792
:101FC0007047000070470000002804BF01207047E0
:101FD00010B5044690F83D0028B9002084F83C0074
:101FE000204600F01FF8022084F83D002068211DE3
:101FF00001F086FD012084F8460084F83E0084F854
:102000003F0084F8400084F8410084F8420084F8DE
:10201000430084F8440084F8450084F83D00002023
:1020200010BD000080B582B0006844F20001C4F227
:102030000101884201D002B080BD0020019043F62A
:102040004400C4F202000168002241F480310160C2
:102050000068002100F48030019001981820FFF7FB
:10206000ADFC1820FFF79AFC02B080BD80B590F857
:102070003C20012A4FF0020200F0C280012380F8C8
:102080003C3080F83D20D0F800C04FF67772DCF885
:10209000083023EA0202CCF808200B684F2B28DC1A
:1020A0001F2B43DD202B44D0302B42D0402B40F05F
:1020B000A980D1F804E0C968DCF82030DCF82020E1
:1020C00022F00102CCF82020DCF8182022F0F002E7
:1020D00042EA011123F00A0242EA0E02CCF818107B
:1020E000CCF82020DCF8081041F0470121F0300145
:1020F0007DE06F2B25DDB3F5005F46D0B3F5805F43
:1021000077D0702B7ED1D1E901E3C968DCF80820D3
:1021100043EA0E0322F47F4243EA01211143CCF843
:102120000810DCF8081041F0770160E00BB1102BCB
:1021300068D1DCF8081021F07001194341F0070163
:1021400055E0502B34D0602B5CD1D1F804E0C96845
:10215000DCF8203023F01003CCF82030DCF8183005
:10216000DCF8202023F4704322F0A00243EA01317E
:1021700042EA0E12CCF81810CCF82020DCF8081037
:1021800041F0670121F0100131E0D1E901E3C968B4
:10219000DCF8082043EA0E0322F47F4243EA0121DF
:1021A0001143CCF80810DCF8081041F480411EE01F
:1021B000D1F804E0C968DCF82030DCF8202022F0F7
:1021C0000102CCF82020DCF8182022F0F00242EACC
:1021D000011123F00A0242EA0E02CCF81810CCF8E2
:1021E0002020DCF8081041F0570121F02001CCF844
:1021F00008100022012180F83D10002180F83C10D9
:10220000104680BD0122F5E77047000010B5044676
:1022100000680169890744BFC1685FEA817138D4E9
:1022200020680169490744BFC1685FEA41713CD435
:1022300020680169090744BFC1685FEA017141D4A0
:1022400020680169C90644BFC1685FEAC16145D41D
:1022500020680169C9071CBFC1685FEAC1714AD122
:1022600020680169090644BFC1685FEA016149D479
:1022700020680169490644BFC1685FEA416148D4EA
:1022800020680169890644BFC1685FEA816147D45B
:1022900010BD6FF002010161012121778069800783
:1022A00045D02046FFF7B0FF47E06FF00401016121
:1022B00002212177806910F4407F41D02046FFF74A
:1022C000A3FF43E06FF00801016104212177C06999
:1022D00080073ED02046FFF797FF40E06FF01001E7
:1022E000016108212177C06910F4407F3AD020466F
:1022F000FFF78AFF3CE06FF001010161204600F02A
:102300003FF8ADE76FF0800101612046FFF758FE0E
:10231000AEE76FF040010161204600F033F8AFE70F
:102320006FF0200101612046FFF74CFE10BD2046F2
:1023300000F022F8204600F021F8002020776FE717
:10234000204600F019F8204600F018F80020207709
:102350006EE7204600F010F8204600F00FF800204D
:1023600020776DE7204600F007F8204600F006F8D9
:10237000002020776CE700007047000070470000E5
:102380007047000070470000704700007047000071
:10239000B0B582B0044600680168C368426901F0C4
:1023A0002F05202D03F0200505D125B1204601F091
:1023B000E5FC02B0B0BD5FEA017C1EBF02F0010E79
:1023C00003F4907212EB0E0277D1226B012A05D131
:1023D00011F0100218BF13F0100235D10A0622D5F1
:1023E00013F080021FD094F83D1021292AD1A16852
:1023F000B1F5805F03D12169002900F03881216A9D
:102400004A1C226209784160E18C01390A04E184A6
:1024100018D1C16821F08001C160C16841F040015C
:10242000C16002B0B0BD49060CD513F0400109D01F
:10243000C16821F04001C160202084F83D002046A1
:1024400000F076FB02B0B0BD00210191016801915E
:102450004168019101994069400636D4A08DE18D13
:10246000E28D002A1CBF401A5FEA0041EAD000BF9B
:10247000216851E8031F226821F4907142E8031398
:10248000002BF5D1216851E8051F226821F00101D8
:1024900042E80513002BF5D1202184F83E100021DD
:1024A000216300BF216851E8031F226821F0100159
:1024B00042E80313002BF5D14AE0C80718BF13F414
:1024C00080704BD148074FD455E0A06B0168496834
:1024D0008AB2002AB6D0A38D9A42B3D2E185C069F0
:1024E000B0F5807F31D000BF206850E8030F21682D
:1024F00020F4807041E80302002AF5D1206850E8FA
:10250000050F216820F0010041E80502002AF5D1FD
:10251000206850E8050F216820F0400041E80502DE
:10252000002AF5D1202084F83E000020206300BF5F
:10253000206850E8030F216820F0100041E80302F2
:10254000002AF5D1A06BFEF70BFBA08DE18D401AA0
:1025500081B22046FFF718FF02B0B0BD206C40F0FA
:1025600001002064480706D5BEF1000F03D0206C9F
:1025700040F002002064880706D5BEF1000F03D0AA
:10258000206C40F004002064BCF1000F06D555EA31
:102590000E0003D0206C40F008002064206C00285E
:1025A0003FF450AF11F0200018BF002D02D020469C
:1025B00001F0E4FB20684069216C00F0400001F06C
:1025C0000801401847D000BF206850E8030F216879
:1025D00020F4907041E80302002AF5D1206850E809
:1025E000050F216820F0010041E80502002AF5D11D
:1025F000206B01280AD100BF206850E8030F216832
:1026000020F0100041E80302002AF5D1202084F8D0
:102610003E000020206320684069400622D500BFAC
:10262000206850E8050F216820F0400041E80502CD
:10263000002AF5D1A06BA8B143F6DD31C0F6000148
:102640000165FEF7CDFA00283FF4FCAEA06B016DEA
:10265000884702B0B0BD2046FFF798FE00202064F6
:1026600002B0B0BD2046FFF791FE02B0B0BD216AB6
:1026700031F8022B6FF35F2242602162C4E6000052
:10268000002804BF0120704710B5044690F83D00B3
:1026900028B9002084F83C00204600F021F82420CE
:1026A00084F83D002068C16821F40051C1602046D3
:1026B00001F0C6FB2068016921F490410161416984
:1026C00021F02A014161C16841F40051C16000203C
:1026D0002021206484F83D1084F83E1010BD0000D5
:1026E0002DE9F04387B00446006844F20041C4F28B
:1026F000000100268842CDE90566CDE90366029611
:1027000039D041F20041C4F20101884200F09C80BE
:1027100041F20001C4F20101884240F0E88000204B
:1027200043F630010190C4F202014A6942F01002FE
:102730004A614A6902F010020192019A01900A6806
:1027400042F001020A60096801F00101019101995A
:102750004FF4C06102910221CDE9031003200590DE
:10276000072006900020C4F2020002A9FEF712FC26
:1027700007B0BDE8F08343F630000196C4F20200D2
:10278000016946F2880841F4003101610169C4F22F
:10279000020801F40031019101990196016841F0AC
:1027A00001010160006802A900F001000190019898
:1027B0000C2002900220CDE903060320059007209B
:1027C00006900020C4F20200FEF7E4FB40F2D82598
:1027D000C2F200054FF480704FF000674FF480693B
:1027E000C5E906602846C5E90087C5E90266C5E96E
:1027F0000496C5E90866FEF7CBFA002818BFFEF775
:1028000093F9A563AC6340F2383508F11800C2F2C1
:1028100000054021C5E9000705F10800002280E815
:1028200006024FF48030C5E908022846C5E90522B2
:10283000EA61FEF7ADFA002818BFFEF775F9656387
:10284000AC6307B0BDE8F083002643F63000019684
:10285000C4F20200416941F020014161416901F087
:102860002001019101990196016841F00101016087
:10287000006802A900F00100019001984FF4C050D7
:1028800002900220CDE9030603200590082006905F
:102890000020C4F20200FEF77DFB46F28800C4F27D
:1028A000020040F2983500F56870C2F200054FF062
:1028B00020614FF480624FF4807385E8430028461E
:1028C000C5E90362C5E90566C5E907366E62FEF72C
:1028D0005FFA002818BFFEF727F9472000210022E1
:1028E000A563AC63FFF76AF84720FFF757F807B016
:1028F000BDE8F08310B590F83E30202B0BD10029B5
:102900004FF0010418BF002A01D1204610BD90F8F5
:102910003C30012B01D1022010BD0123002480F89E
:102920003C30046301F0FCFA204610BD7047000003
:10293000704700002DE9F047044690F83D0020283C
:102940000ED10F4600294FF0010000F0A880164676
:10295000002A08BFBDE8F08794F83C00012802D1A6
:102960000220BDE8F087012084F83C004FF0000A07
:1029700021201D46C4F840A084F83D00FEF7E0FB8E
:10298000A684E684A1688046B1F5805F07D12069FE
:1029900000281CBF38465746B946074601E04FF0AD
:1029A000000984F83CA0E08C00283ED06E1C09E0B1
:1029B00087B117F8010B21684860E08C0138E0848A
:1029C000E08C90B3206800680006F1D4AEB175B910
:1029D00016E000BF39F8020B21686FF35F204860F2
:1029E0000027EAE701680906E2D4002EFAD0FEF7D4
:1029F000A7FBA0EB0800A84202D82068F2E700BFBE
:102A0000206850E8030F216820F4D07041E80302E9
:102A1000002AF5D1206850E8050F216820F0010058
:102A200041E80502002AF5D107E020680068400669
:102A300031D4DDB16E1C0BD011E0202084F83D00B4
:102A400084F83E00002084F83C000320BDE8F087B5
:102A5000206800BF016849061DD4002EFAD0FEF799
:102A60006FFBA0EB0800A842F2D900BF206850E835
:102A7000030F216820F4D07041E80302002AF5D149
:102A8000206850E8050F216820F0010041E80502A8
:102A9000002AF5D1D1E7202084F83D000020BDE8D0
:102AA000F087000070B5044690F83D0020280AD158
:102AB0004FF00100D9B3002A134608BF70BD94F847
:102AC0003C00012801D1022070BD012084F83C00A7
:102AD000002621202162A384E384266484F83D003B
:102AE0002268606B43F6315C43F6715E43F6ED3568
:102AF000C0F6000CC0F6000EC0F600050432C0E9B6
:102B00000FCEC0E91356FEF7E3F920686FF04001DD
:102B1000016084F83C6000BF206850E8050F216820
:102B200040F0800041E80502002AF5D1002070BD88
:102B30007047000070470000FEE700002DE9F04FED
:102B400083B00446006899460368904643F4806267
:102B500002600268DDF834A042F4807202604069CD
:102B60000C9E10F001008B4624D180F00105771CEB
:102B700007E000BF2068406910F0010080F0010507
:102B800018D1002FF6D0FEF7DBFA1EB1A0EB0A0039
:102B9000B042EFD900202021206384F83D1084F852
:102BA0003E00216C41F020012164E90784F83C00DB
:102BB00040F0A78020680BF0FE0707614169890794
:102BC0002BD44169490513D4751C00BF4DB1FEF7E4
:102BD000B7FA002E00F0CE80A0EB0A00B04200F25F
:102BE000C98020684169890717D441694905EDD535
:102BF000016841F4007101606FF48061416100205F
:102C00002021206384F83D1084F83E00216C41F0BF
:102C10000401216484F83C0096E0002002902068C2
:102C200050F8141F02914168029102990168090647
:102C300017D4751C05E000BF206850F8141F090662
:102C40000FD40168490567D4002DF5D0FEF778FA56
:102C5000002E4FF0200163D0A0EB0A00B042EBD968
:102C60005EE0B9F1010F1ED020684FEA1821016122
:102C700050F8141F090616D4751C04E0206850F89B
:102C8000141F09060FD40168490545D4002DF5D05D
:102C9000FEF756FA002E4FF0200141D0A0EB0A00BB
:102CA000B042EBD93CE020685FFA88F1016150F84E
:102CB000141F090616D4751C05E000BF206850F8E3
:102CC000141F09060ED40168490525D4002DF5D03E
:102CD000FEF736FA4FF0200116B3A0EB0A00B0421F
:102CE000ECD91DE0206800220168334641F4807170
:102CF000016020464FF00111CDF800A000F066F908
:102D000030B320680068C00544BF4FF400702064F1
:102D1000032003B0BDE8F08F6FF4806101600421EF
:102D200000202022206384F83D2084F83E00226C9D
:102D30001143216484F83C00206C042804D12068ED
:102D4000016841F400710160012003B0BDE8F08F1B
:102D5000206847F0010101610221C0F20101204613
:102D60003246534600F06CF9002818BF012003B02A
:102D7000BDE8F08F00202021206384F83D1084F806
:102D80003E00216C41F0200143E700002DE9F04FA7
:102D900081B00446006890460268DDF82CB042F429
:102DA0008072026040690A9E994610F001008A46CE
:102DB0002ED180F00107751C07E000BF2068406934
:102DC00010F0010080F0010722D1002DF6D0FEF7AF
:102DD000B7F91EB1A0EB0B00B042EFD900202021C3
:102DE000206384F83D1084F83E00216C41F02001FE
:102DF0002164F90784F83C000AD020680068C00507
:102E000044BF4FF400702064032001B0BDE8F08F90
:102E100020680AF0FE010161416989072BD44169EC
:102E2000490513D4771C00BF4FB1FEF789F9002E76
:102E300000F08A80A0EB0B00B04200F28580206891
:102E40004169890717D441694905EDD5016841F405
:102E5000007101606FF480614161002020212063D6
:102E600084F83D1084F83E00216C41F00401216497
:102E700084F83C0064E000200090206850F8141FA3
:102E800000914168009100990168090616D4771CE9
:102E900005E000BF206850F8141F09060ED4016831
:102EA000490535D4002FF5D0FEF74AF94FF020013F
:102EB00096B3A0EB0B00B042ECD92DE0B9F1010FB5
:102EC0001ED020684FEA1821016150F8141F09062E
:102ED00016D4771C05E000BF206850F8141F0906BF
:102EE0000ED40168490513D4002FF5D0FEF728F958
:102EF0004FF0200186B1A0EB0B00B042ECD90BE003
:102F000020685FFA88F10161002001B0BDE8F08F10
:102F10006FF480610160042100202022206384F886
:102F20003D2084F83E00226C1143216484F83C006B
:102F3000206C042804D12068016841F4007101600C
:102F4000012001B0BDE8F08F00202021206384F82B
:102F50003D1084F83E00216C41F0200187E700001D
:102F6000F0B581B004460068154650F8143F5A0782
:102F700015D40E464F1C04E0206850F8141F490772
:102F80000DD4016849050DD4002FF5D0FEF7D8F80F
:102F90004FF0200156B1401BB042EDD906E00020B1
:102FA00001B0F0BD6FF48061016004210020202297
:102FB000206384F83D2084F83E00226C1143216494
:102FC00084F83C00012001B0F0BD00002DE9F0477D
:102FD000DDF820801D469146824601F47F078EB2BF
:102FE0005C1C00BFDAF80000B7F5803F14BF183052
:102FF000143000683040801BB0FA80F0400948452A
:103000001BD1002CEED0FEF79BF81DB1A0EB080001
:10301000A842E7D900202021CAF830008AF83D10E4
:103020008AF83E00DAF8401041F02001CAF840105A
:103030008AF83C000120BDE8F0870020BDE8F08759
:103040002DE9F04104460068984643698FB203EACF
:103050000701B94202D10020BDE8F081416949056C
:1030600014D41646551C00BF45B1FEF769F84FF061
:1030700020019EB1A0EB0800B0420FD82068416942
:103080003940B942E7D041694905EDD5016841F4BD
:10309000007101606FF480614161042100202022F1
:1030A000206384F83D2084F83E00226C11432164A3
:1030B00084F83C000120BDE8F08100002DE9F041DA
:1030C0006B20802100F0A8F86420FDF74FFF6B20F3
:1030D0000021002400F0A0F81B20182100F09CF82B
:1030E0001C20002100F098F81920132100F094F81A
:1030F0001A20042100F090F83820002100F08CF80C
:103100006A20002100F088F82320002100F084F8D4
:103110003720802100F080F8752000F04DF86B20FA
:1031200001214FF0010800F077F86C20002100F039
:1031300073F81920132100F06FF81A20042100F011
:103140006BF840F2BC004DF20A7140F2CC0343F23E
:103150003335C2F20000C3F62341C2F20003C3F6C6
:1031600033754FF07C5280E81600C460C3E9001547
:1031700040F238114FF26A7040F2DC0641F6B8674F
:1031800049F69A1CC2F20001C3F2AB60C2F200061B
:10319000C3F60577C3F6996C88640020C3E902443E
:1031A000C6E9007CC6E9024481F83880C1E90944D7
:1031B000CC62BDE8F081000080B584B002460120F9
:1031C0000DF10F01CDE9001040F250404FF0FF0C1F
:1031D000C2F20000D0210123CDF808C0FEF782F82A
:1031E0009DF80F0004B080BD80B584B08C4640F2DD
:1031F00050404FF0FF0ECDE90032C2F20000D12165
:1032000062460123CDF808E0FEF76CF80120FDF7D7
:10321000ADFE002004B080BD80B584B002468DF8BC
:103220000F1001200DF10F01CDE9001040F25040C8
:103230004FF0FF0CC2F20000D0210123CDF808C0EE
:10324000FEF7F6F904B080BD80B584B08C4640F23C
:1032500050404FF0FF0ECDE90032C2F20000D02105
:1032600062460123CDF808E0FEF7E2F9002004B041
:1032700080BD000080B582B0002043F6300101908F
:10328000C4F202010A6842F400120A600A6802F4F9
:1032900000120192019A00900868002240F4800018
:1032A00008600868002100F4800000900098102059
:1032B000FEF784FB1020FEF771FB11200021002295
:1032C000FEF77CFB1120FEF769FB3920002100226C
:1032D000FEF774FB3920FEF761FB02B080BD0000F1
:1032E00080B586B0002043F630010590CDE903009B
:1032F000CDE901000090C4F202010A6842F08002A8
:103300000A600A6802F080020092009A00900A683F
:1033100042F001020A600A6802F001020092009A7B
:1033200000900A6842F002020A60096801F0020196
:10333000009100994FF48051CDE9011001200390D4
:1033400040F20040C4F2020001A9FDF723FE06B0DE
:1033500080BD000080B540F2FC3045F20041C2F271
:103360000000C4F2000148F2A06200234FF4804C38
:10337000C0F2010280E80E00C0E9033CC0E9053359
:10338000C0E90733FDF7E2FE002818BFFDF7CCFBCC
:1033900080BD000080B540F2504045F60001C2F209
:1033A0000000C4F2000148F2A06200234FF4804CF8
:1033B000C0F2010280E80E00C0E9033CC0E9053319
:1033C000C0E90733FDF7C2FE002818BFFDF7ACFBCC
:1033D00080BD000080B584B040F2A8400021C2F258
:1033E000000044F200024FF6FF7CCDE90211CDE966
:1033F0000011C4F201025323C0E9021C01618021C3
:10340000C0E900238161FEF7DFFD002818BFFDF74A
:103410008BFB4FF48050009040F2A840C2F20000B5
:103420006946FEF723FE002818BFFDF77DFB04B0B8
:1034300080BD000080B540F2F04041F20001C2F2D0
:103440000000C4F2010100234FF00C0C4FF4E132F4
:1034500080E80E00C0E90333C0E905C3C361FFF78C
:103460000FF9002818BFFDF75FFB80BD80B540F263
:10347000345044F20041C2F20000C4F200010023C3
:103480004FF00C0C4FF4004E4FF4964280E80E00C3
:10349000C0E90333C0E905C3C0F81CE0FFF7F0F84A
:1034A000002818BFFDF740FB80BD000080B540F24A
:1034B000785041F20041C2F20000C4F20101002341
:1034C0004FF00C0C4FF4E13280E80E00C0E90333FA
:1034D000C0E905C3C361FFF7D3F8002818BFFDF7A3
:1034E00023FB80BDFEE70000FEE7000080B52DED68
:1034F0000C8B40F2345040F22411C2F20000C2F2B0
:1035000000011222FFF7F6F99FED369A9FED36AAD9
:103510009FED36BA9FED36CA9FED36DA40F23C6039
:10352000B1EE048AC2F20000B0EE480AF0EE490A99
:10353000B0EE491AF0EE4A1AB0EE4B2AF0EE4C2AE1
:10354000B0EE4D3A00F030FA40F27060C2F2000086
:10355000B0EE480AF0EE490AB0EE491AF0EE4A1A07
:10356000B0EE4B2AF0EE4C2AB0EE4D3A00F01CFAC9
:1035700040F20C1049F2222149F2222C44F67352F7
:1035800045F6433EC2F20000C3F62371C3F6A37CA6
:103590004FF07E53C3F69272C3F6D36EC0E9003289
:1035A000C0E902E1C0E904C140F2F4004CF6F37155
:1035B0004CF6F37C4CF6680243F2B60EC2F2000001
:1035C000C3F61461C3F6946CCBF62B72C3F6816E0E
:1035D000C0E90032C0E902E1C0E904C1BDEC0C8BD6
:1035E00080BD00BF0000000000004843000048C349
:1035F00000000243000002C3B0B540F224100022D4
:10360000C2F20000002100BF835CFE2B08BF114600
:1036100001320A2AF8D1425CFE2A5FD1084441787F
:1036200004295BD1017AAA2958D190F802C0C17847
:103630000379447901EB0C051D4425448279EDB2F0
:10364000954240F23465C2F2000508D14CEA0121EE
:10365000698043EA0421C079494229802871B5F97B
:10366000000040F2EC0EC2F2000E00EE100ADEF88E
:10367000000040F2580240F20C13B8EEC00AC2F249
:1036800000026428C2F2000382ED020A28DB93EDF7
:10369000033A93ED044A92ED017A93ED055A92EDC7
:1036A000006A93ED011AD2ED041A24EE074A23EEC4
:1036B000003A93ED022AD2ED030A33EE043A25EEE6
:1036C000064A34EE033A21EE211A33EE411A22EE75
:1036D000202A31EE421A82ED051A06E00020B0BD24
:1036E000013082ED050ACEF80000506892ED051A0F
:1036F0001060106982ED010ABDEEC10A40F21E6C35
:10370000D06010EE100AC2F2000CACF80000B5F95F
:10371000020082ED041A01EE100ADEF80000B8EE95
:10372000C11A642882ED081A26DB93ED034A93ED53
:10373000045AD2ED070A93ED056A92ED067A93EDED
:10374000012AD2ED0A2A25EE205A24EE014A93EDF1
:10375000023AD2ED091A34EE054A26EE075A35EE42
:10376000044A22EE222A34EE422A23EE213A32EE95
:10377000432A82ED0B2A04E0013082ED0B1ACEF8C9
:103780000000D06982ED071A92ED0B1A9061906AE1
:1037900082ED0A1ABDEEC11A506211EE100AACF8A1
:1037A0000200287940F2146CC2F2000C9FED773AC7
:1037B000B8EEC12A8CF80800B8EEC00A40F22460C6
:1037C00020EE031AC2F2000022EE030A40F2381182
:1037D00080ED001A80ED010AC2F20001DEF800005F
:1037E00091ED044A40F2880240F2F403C2F2000272
:1037F0006428C2F2000382ED024A26DB93ED035AED
:1038000093ED046AD2ED011A93ED057AD2ED000A28
:1038100093ED012AD2ED043A26EE216A25EE045AF0
:1038200093ED023AD2ED032A35EE065A27EE206ACE
:1038300036EE055A22EE232A35EE422A23EE223AAC
:1038400032EE432A82ED052A04E0013082ED054A7A
:10385000CEF8000092ED055A9FED4D3A506885EE86
:10386000032A1060106982ED014A91ED034ADEF8E7
:103870000010D06040F2D020C2F20000642982ED36
:10388000045A82ED084A80ED002A26DB93ED037A84
:10389000D3ED040AD2ED073AD3ED051AD2ED062A8C
:1038A00093ED015AD2ED0A5A60EEA30A27EE047A8C
:1038B00093ED026AD2ED094A37EE207A61EEA20A50
:1038C00030EE877A25EE255A37EE455A26EE246AE1
:1038D00035EE465A82ED0B5A04E0013182ED0B4A77
:1038E000CEF8001092ED0B5AD16985EE033A916142
:1038F000916A82ED074AB0EE084A82ED0A5AB4EEA8
:10390000442AB8EE085A5162F1EE10FAB0EE456A58
:1039100040F2A441C2F2000180ED013AC8BFB0EE0E
:10392000442AB4EE452AF1EE10FAB4EE443AC8BF88
:10393000B0EE426AF1EE10FAC8BFB0EE443AB4EE0F
:10394000453A40F22C60F1EE10FAC8BFB0EE435A8F
:1039500091ED002A31EE461AC2F2000030EE450A1F
:1039600080ED001A21EE021A80ED010ABDEEC11AA7
:1039700020EE020A11EE100ABDEEC00AACF80000FB
:1039800010EE100AACF802000120B0BD9A99993DE2
:103990003333654280B5FFF72FFE40F2F001C2F2EB
:1039A0000001087080BD000000F1140181EC030AE1
:1039B00000210162C0E90011C0E90211016180ED3E
:1039C000092AC0ED0A1AC0ED0B2A80ED0C3A7047A7
:1039D00070470000704700002DE9F04140F2881068
:1039E000C2F20000007A00281CBF0020BDE8F08170
:1039F00040F2345540F28818C2F20005C2F20008C5
:103A0000284641460822FFF74DF8022811D140F21E
:103A1000881620270024C2F2000600BF284631463F
:103A2000082285F83D7085F83C40FFF73BF80228F6
:103A3000F4D0012088F80800BDE8F08180B5FDF7DA
:103A40003FFF80BD70B592B006AC20463021FCF738
:103A500038FC002543F640000595CDE90355CDE936
:103A600001550095C4F202000168022241F0805124
:103A700001600068012600F080500090009847F235
:103A800000000095C4F20000016862F38F3101600C
:103A9000006800F44040009000984FF48030079098
:103AA000204606960C95FEF7D1F820B1EFF3108072
:103AB00072B600BFFEE70F20CDE9010601A8002184
:103AC000CDE903550595FDF7B5FF20B1EFF3108063
:103AD00072B600BFFEE712B070BD00004EF688500F
:103AE000CEF20000016841F47001016070470000EF
:103AF00080B540F2A840C2F20000FEF787FB80BD0F
:103B000010B540F2FF7E0368C4F2000E40F2000CD4
:103B10007045C4F2010C0ADD40F60002C4F2000256
:103B200090420DD060450BD040F6004204E0B0F169
:103B3000804F05D040F20042C4F20002904203D10F
:103B40004A6823F0700313434FF6FF72C4F2000279
:103B5000904209DC704512DCB0F1804F26D040F273
:103B60000042C4F200021FE044F2FF32C4F201023C
:103B700090420FDC604519D044F2000212E040F69A
:103B80000002C4F20002904210D040F60042C4F29B
:103B9000000209E044F60002C4F20102904205D09E
:103BA00044F20042C4F20102904203D1CA6823F4F5
:103BB0004073134323F080024B69D1F800E08C6816
:103BC0001A4360450260C462C0F828E002D1096966
:103BD000CCF830100121416110BD000080B5806B30
:103BE0000021C185C184FEF7D1FB80BD80B5806B0B
:103BF0000168496990F83D20212A12D111F0800115
:103C00000FD00021C18400BF016851E8031F026882
:103C100021F0C00142E80313002BF5D1202180F8E8
:103C20003D100168496990F83E20222A2BD111F0FD
:103C3000400128D00021C185016851E8031F0268B6
:103C400021F4907142E80313002BF5D1016851E88B
:103C5000051F026821F0010142E80513002BF5D190
:103C6000016B01290AD100BF016851E8031F0268F6
:103C700021F0100142E80313002BF5D1202180F838
:103C80003E1000210163016C41F010010164FEF758
:103C90007DFB80BD80B50168806B0968C9052FD4A4
:103CA0000021C185016851E8031F026821F4807179
:103CB00042E80313002BF5D1016851E8051F0268A3
:103CC00021F0010142E80513002BF5D1016851E80C
:103CD000051F026821F0400142E80513002BF5D1D1
:103CE000202180F83E10016B012909D1016851E8BB
:103CF000031F026821F0100142E80313002BF5D1E5
:103D0000016B012903D1818DFEF73EFB80BDFEF7DB
:103D10000DFE80BD80B5806B016B012904D1818DC2
:103D20004908FEF731FB80BDFEF702FE80BD0000B2
:103D300080B50168806B0968C90516D40021C1846B
:103D4000016851E8051F026821F0800142E805136F
:103D5000002BF5D1016851E8031F026841F04001D2
:103D600042E80313002BF5D180BDFEF7E1FE80BDD4
:103D700080B5806BFEF7DEFE80BD000080B582B0AE
:103D800090F83E1022291ED18268B2F5805F02D1E0
:103D90000169002948D0816AB2F5805F07D00AB96D
:103DA000026922B10268526802F07F0201E00268F3
:103DB00052680A700121826A11448162C18D013901
:103DC0000A04C18501D002B080BD0168CA6822F032
:103DD0002002CA60CA6822F48072CA604A6922F06E
:103DE00001024A61202180F83E10016B012923D194
:103DF00000210163016851E8031F026821F01001EE
:103E000042E80313002BF5D101680A68D20606D5F3
:103E1000002201920A680192496801910199818DFD
:103E2000FEF7B2FA02B080BD0168826A49686FF39A
:103E30005F2111800221BEE7FEF778FD02B080BD50
:103E400010B504460068D4E902C22369016921F46F
:103E5000405111430161626943EA0C01E369114376
:103E6000C268194349F20C639A431143C160416926
:103E7000A26921F4407141F20043114340F4806291
:103E8000C4F201039A42416102D1FDF797FE01E0BD
:103E9000FDF780FEE16963681922B1F5004FA0FBD0
:103EA00002011DD15A00DB0FFCF790F948F21F51B7
:103EB000C5F2EB11A0FB01235A096FF0630302FB6B
:103EC0000300322303EBC000A0FB01014FF4F870A4
:103ED00000EA111000EB0210C1F3421108441BE08C
:103EE0009A009B0FFCF772F948F21F51C5F2EB11D3
:103EF000A0FB01235A096FF0630302FB0300322386
:103F000003EB0010A0FB0101F02000EA511000EBD0
:103F10000210C1F3431108442168886010BD0000FD
:103F200070B582B01346002604468162838506641C
:103F3000222084F83E000A462168A06B43F6954C87
:103F400043F6155E43F6ED35C0F6000CC0F6000EE4
:103F5000C0F600050431C0E90FCEC0E91356FCF7E6
:103F6000B7FF0196206801680191406801900198AF
:103F7000206984F83C6048B1206850E8030F21684C
:103F800040F4807041E80302002AF5D1206850E82F
:103F9000050F216840F0010041E80502002AF5D133
:103FA000206850E8050F216840F0400041E8050214
:103FB000002AF5D1002002B070BD000080B540F2AB
:103FC0007850C2F20000FEF7E3F980BD10B540F270
:103FD0008810C2F20000017A71B3662140F20C72BF
:103FE000017040F20D71C2F20002C2F2000140F213
:103FF0000E7392F800C091F800E0C2F2000340F2A4
:104000000F721C78C2F2000240F210711278C2F2F4
:1040100000018EEA0C030978634002715A40417135
:1040200051408171992180F801C080F802E0C4708C
:10403000A0F80710012010BD002010BD00000000F6
:1040400010B52DED068B82B040F23814C2F2000498
:1040500094F83800002800F0C780012800F0CB80D9
:10406000022840F0DE8004F10800211D224601F004
:10407000B7F9FDF765F8E16B401A2064FDF760F8C9
:1040800094ED0B0A9FED6E1AB1EE402AB4EE410A90
:10409000F1EE10FAC8BFB0EE420A94ED012A94ED99
:1040A000023A94ED0A6A94ED075A33EE000A36EEAE
:1040B000023A36EE422AB4EE416A94ED106A30EECE
:1040C000455AB8EE466AB1EE433A9FED5E8A94EDEA
:1040D000064AF1EE10FAC8BFB0EE423A25EE062AC3
:1040E00082EE082A33EE444A24EE064A84EE084A59
:1040F00084ED020AE063A06884ED013A94ED000AC1
:10410000E0616068A06184ED042A94ED092A32EE32
:10411000409A32EE000AB4EE412A84ED034AB1EE31
:10412000400AF1EE10FAC8BFB0EE409A94ED12AA20
:1041300084ED009AFDF704F8616C94ED081A401ABA
:1041400000EE100AB8EE400A2AEE000A94ED102A9A
:1041500030EE090A30EE411AB8EE422A21EE021A78
:1041600081EE081A84ED000A20686B462062682000
:104170003B21062284ED051AFFF736F870B9BDF829
:104180000000BDF8021000BA000C208608BABDF885
:104190000410000C608608BA000CA0860DF106031E
:1041A000682041210222FFF71FF8BDF80600C0BABF
:1041B000FCF727FA9FED1E0B53EC102BFCF7B2F91E
:1041C0009FED1D0B53EC102BFCF793F8FCF73DFA19
:1041D0009FED1D0A01EE100A21EE000ABDEEC00A95
:1041E00010EE100AE0861CE0FCF7AAFF60640120D4
:1041F00084F8380015E0FCF7A3FF616C401A43F621
:10420000982188420DD304F10800211D224601F0B7
:10421000E7F894E8070004F1240307C3022084F8B8
:10422000380002B0BDEC068B10BD00BF00BF00BF60
:104230000000000000407540A4703D0AD743424092
:10424000ACC5273700007A440000C842FEE70000F2
:1042500040F20D71C2F200010870704740F20C711B
:10426000C2F200010870704740F20E71C2F2000104
:104270000870704740F20F71C2F200010870704779
:104280002DE9F04186B004464CF60220C0F6E3105A
:104290000DF10205CDF80200682004212A4602F043
:1042A00031FAA3206FF03F018DF8020014F04006B0
:1042B00008BF6FF05C016FF037026FF03D0308BF7D
:1042C0006FF05C0208BF6FF05C038DF803106FF0B5
:1042D0003B018DF804208DF8053014F4C07708BF39
:1042E0006FF05C016FF033026FF0390308BF6FF0BD
:1042F0005C0208BF6FF05C038DF806104AF2A33130
:104300008DF80720ADF809108DF80B0040F6A720B6
:104310000A212A468DF8083002F0F4F9202014F022
:10432000030808BF6FF027008DF8020040F6B620A2
:1043300001212A4602F0E6F9A0060CD4C7208DF828
:10434000140048F6B000CCF2C35004904AF6B820EE
:10435000CAF6AA200BE05D208DF8140049F6B400DF
:10436000C3F20D5004904AF6B820C8F6B35003903B
:1043700003AA4FF49760092102F0C4F92FB36FF03C
:104380004D016FF0740214F4807008BF6FF04F019C
:1043900008BF6FF07F026FF049036FF0640508BF3C
:1043A0006FF04B03002808BF6FF06F058DF8021007
:1043B0008DF803200DF1020240F6A22004218DF8B1
:1043C00004308DF8055002F09DF9E00708D1D8209F
:1043D0008DF802000DF102024FF40B60012150E054
:1043E000F8208DF802000DF102024FF40B6001215C
:1043F00002F088F90720FA2100F020FB3F208DF819
:104400000C0003AA4FF4A470012102F07BF90020F4
:104410008DF80C0003AA40F24F10012102F072F94E
:104420004FF4A050ADF80C0003AA4FF4EF70022136
:1044300002F068F94FF4C840ADF80C0003AA4FF43D
:10444000ED70022102F05EF948F60060C9F2F90051
:10445000039003AA4FF4AE70042102F053F94FF415
:104460000060ADF80C0003AA4FF4AD70022102F019
:1044700049F94FF40070ADF80C0003AA4FF4AC708A
:10448000022102F03FF9A0076FF0260058BF6FF03D
:1044900027008DF802000DF1020240F23D7001216B
:1044A00002F030F9600752BF4FF08B304CF2C02061
:1044B000CCF2C460039003AA40F69820042102F0D5
:1044C00021F901F0C5FBE00652BF4FF0A33042F6E0
:1044D0002000C3F63000039003AA40F69E2004217A
:1044E00002F010F901F0B4FB40F29C2144F0080006
:1044F000C2F20001088001F0ABFB002E18BF0626B7
:10450000002F40F2A22018BF0636C2F2000014F0BD
:10451000140F067002D0017810310170B8F1000F4D
:1045200002D0017804310170002006B0BDE8F081AE
:1045300080B548F2F621C0F6000140F6F6304FF49F
:104540008062C82301F092F980BD00002DE9F04F90
:1045500089B01446DDE9129288460021A9F80010BE
:1045600040F2A221C2F2000109780DF1040A83464B
:10457000084651461E4601F017FB20B14FF0FF30B0
:1045800009B0BDE8F08F40F29C27C2F200073888DE
:1045900010F0140F51D09DF805109DF804009DF8FF
:1045A000062009049DF8073041EA006040EA022134
:1045B000194421609DF809109DF80820090441EA7A
:1045C00002619DF80A209DF80B3041EA02221A444C
:1045D00062609DF80D209DF80C30120442EA0362DF
:1045E0009DF80E3000969DF80F6042EA0323334495
:1045F000A3609DF811309DF810601B0410FB30F093
:1046000043EA06639DF8126011FB31009DF81350D8
:1046100012FB320043EA062613FB33006FF0885189
:10462000354446184FF6FE70CFF6FF508642E560DF
:1046300005D801F00DFB002005E000200BE0B9F8E3
:10464000000040F480706FF000718E42A9F8000005
:1046500094D3009E102039884A062BD540F00103E0
:104660001AF800201AF80330374643EA022240F0D5
:10467000020340F003061AF803301AF80660A8F89F
:10468000002046EA032240F0040340F005061AF831
:1046900003301AF80660A8F8022046EA0322A8F8B8
:1046A0000420B9F800203E4640F0060042F008021F
:1046B000A9F8002011F4C07F18D03AF800200AEBC6
:1046C000000312BA5F88120CABF800203ABA9B883C
:1046D000120CABF802201ABA120CABF80420B9F88D
:1046E0000020063042F07002A9F8002089071CD093
:1046F0000AEB00056878EC78C0070BD040F29020F8
:10470000C2F2000002682AB104F00700411CC4F3A1
:10471000C20090476878000707D540F29420C2F2A3
:104720000000016809B1A0098847304600F00AFE80
:10473000002009B0BDE8F08FB0B584B004460DF19B
:10474000020000F0A7FF40F29821C2F200010988A0
:10475000BDF8020001F003024B0754F822204FF08D
:104760000C034FEAC03C48BF524203EA510388069B
:10477000E358C1F3811048BF5B4254F82000C905DB
:1047800048BF40428CFB00018CFB02E2800F8CFB97
:10479000035440EA810C900D8DF80400900B8DF8C5
:1047A000050090098DF80600A00D8DF80800A00BFB
:1047B0008DF80900A0098DF80A00880D8DF80C000D
:1047C000880B4FEA9E73AD0F8DF80D00880943EA00
:1047D000820345EA84058DF80E0001AA4FF4257086
:1047E0000C218DF807308DF80B508DF80FC001F0BB
:1047F00089FF04B0B0BD000010B586B004464AF68B
:10480000BB70CDF6DF7005904FF2AA10CDF6DF70C9
:1048100004904FF2FE20CCF2AB40C82C039016D887
:10482000C820B0FBF4F0002101388DF804108DF899
:10483000050001AA40F21620022101F063FF30B901
:1048400003AA40F6C1200C2101F05CFF18B14FF023
:10485000FF3006B010BD40F2A020C2F2000004807C
:10486000002006B010BD000070B582B040F2982163
:10487000C2F2000109884EF2093401F0030250F837
:1048800022200C264B0748BF5242C0F2CA2406EA37
:104890005106C1F3811582FB0423865950F8255037
:1048A000880648BF7642C8054FEA935148BF6D421B
:1048B000900F8DF80410990B40EA83008DF80510D5
:1048C00099098DF806108DF8070001AA4FF474704D
:1048D000042101F017FF68B986FB0401800F40EA4C
:1048E000810000BA019001AA4FF47570042101F013
:1048F00009FF18B14FF0FF3002B070BD85FB040115
:10490000800F40EA8100010E8DF80410010C8DF833
:104910000510010A8DF806108DF8070001AA4FF462
:104920007670042101F0EEFE02B070BDB0B582B029
:10493000054648F2C321C0F60001C5F3C10300F0EB
:104940000300CC5C0A5C8DF8054048F2C0248DF869
:104950000420C5F38112C0F60004895C205C8DF848
:1049600006108DF80000E05CA15C8DF801008DF868
:10497000021001AA40F22640032101F0C3FEA0BBB1
:104980006A4640F22A40032101F0BCFE68BB762053
:104990008DF8060045F23660ADF8040044F226605A
:1049A000ADF80000662069078DF8020021D4A80642
:1049B0002DD4E8050BD59DF806009DF8021040F0B7
:1049C00001008DF8060041F001008DF8020001AAF7
:1049D0004FF48860032101F095FE30B96A4640F239
:1049E0003140032101F08EFE00B34FF0FF3002B0E2
:1049F000B0BD9DF804009DF8001040F001008DF856
:104A0000040041F001008DF80000A806D1D59DF802
:104A100005009DF8011040F001008DF8050041F0FF
:104A200001008DF80100E805C5D4D0E740F29820D8
:104A3000C2F200000580002002B0B0BDB0B582B067
:104A40000446B1F5C86F4FF0FF3045D80D4614F05D
:104A5000070141D00DF1030000F000FE9DF80300B6
:104A600002384FEA7000072865D8C1B28B2222FABB
:104A700001F1C9075FD000EE105A9FED311AB8EE70
:104A8000400A80EE010A2FA101EB800191ED001A8E
:104A900034A101EB800090ED002A20EE011A20EEF7
:104AA000020ABDEEC00A10EE100ABDEEC10A10EEF9
:104AB000101A0A0A8DF804208DF80510010A01AABF
:104AC000951C8DF80610E1078DF8070006D1A007A8
:104AD00013D4600720D4002002B0B0BD01AA4FF467
:104AE000EA70022101F00EFE28BB4FF49270022101
:104AF0002A4601F007FEF0B9E9E701AA4FF4EC708D
:104B0000022101F0FFFDB0B94FF4947002212A4652
:104B100001F0F8FD78B9DCE701AA4FF4EE7002214C
:104B200001F0F0FD38B94FF4967002212A4601F0E9
:104B3000E9FD0028CFD04FF0FF3002B0B0BD00BF7C
:104B40000000484300008046000000460000804608
:104B5000000080450000804600008046000080463E
:104B600000000045000040460000C04500004046EF
:104B7000000040450000404600004046000040461E
:104B80000000C0442DE9F04F81B04FF4FA60FCF70B
:104B9000EDF940F20C70C2F200008027077040F27D
:104BA0000D70C2F20000077040F20F70C2F20000F8
:104BB000077040F21070C2F200004FF0000840F29F
:104BC000881480F80080C2F20004662040F20E765D
:104BD00020704FF0803040F23455C2F20006C4F825
:104BE00001004FF41900C2F200054FF0200A4FF007
:104BF000FF0B4FF000093770C4F8050009E000BF53
:104C00004FF47A70FCF7B2F909F10109B9F1030F19
:104C100076D0207A377018B36620207040F20C707E
:104C200040F20D71C2F20000C2F2000140F20F72B8
:104C300000780978C2F2000240F210731278C2F2D2
:104C4000000360701B7848405040584080F080005E
:104C5000A0719920A170E77022716371A4F8070018
:104C6000207A70B904E000BF85F83DA085F83C804B
:104C7000284621460822FDF715FF0228F4D001201E
:104C800020724FF4FA70FCF771F9207A86F800B0C0
:104C900018B36620207040F20C7040F20D71C2F221
:104CA0000000C2F2000140F20F7200780978C2F2EF
:104CB000000240F210731278C2F2000360701B7899
:104CC000484050405840C043A0719920A17084F8DA
:104CD00003B022716371A4F80700207A00288FD1F5
:104CE00004E000BF85F83DA085F83C8028462146B9
:104CF0000822FDF7D7FE0228F4D0012020727FE7BA
:104D000001B0BDE8F08F000080B582B0019040F2A4
:104D1000F040C2F2000001A901224FF6FF73FDF737
:104D200009FE019802B080BD40F2A440C2F200002A
:104D300090ED000A704700002DE9F04784B040F282
:104D4000180705460120C2F200070C46ADF8040022
:104D5000D7E9001016460078897C01AB0222FEF7E5
:104D600073FA10B14FF0FF378DE1C820FCF7FEF861
:104D700000208DF80400D7E9001001AB0078C97B52
:104D80000122FEF761FA10B14FF0FF377BE1D7E95E
:104D9000001001AB007849790122FEF755FA10B1F5
:104DA0004FF0FF376FE1D7E9001001AB0078897C45
:104DB0000122FEF749FA10B14FF0FF3763E1D7E95E
:104DC000001001AB0078C97D0122FEF73DFA10B159
:104DD0004FF0FF3757E1D7E9001001AB00780979B0
:104DE0000122FEF731FA10B14FF0FF374BE10C20F2
:104DF0008DF80400D7E9001001AB00780979012291
:104E0000FEF722FA10B14FF0FF373CE10F20FCF71C
:104E1000ADF8B86A3968407A7A688DF8040010787D
:104E2000897801AB0122FEF70FFA10B14FF0FF377E
:104E300029E1B86A3968007A7A688DF80400107838
:104E4000497801AB0122FEF7FFF910B14FF0FF37AF
:104E500019E1B86AD7E90012807A002E18BF40F035
:104E6000E0008DF804001078897901AB0122FEF78B
:104E7000EBF910B14FF0FF3705E126B1B86AC07AFF
:104E800060F01F0000E018208DF80400D7E9001042
:104E900001AB0078C9790122FEF7D6F910B14FF0C5
:104EA000FF37F0E016B1C820FCF760F840208DF81D
:104EB0000400D7E9001001AB007809790122FEF760
:104EC000C3F910B14FF0FF37DDE078208DF8040012
:104ED000D7E9001001AB007849790122FEF7B4F957
:104EE00010B14FF0FF37CEE03220FCF73FF8002042
:104EF0008DF80400D7E9001001AB00784979012250
:104F0000FEF7A2F910B14FF0FF37BCE0D7E900106F
:104F100001AB0078897A0222FEF766F910B14FF0F2
:104F2000FF37B0E0BDF804004AF6AB2100BA000C30
:104F30004843C0F3C7480021B8F1000FC5E900118C
:104F4000A960C4E90011A16042D0C00C00260DF197
:104F500004095FFA80FAD7E900100C220078C97AB8
:104F60004B46FEF741F9002840F08B80BDF8040065
:104F7000BDF80610BDF8082090FA80FCD4E9003096
:104F800009BA92FA82FEA26803EB2C4300EB21409F
:104F900002EB2E41C4E90030BDF80A00A160BDF863
:104FA0000C1090FA80FCBDF80E20D5E9003009BA4B
:104FB00092FA82FEAA6803EB2C4300EB21400136F3
:104FC000C5E90030F0B202EB2E415045A960C2D3D2
:104FD00095E841028322C117090441EA1041000407
:104FE00000230027FBF723F942460023FBF71FF9B4
:104FF0002860F017000440EA1641300483220023A1
:10500000FBF715F942460023FBF711F968604FEAF8
:10501000E970000440EA19414FEA09408322002365
:10502000FBF705F942460023FBF701F9A860D4E934
:105030000006A568C117490141EAD0614001424616
:105040000023FBF7F4F82060F017400140EAD66136
:10505000700142460023FBF7EAF86060E817400160
:1050600040EAD561680142460023FBF7E0F84FF4BF
:1050700080310028C4BF0021CFF6FF710844A06032
:1050800001E04FF0FF37384604B0BDE8F08700007C
:1050900090F9001000290DDD002190F90320002A6D
:1050A0000FDD002290F90630002B11DD00201143A6
:1050B0000843704713D490F90110002916DD01212F
:1050C000EBE70ED490F90420002A16DD0822E9E768
:1050D00009D490F90730002B16DD4020E7E70421C2
:1050E000DBE72022DEE74FF48070E0E713D490F98D
:1050F0000210002916DD0221CFE70ED490F9052019
:10510000002A14DD1022CDE709D490F90800002808
:1051100012DD8020CBE70521BFE72822C2E74FF44C
:10512000A070C4E74FF0060108BF0721B5E74FF0B4
:10513000300208BF3822B5E74FF4C07008BF4FF403
:10514000E070B4E794B040F2A0110020C2F2000178
:10515000002200BF8B1888540C32F02A58609860E7
:10516000F8D1FDF7ABFF00F001FAFEF7BFF901F04F
:10517000BDFCFBF743FC40F2C05640F2B80740F2DA
:10518000BB0540F2BA0440F2B90A40F2CC28C2F2A0
:105190000006C2F20007C2F20005C2F20004C2F229
:1051A000000A4FF0000BC2F2000808E0387805282A
:1051B0008AF800000EBF87F800B001303870FBF7A6
:1051C000BFFF39783060052962D8DFE801F00310AD
:1051D000212E474EFBF7B4FF98F8001030600029ED
:1051E00056D1FFF7CFFC012088F8000050E0FBF714
:1051F000A7FF306032202221FBF72AFC002847D18C
:1052000040F24402C2F2000207CA01F007FE3FE08A
:10521000FBF796FF306064203321FBF719FCB8BB25
:10522000FEF7D4FEFEF7D8FB32E0FBF789FF3060D3
:1052300014204421FBF70CFC50BBFEF701FFE946AC
:105240004846FBF777FC40F2C450C2F200004946E2
:105250005022FBF71DF8FEF79DFB19E0FBF770FFEE
:105260003060552001F07EFD12E0FBF769FF3060F1
:1052700064206621FBF7ECFB50B9FBF789FBFFF7D5
:1052800053FD40F2F830C2F2000080ED000A00BF8A
:10529000287801287FF48AAF207818B1012803D13B
:1052A000022000E001202070207802287FF487AFE0
:1052B0009AF8000005281ABF411C8AF80010002047
:1052C000387085F800B07AE740F20044C4F2020476
:1052D000FCF704FBFEF7B6FBFEF702F8FDF7CAFF8A
:1052E000FEF7C4F8FEF7A6F8FEF754F8FEF772F8DA
:1052F000FEF730F8FEF7DAF810A500BF20464FF4AD
:105300008051FBF717FF0028F8D1C820FBF72EFECD
:1053100020464FF48051FBF70DFF0028EED100BF6F
:1053200020464FF48051FBF705FF0028F8D02846AF
:1053300002F004FFFFF706FFE0E700BF737461723D
:10534000740D000070470000F0B581B040F2180500
:10535000C2F2000595F8241019B10024204601B0CE
:10536000F0BDA97AF9B100F0FE0739402E7CCC1BC4
:10537000287D18BF4FF0FF34002F297408BF002884
:1053800014D0687C10BB01208DF80200D5E9001014
:105390000DF102030078C97B0122FDF755FFA8B982
:1053A0009DF8020011E04FF0FF34D7E700208DF8A0
:1053B0000300D5E900100DF103030078C97B012239
:1053C000FDF742FF10B99DF803006874002FC5D0A7
:1053D00000F03EFC00281CBF2E744FF0FF34BDE7E8
:1053E0002DE9F0412DED0E8B8CB004460DF11E0021
:1053F00090460D460DF11D0700900DF1260008A9FD
:1054000003AA0BAB0197FFF7A1F808B10120A0E0B8
:10541000BDF81E00C00501D402209AE09DED030AEC
:105420009DED041A9FED504A9DED052AB8EEC00A85
:105430009DED063A20EE049AB8EEC10A20EE04CAA9
:10544000B8EEC20A20EE04AAB8EEC30A20EE04BAEF
:10545000B8EE000A2CEE00DA39EE098A28EE0A0AC4
:105460002DEE0B1A31EE000A10EE100AFBF7DAF8F7
:1054700041EC100B01F00CFD51EC100B9FED380BC3
:1054800056EC107B3A463346FAF7DAFFFBF7DDF8C5
:105490003AEE0AEA28EE0C0A2EEE0B1A31EE000A5A
:1054A000206010EE100AFBF7BDF82AEE0E0A2DEE72
:1054B0000C1A31EE400AB7EE001A30EE010A41EC48
:1054C000180B10EE100AFBF7ADF841EC110BB0EE23
:1054D000480AF0EE680A01F0F7FF51EC100B3A466B
:1054E0003346FAF7ADFFFBF7B0F829EE0B0A2CEEC6
:1054F0000A1A31EE000A30EE000A286010EE100A97
:10550000FBF790F82CEE0C0A29EE091A31EE000A8E
:105510002AEE0A1A30EE410A2BEE0B1A30EE410A3F
:1055200041EC180B10EE100AFBF77CF841EC110B64
:10553000B0EE480AF0EE680A01F0C6FF51EC100B1D
:105540003A463346FAF77CFFFBF77FF8C8F80000CD
:1055500000200CB0BDEC0E8BBDE8F08100BF00BF99
:105560006666666666A64C400000803070B582B004
:1055700000F0ACF810B10A2002B070BD782001F044
:1055800045F8000602D0012002B070BD40F21805B7
:10559000C2F2000595F8240008B1002421E0A87AA1
:1055A000F0B1697C00F078002E7CB0F1780418BF6F
:1055B0004FF0FF34287479B901208DF80700D5E940
:1055C00000100DF107030078C97B0122FDF73CFEB6
:1055D00010B99DF80700687400F03AFB08B12E740A
:1055E000FF24200602D0022002B070BD322000F05D
:1055F0009FFF000602D0032002B070BDFEF798FFA7
:10560000000602D0042002B070BD40F20C00C2F2CD
:105610000000FFF73DFDFFF789F9000602D00520E5
:1056200002B070BD40F27310FEF72AFE000602D0F1
:10563000062002B070BD3220FFF7DEF8000602D06F
:10564000072002B070BD01F08FF8012000F0C8FE05
:10565000C0B2002818BF092002B070BD40F2180186
:10566000C2F200014A7A032A84BF4FF0FF3070472C
:1056700040F20243D200C1F2080323FA02F20270A0
:10568000C97C002904BF00207047017849000170DF
:105690000020704740F21801C2F2000191F9092080
:1056A000032A84BF4FF0FF30704748F2EE23C0F664
:1056B0000003C97C33F812200029028004BF0020B7
:1056C00070470188490801800020704710B582B0FA
:1056D00040F218048020C2F200048DF80100D4E9E1
:1056E00000100DF101030078897C0122FDF7ACFD6B
:1056F00010B14FF0FF34A6E06420FBF737FC002028
:105700008DF80100D4E900100DF101030078897CC7
:105710000122FDF799FD10B14FF0FF3493E0D4E979
:1057200000100DF101030078897D0622FDF75CFD74
:1057300010B14FF0FF3486E09DF806109DF802008E
:105740009DF80420890062F3410100F00100084443
:1057500010F0070003D0022822D1002021E0D4E974
:1057600000100DF101030078C9780122FDF73CFD1E
:1057700010B14FF0FF3466E09DF8010000F00F001B
:1057800004280AD00028E8D148F61870C0F60000B6
:1057900002F0D4FC4FF0FF3455E02CA002F0CEFC18
:1057A0000120E0744FF6FF70E081FF202074A074A8
:1057B0004FF0FF30A0600020C4E90500E0612084C4
:1057C000C4F8230084F8270018208DF80700D4E9D6
:1057D0000010012200788979227384F822200DF1CB
:1057E00007030122FDF730FD10B14FF0FF342AE02E
:1057F0009DF80700C0082072022000F03FFD10B1A4
:105800004FF0FF341FE02A2000F05AFE10B14FF095
:10581000FF3418E0322000F08BFE10B14FF0FF345F
:1058200011E00020FFF790FD10B14FF0FF340AE0C7
:10583000002000F05FFD10B14FF0FF3403E00020C6
:10584000002400F0E3FE204602B010BD48616C6603
:105850002073656E736974697669747920706172FA
:105860007420666F756E642E000000002DE9F04F05
:1058700087B0074600294FF0FF3000F09C8040F2CF
:105880001804C2F200040E4694F82510002940F0D6
:1058900092809246002F019374D000200DF10A0BE4
:1058A0004FF00008A7EB0009A17AB9F1100FA8BFCB
:1058B0004FF0100906EB0005B1B160681FFA89F1DD
:1058C000428951FA88F1914298FA88F14FEA1141E0
:1058D000ADF81A1008D821680078097E02220DF16F
:1058E0001A03FDF7B1FC68B34FF0FF30002857D121
:1058F000A07AB0B160681FFA89F1428951FA88F143
:10590000914298FA88F14FEA1141ADF81A1008D87F
:1059100021680078097E02220DF11A03FDF794FC3C
:1059200000B34FF0FF30D8BB1FFA89F22846594622
:10593000FAF7D2FC002841D1C8441FFA88F0B842D7
:10594000B0D31FE0D4E900105FFA89F20078497DF6
:105950002B46FDF779FC002818BF4FF0FF300028D8
:10596000C6D01DE0D4E900105FFA89F20078497DC5
:105970005B46FDF739FC002818BF4FF0FF300028C8
:10598000D2D00DE09AFA9AF0ADF81A00D4E90010DE
:105990000DF11A030078897E0222FDF755FC20B133
:1059A0004FF0FF3007B0BDE8F08F012084F82500EC
:1059B0000198E084002007B0BDE8F08F6FF001008F
:1059C00007B0BDE8F08F000070B582B0282802D97A
:1059D0004FF0FF34E5E040F218050446C2F200053E
:1059E000002842D095F8230001281DD0A87C95F806
:1059F00022103222002808BF30228DF8032029B15E
:105A00009DF8030040F080008DF80300D5E90010F8
:105A10000DF103030078097D01220126FDF714FC36
:105A2000002808BF85F823602020012C8DF8000095
:105A30004CD1A87A002100288DF8011000F0968042
:105A4000E87A062106288DF8041000F08F80D5E949
:105A5000001001AB007889780122FDF7F5FB0028E2
:105A600040F084809DF804007FE095F82300E8B1C1
:105A7000A87C95F82210002818BF012040008DF85E
:105A8000020029B19DF8020040F080008DF802006C
:105A9000D5E900100DF102030078097D0122FDF720
:105AA000D3FB002804BF002085F823004FF4E060FA
:105AB000ADF80000D5E900106B460078897C022221
:105AC000FDF7C2FBB8B34FF0FF346AE0052C18D8DD
:105AD000A87A012100288DF8011047D0E87A062124
