:020000040800F2
:1000000000080020A9010008652C00080924000848
:10001000612C00086D090008313400080000000060
:10002000000000000000000000000000B52C0008E7
:10003000550B000800000000B12C00084D2D0008F1
:10004000C3010008C3010008C3010008C301000880
:10005000C3010008C3010008C3010008C301000870
:10006000C3010008C3010008C3010008C301000860
:10007000C3010008C3010008C3010008C301000850
:10008000790A0008890A0008C3010008000000007E
:10009000000000000000000000000000C301000894
:1000A000092E0008C3010008C3010008C3010008AD
:1000B000C3010008C3010008C3010008C301000810
:1000C000C3010008C3010008C3010008C301000800
:1000D000C3010008C3010008C301000800000000BC
:1000E000C3010008C3010008C301000800000000AC
:1000F000000000000000000000000000C301000834
:1001000000000000C3010008C3010008C30100088B
:1001100000000000000000000000000000000000DF
:10012000C3010008C3010008C3010008C30100089F
:10013000C3010008000000000000000000000000F3
:10014000000000000000000000000000C3010008E3
:10015000C3010008C3010008C3010008C30100086F
:10016000C3010008C30100080000000000000000F7
:10017000000000000000000000000000000000007F
:1001800000000000C30100080000000000000000A3
:10019000C3010008DFF80CD000F084FB00480047E2
:1001A000ED46000800080020064880470648004742
:1001B000FEE7FEE7FEE7FEE7FEE7FEE7FEE7FEE717
:1001C000FEE7FEE7F52D0008950100082DE9F05F38
:1001D0000546002092469B468846064681464024B6
:1001E0001BE0284641464746224600F05DFA53464A
:1001F0005A46C01A914110D311461846224600F0C3
:1002000044FA2D1A67EB01084F46224601200021CF
:1002100000F03BFA17EB00094E41201EA4F1010447
:10022000DFDC484631462A464346BDE8F09F2DE9CB
:10023000F0410024061B254671F1000605DA012471
:100240000027D0EB070067EB0101161E73F10006D3
:1002500005DA0027D2EB0702012567EB0303FFF75E
:10026000B5FF86460E4617469C46AC4204D0002594
:10027000D0EB050E65EB010624B10020D2EB0007A0
:1002800060EB030C704631463A466346BDE8F081A8
:10029000D2B201E000F8012B491EFBD270470022C8
:1002A000F6E710B513460A4604461946FFF7F0FF75
:1002B000204610BD30B504460020034600E05B1C1C
:1002C000934203D2E05CCD5C401BF8D030BD2DE9F9
:1002D000FE4F804681EA0300C00F0C46009021F0DB
:1002E000004123F00045B8EB0200A94105D2404689
:1002F000214690461C460B46024623F00040104320
:1003000047D0270DC7F30A00C3F30A510290401AE1
:10031000019040286BDAC3F3130040F4801B00986F
:10032000924620B10023D2EB030A63EB0B0B01983A
:100330005946C0F14002504600F0A7F906460D4666
:1003400050465946019A00F0BFF910EB0800614190
:10035000002487EA115284EAE7731A4340D0009AD6
:1003600062B3019A012A4FEA075215DC001B61EBC8
:1003700002014FF0004202EA0752CDE90042001CA0
:1003800041F5801132462B4600F0F6F903B0BDE886
:10039000F08F40462146F9E7001B61EB0201001C8B
:1003A00041F5801300185B412018A2F5001747EBB8
:1003B000030140EAD570B6196D4111E06D084FEAAE
:1003C000360645EAC0754FEA0752001B61EB020191
:1003D000001C41F5801149084FEA300000195141D5
:1003E00032462B4603B0BDE8F04F00F0B6B9009896
:1003F000012240000023D0EB020263EBE07300987F
:1004000021464FEAE074B8EB000061EB0401E9E734
:1004100083F000435BE781F0004158E72DE9FE4F90
:1004200081EA030404F0004421F0004100944FF0FD
:10043000000B23F0004350EA01045ED052EA0304AB
:100440005BD0C3F30A54C1F30A552C44A4F2F3342D
:100450000194A0FB0254C1F3130141F48011C3F3D2
:10046000130343F4801301FB024400FB034E840A90
:10047000970A44EA815447EA8357A4FB0768029528
:100480008D0A05FB07854FEA932C04FB0C542705C6
:10049000029D4FEA065847EA1637B5EB08056EEBA2
:1004A000070C870E920E47EA811742EA8312A7FBD8
:1004B0000201B6EB0B0164EB00042B0D43EA0C3395
:1004C0005E1844EB1C50DA465146E7FB0201C5F3C7
:1004D00013044FEA0B3343EA14534FEA0432019CEE
:1004E00043EA0603A4F10C040294009CCDE900B495
:1004F00000F042F903B0BDE8F08F00200146F9E7B3
:100500002DE9F04D81EA030404F0004B21F0004591
:1005100014464FF0000A23F0004150EA050220D0B3
:1005200054EA01021DD0C5F30A570246C5F313036E
:10053000C1F31300C1F30A5640F4801543F480134D
:10054000A7EB0608101BD64608F2FD3873EB050032
:1005500002D308F1010801E092185B41B8F1000FE5
:1005600003DA00200146BDE8F08D00204FF4801131
:10057000064684460EE0171B73EB050705D3121BD6
:1005800063EB050306434CEA010C49084FEA3000CF
:1005900092185B4150EA0107EDD152EA030012D0F4
:1005A00082EA040083EA0501084305D0101BAB4131
:1005B00006D20122002306E000224FF0004302E0B1
:1005C0006FF0010253101AEB06004CEB085110EBD0
:1005D0000A0041EB0B01BDE8F04D00F0BEB80EB5CE
:1005E000C10F80EAE0700844CA07002140F233439B
:1005F0008DE80E000A460B4600F0BEF803B000BDC1
:1006000000F0004230F000400AD0C10D01F56071E9
:10061000C0F3160042EA0151C20840071143704777
:1006200000200146704701F0004330B421F0004142
:1006300050EA010206D00A0DA2F56072C1F313015F
:10064000002A02DC30BC00207047440F44EAC10499
:10065000C100E01830BC00EBC25000F047B830B524
:100660000B46014600202022012409E021FA02F570
:100670009D4205D303FA02F5491B04FA02F528440A
:10068000151EA2F10102F1DC30BD202A04DB203A64
:1006900000FA02F1002070479140C2F1200320FAD5
:1006A00003F3194390407047202A04DB203A21FAD3
:1006B00002F00021704721FA02F3D040C2F120027B
:1006C0009140084319467047202A06DBCB17203A91
:1006D00041FA02F043EAE07306E041FA02F3D04047
:1006E000C2F1200291400843194670470029A8BF73
:1006F0007047401C490008BF20F00100704710B44B
:10070000B0FA80FC00FA0CF050EA010404BF10BCFF
:10071000704749B1CCF1200421FA04F411FA0CF12C
:1007200018BF012121430843A3EB0C01CB1D4FEA65
:1007300000614FEA102042BF002010BC704700EB60
:10074000C35010440029A4BF10BC7047401C49008E
:1007500008BF20F0010010BC704710B5141E73F1E3
:10076000000408DA401C41F1000192185B411A4371
:1007700001D120F0010010BD2DE9F04D92469B46BD
:1007800011B1B1FA81F202E0B0FA80F22032904663
:10079000FFF77BFF04460F4640EA0A0041EA0B01DF
:1007A00053465A46084313D0114653EA010019D064
:1007B000C8F140025046FFF777FF05460E46504607
:1007C00059464246FFF761FF084305D0012004E087
:1007D00020463946BDE8F08D0020054346EAE07624
:1007E0002C4337430A986305E40AA0EB0800002273
:1007F000FD0A44EA47540A3002D500200146E9E7E1
:10080000010510196941DDE9084500196941BDE894
:10081000F04DA2E7C1F30A52C1F3130140F2FF33D6
:1008200041F480119A4202DA00200146704740F2FA
:1008300033439A42A2F2334202DC5242FFF734BF02
:10084000FFF723BF30B5041E71F1000404DB4FF045
:100850000044404264EB0101141E73F1000405DB07
:100860001C464FF00043524263EB04038B4208BF27
:10087000824230BD30B5041E71F1000404DB4FF03C
:100880000044404264EB0101141E73F1000405DBD7
:100890001C464FF00043524263EB0403994208BFE9
:1008A000904230BD064C074D06E0E06840F0010381
:1008B00094E8070098471034AC42F6D3FFF76EFC7B
:1008C000447B0008647B00082DE9F04D00231A46A4
:1008D0001B1A8A4103DB00200146BDE8F08DC1F3FD
:1008E0000A52C1F3130141F480154FF0000BD107F8
:1008F00002D100186D41521E0027044640F2FF113C
:10090000384601EB620A3E468046024600204FF41C
:100910008011FFF7C9FEC2197141BB1846EB0100F7
:10092000B4EB030C75EB000C04D3E41A65EB000583
:1009300017460E46241908F101006D4180463428FF
:10094000E3DDF91946EB0600091BA84103D24FF07D
:10095000FF32134601E0002213461BEB070046EB73
:100960000A51BDE8F04DFFF7F8BE0000FEE70000B9
:100970002DE9F04182B040F25405C2F20005297819
:100980000446012929D140F2520640F25005C2F234
:100990000006C2F200053378297801208B423AD153
:1009A00040F25308C2F2000898F80020012A32D120
:1009B00040F25100C2F2000000780131621C0133A4
:1009C000471C1DA0009705F01FF80020347088F820
:1009D00000002C7002B0BDE8F08140F25006C2F277
:1009E00000063078621C411C0CA005F00DF840F2A6
:1009F0005301C2F2000100200870317840F2510228
:100A0000C2F20002117040F25201C2F200010C70F9
:100A100001213470297002B0BDE8F081696E207444
:100A200061736B2025642063616C6C656420746164
:100A3000736B2025640D0A00696E207461736B204E
:100A400025642063616C6C6564207461736B202580
:100A5000642C637461736B206973207461736B2001
:100A600025642C6C7461736B203D207461736B2062
:100A700025640D0A0000000080B540F29010C2F21B
:100A8000000000F025F980BD80B540F2F010C2F200
:100A9000000000F01DF980BDD0F800C06FF00F021B
:100AA0004AF6AB2352FA8CF2CAF6AA230146A2FBFD
:100AB0000330000905A31B5C40F2FF302CEA000064
:100AC0005F2A88BF0430C1E916037047000610167C
:100AD000000610168269816AB2F5005F06D06AB915
:100AE000022912D0012914D0D1B90EE0032917D858
:100AF000DFE801F0020B020F0120704703293CBF21
:100B0000012070471CBF00207047C06AC0F300601E
:100B10007047C06AA0F1C070B0FA80F04009704719
:100B20000020704780B5D0F800C0D0F808E0DCF8AD
:100B30000000BEF1400F20F48020CCF800000846F1
:100B4000CCF8043004BF10460A46CCF80800CCF8B4
:100B50000C2080BD7047000040F28C010020C2F2E2
:100B6000000100228B1888540C32F02A58609860DB
:100B7000F8D170472DE9F04140F25402C2F2000270
:100B800012780C469AB140F28C05C2F20005291D7C
:100B9000002604E00136142E01F10C0126D011F8D4
:100BA000042CA242F6D10A688242F3D11FE040F23F
:100BB0008C08C2F2000808F1040600270121324621
:100BC0000AE000BF132F07F101074FF0000138BF03
:100BD00001210C32142F14D012F8043CA342F1D19D
:100BE00013688342EED1C90720D10DE0002600F042
:100BF000B1FA06EB460105EB810188600020BDE8F3
:100C0000F0810027C90711D1002500BF16F8041C88
:100C100029B10135142D06F10C06F7D106E006F8CE
:100C2000044C306000F096FA70602F4600F092FAA3
:100C3000F9B2490051FA87F108EB810555F8081F10
:100C400055F8042C401A90423CBF0120BDE8F081C9
:100C500000F080FA2968421A04A0214604F0D4FE6C
:100C600000F078FA28600020BDE8F0817461736BB1
:100C70002025782064656C6179202564206D730DD2
:100C80000A000000EFF3108072B600BFFEE700001C
:100C900080B500F05FFA40F2C831C2F20001096885
:100CA000401A80BD80B540F26801C2F2000191E8AF
:100CB0000C50096980E80C50016180BD40F27C0154
:100CC000C2F200018A8809688280016070470000D2
:100CD000F0B581B004460020009040F20800C2F256
:100CE00000000268D4E9166048F2B513376808219D
:100CF000C1F64E3381403942A2FB03250CD0226855
:100D000013685B0708D5136823F004031360B16010
:100D1000616D41F00101616501218140394208D0D6
:100D200022685269120604D5B160616D41F002017A
:100D3000616504218140394208D022681268920717
:100D400004D5B160616D41F00401616510218140FD
:100D5000394215D020680268120711D5B1600268C7
:100D60000168520306D4C90506D4016821F00801C0
:100D7000016001E0080342D4216C09B12046884794
:100D8000E16D202000FA01F23A4244D02068036865
:100D9000DB0640D5B26094F835300268052B1ED1D1
:100DA00022F016020260426922F080024261226C47
:100DB0000AB9A26C1AB1026822F0080202603F2050
:100DC0008840B060012084F83500216D00200029A2
:100DD00084F8340040D02046884701B0F0BD016857
:100DE000520310D4C90512D4016821F0100101602A
:100DF000012084F83500002084F8340007E0A16C5D
:100E00000029BBD1BCE7080301D4616C00E0E16BB1
:100E100009B120468847606DF0B1606DC00717D0FA
:100E2000052084F835002068A90A026822F0010232
:100E3000026000BF009A01328A42009202D8026822
:100E4000D207F7D1012084F83500002084F834005F
:100E5000E16C09B12046884701B0F0BD2DE9F041B1
:100E6000044600F077F9C4B10546022084F8350045
:100E70000020216884F83400086820F00100086030
:100E800026683068C0070BD000F064F9401B0528C5
:100E9000F6D903212022032042E00120BDE8F081A1
:100EA000306848F23F01CFF21001251D00EA010C25
:100EB0002ECDD4E9050E41EA0C0111431943294313
:100EC000D4E90778084340EA0E01606A39430428F0
:100ED00041EA080103D1D4E90B23114319433160DE
:100EE0007169042821F0070141EA00050CD1D4E919
:100EF0000A1045EA010538B12046FFF7EBFD18B1AD
:100F00000121402201200BE020467561FFF7C4FD5E
:100F1000E16D3F2202FA01F18160002201210020EF
:100F2000626584F83510BDE8F0810000B0B5044674
:100F300090F83400012828D0012084F83400A56DF1
:100F400094F8350001281DD1022084F835000020D6
:100F500060652046FFF7E6FDE26D3F23206803FA57
:100F600002F2216CAA60026842F01602026019B116
:100F7000016841F008010160016841F00101016070
:100F80000020B0BD002084F834000220B0BD000075
:100F9000B0B5044600F0DEF8054640F24400C2F267
:100FA00000000078611C18BF044400BF00F0D2F8B4
:100FB000401BA042FAD3B0BD2DE9F04F83B000F141
:100FC0003E4202F1FF724FEAB22241F20007019263
:100FD000C4F2020707224FF0010E00254FF0000A6D
:100FE0004FF00008B84208BF042200920AE000BF98
:100FF00008F101080AF1040AB8F1100F05F1020521
:1010000000F0A4800C680EFA08FB14EA0B09EFD07C
:101010004C6804F0030CACF1010EBEF1010F11D8C5
:101020000322876802FA05F6CA68B743AA403A4322
:1010300082604268C4F3001722EA0B0207FA08F73D
:101040003A434260BCF1030F1CD0C26803238E6890
:1010500003FA05F7BA4306FA05F73A43BCF1020F63
:10106000C2600FD16FF0030202EA580202440AF094
:101070001C060F23176A03FA06F40B69A743B34053
:101080003B431362026803234F68AB409A4307F067
:101090000303AB401A4317F4403F4FF0010E0260C8
:1010A000A6D0002243F644030292C4F202031A6857
:1010B00043F6004442F480421A601A68C4F2010404
:1010C00002F480420292029A28F003024FF6084B83
:1010D0002244CFF6FF7B52F80B300AF00C070F26A4
:1010E000BE4023EA060C019B009E042B38BF1E461F
:1010F00006FA07F747EA0C0342F80B30A2684B6880
:1011000042EA090743F60C4CDE0258BF22EA0907FF
:10111000A760C4F2010CDCF800209E0242EA090735
:1011200058BF22EA0907CCF8007062689E0342EAC1
:10113000090758BF22EA090767602268DB0342EA11
:10114000090358BF22EA0903236051E703B0BDE851
:10115000F08F000040F2F830C2F2000000687047E3
:10116000F0B581B0B0B3044690F83D0028B9002036
:1011700084F83C00204600F05DFA242084F83D000D
:101180002068016821F001010160016841F400411B
:101190000160016821F40041016000F005FC48F2A3
:1011A0008041C0F21E0140F60012656888424FF08F
:1011B0000001C0F23D0248F2A16C4FF0000338BFBD
:1011C00001219042C0F2010C38BF0123654538BFB0
:1011D0000B4613B1012001B0F0BD4DF68361C4F29E
:1011E0001B31A0FB011221684FEA924E4B684FF46D
:1011F000967623F03F0343EA92434B6044F6D35381
:101200000F6A0EFB06F6C1F26203A6FB033627F057
:101210003F03B709654538BF970C7A1C1A430A6229
:10122000CA6948F2A0674CF6FF73C0F20107BD42DD
:1012300022EA030C0AD801386A00B0FBF2F0013050
:101240006FF31F30042898BF04202BE0A368A0F19F
:10125000010E9BB119206843BEFBF0F0042201305F
:1012600062F31F30000512D09BB119206843BEFB0A
:10127000F0F00422013062F31F3011E005EB45006D
:10128000BEFBF0F001306FF31F300005ECD1012000
:1012900008E005EB4500BEFBF0F001306FF31F30B6
:1012A00040F4004040EA0C00C8610868D4E9072314
:1012B00020F0C000104318430860886848F2FF32ED
:1012C00004F10C0790438CCF18431043A669886043
:1012D000C86820F0FF0038433043C860086840F019
:1012E0000100086000202021206484F83D10206364
:1012F00084F83E0001B0F0BD2DE9F04383B01F46F5
:1013000016460D460446FFF725FF94F83D102029A8
:101310000FD102218146C0F210012046012219237B
:10132000CDF8009001F0A0F918B994F83C0001281C
:1013300003D1022003B0BDE8F0830121226884F8C4
:101340003C101368DDE90B080A99DB0703D1136829
:1013500043F001031360136823F400631360222237
:1013600084F83D20402284F83E20002222646162FD
:101370006085608D294620850020CFF6FF70E062F1
:10138000204632463B46CDF80080CDF8049001F06F
:1013900055F818B1012003B0BDE8F083208D022874
:1013A00006D0012810D000BB00200290206812E077
:1013B0002068016821F480610160016841F40061E6
:1013C00001600021029113E02068016821F480612E
:1013D00001600021029141690291816902910299A3
:1013E000016841F40071016007E00020029020686C
:1013F00041690291806902900298208D002877D07F
:101400000427C0F2010716E0204641464A4601F093
:10141000ABF90028BED12068616A00690870606A73
:10142000218D01306062481E2085608D0138608505
:10143000208D00285CD003283ED802281CD001282B
:10144000E2D02046394600224346CDF8009001F014
:101450000BF900289ED12068616A026822F480623C
:10146000026000690870606A218D01306062481E68
:101470002085608D0138608520463946002243462C
:10148000CDF8009001F0F0F800287FF483AF2068D9
:10149000616A026842F40072026000690870606A62
:1014A0002268411C6162218D01392185618D0139DC
:1014B000618511694170B2E7204641464A4601F014
:1014C00053F900287FF466AF2068616A00690870EC
:1014D000606A228D0130013A606222852168628D46
:1014E000013A62854A695207A2D50969017096E7F7
:1014F000202084F83D00002084F83E0084F83C0061
:1015000003B0BDE8F08300002DE9F04383B09946B5
:1015100016460F460446FFF71DFE94F83D1020299D
:101520000ED102210546C0F21001204601221923E6
:10153000009501F099F818B994F83C00012803D1FE
:10154000022003B0BDE8F0830121226884F83C103A
:101550001368DDE90B080A99DB0703D1136843F030
:1015600001031360136823F400631360212284F8DD
:101570003D20402284F83E20002222646162608582
:10158000608D394620850020CFF6FF70E06220464E
:1015900032464B46CDF80080019500F0D5FF30B3C0
:1015A000012003B0BDE8F083204641462A4601F001
:1015B0000BF928BB606A2168034613F8012B0A6106
:1015C000228D6362571E2785638D3F04A3F10103BB
:1015D00063854B6918BF13F0040308D043780230C9
:1015E0000B616062901E2085608D01386085208DC2
:1015F0000028D9D1204641462A4601F005F840B1DD
:10160000206C0428CCD12068016841F4007101608D
:10161000C6E72068016841F400710160202084F869
:101620003D00002084F83E0084F83C0003B0BDE893
:10163000F08300002DE9F04387B0006845F6000113
:10164000C4F2000100268842CDE90566CDE90366B3
:10165000029631D045F20041C4F20001884264D1C3
:10166000002443F630050194C4F20205286802A95B
:1016700040F002002860286800F002000190019804
:10168000C02002901220CDE903040320059004201D
:10169000069040F20040C4F20200FFF78DFC019476
:1016A000286940F400102861286900F400100190B6
:1016B000019807B0BDE8F08343F630070196C4F205
:1016C0000207386840F2004440F002003860386891
:1016D000C4F2020400F00200019001984FF480600F
:1016E0000290042002AD4FF012084FF0030906905B
:1016F00020462946CDE90386CDF81490FFF75CFC1F
:101700000820CDE902080920069020462946CDE9A7
:101710000469FFF751FC0196386940F48000386194
:10172000386900F480000190019807B0BDE8F083AB
:1017300040F2440040F2F831C2F20000C2F200016F
:1017400000780A68104408607047000080B543F6CE
:101750000040C4F20200016841F4007101600168B8
:1017600041F480610160016841F4807101600320EF
:1017700000F060F80F2000F005F800F02BF80020D2
:1017800080BD0000B0B540F24402C2F2000240F257
:1017900008011278C2F200014FF47A730968B3FBB2
:1017A000F2F20446B1FBF2F1084600F0F9FA0F2C10
:1017B0004FF001050CD858B94FF0FF3021460022F8
:1017C000002500F027F840F24800C2F20000046053
:1017D0002846B0BD82B0002043F640010190C4F21B
:1017E00002014A6842F480424A604A6802F4804238
:1017F0000192019A0090086840F0805008600868E3
:1018000000F080500090009802B0704780B501F061
:1018100059FE80BD70B514460D46064601F062FEC5
:101820002946224601F020FA0146304601F062FEC8
:1018300070BD000080B501F06FFE80BD2DE9F04164
:10184000002800F08B8043F60808C4F20208044622
:10185000D8F8F8030D4600F00700884207D288F850
:10186000F853D8F8F80300F00700A84276D12068B2
:10187000810717D5410705D5D8F8001041F4E0518C
:10188000C8F80010010705D5D8F8001041F46041F0
:10189000C8F80010D8F80010A26821F0F001114338
:1018A000C8F80010C0073FD1D8F8F80300F00700CF
:1018B000A84207D988F8F853D8F8F80300F00700D1
:1018C000A8424BD12068410707D5D8F80010E2683C
:1018D00021F4E0511143C8F80010000708D5D8F8EA
:1018E0000000216920F4604040EAC100C8F800000F
:1018F00000F07EF8D8F8001046F68662C1F30311B6
:10190000C0F60002515C40F2080220FA01F140F2F8
:101910004800C2F200000068C2F200021160FFF746
:1019200031FF0020BDE8F0816068811E022907D2E6
:1019300058F8081C89015CBF0120BDE8F08110E067
:10194000012807D158F8081C89035CBF0120BDE8B5
:10195000F08106E058F8081C890702D40120BDE890
:10196000F081D8F8001021F003010843C8F8000006
:10197000FFF7F0FB064641F2883700BFD8F80000B9
:10198000616800F00C00B0EB810F8DD0FFF7E2FB37
:10199000801BB842F2D90320BDE8F08140F2080074
:1019A000C2F200000068704780B5FFF7F7FF43F60A
:1019B0000801C4F20201096846F69662C1F3822169
:1019C000C0F60002515CC84080BD000080B5FFF742
:1019D000E5FF43F60801C4F20201096846F6966283
:1019E000C1F34231C0F60002515CC84080BD000026
:1019F00010B543F60404C4F20204606800F00C0061
:101A000008280AD0042819BF42F20040C0F2F400AE
:101A100047F64000C0F27D1010BD206821682368A1
:101A2000490247F64001C0F27D1100F03F02C3F3C6
:101A300088105CBF42F20041C0F2F401A1FB00013A
:101A40000023FEF7C3FB21680222C1F3014102EB30
:101A50004101B0FBF1F010BD2DE9F04182B000284A
:101A600000F0A2800446007843F60006C007C4F2E6
:101A7000020643D0B06800F00C00042805D130689D
:101A800080033BD56068C8BB8EE0B06800F00C00F6
:101A9000082802D170684002F1D46568B5F5A02F1E
:101AA0000AD0B5F5803F0BD0306820F4803030602C
:101AB000306820F4802006E0306840F480203060F8
:101AC000306840F480303060FFF744FB002D05465D
:101AD00011D000BF3068800310D4FFF73BFB401BE0
:101AE0006428F7D922E100BFFFF734FB401B6428CC
:101AF0004FF0030055D830688003F5D42078800774
:101B00001AD5B06810F00C0F09D0B06800F00C00C6
:101B1000082840F08A807068400200F186803068B2
:101B2000800702D5E06801283ED13068216920F0A5
:101B3000F80040EAC10030602078000738D42078EF
:101B400040074CD4A5695DB3B06800F00C000828CC
:101B500040F09E80012D27D07068E16900F480027A
:101B60008A4221D1216A00F03F028A421CD147F605
:101B7000C071626A0140B1EB821F15D1A26A0023D5
:101B8000CFF6FF7303EBC23200F440316FF30F0264
:101B9000914209D1E16A00F07060B0EB016F03D1AE
:101BA000002002B0BDE8F081012002B0BDE8F08164
:101BB0006069002840F20000C4F2472057D001219C
:101BC000C0F8801EFFF7C6FA054600BF706F800799
:101BD000B5D4FFF7BFFA401B0228F7D9A6E0306C56
:101BE00010F080580AD100200190306C40F08050F5
:101BF0003064306C00F080500190019847F200078B
:101C0000C4F200073868C00524D4386840F48070F6
:101C10003860FFF79FFA05463868C0051AD4FFF709
:101C200099FA401B0228F7D980E0E068002851D0DB
:101C30000020C4F2472001210160FFF78BFA05461E
:101C4000306880073FF571AFFFF784FA401B022828
:101C5000F6D96BE0A568052D50D0012D52D0306F1C
:101C600020F001003067306F20F004004DE00021CB
:101C7000C0F8801EFFF76EFA054600BF706F800740
:101C80007FF55DAFFFF766FA401B0228F6D94DE0FD
:101C90000027C4F2472700203866FFF75BFA022DC1
:101CA00005460BD13068800158D5FFF753FA401B29
:101CB00002284FF00300F5D973E700BF30688001B8
:101CC0007FF56EAFFFF746FA401B02284FF0030086
:101CD000F4D966E70020C4F2472000210160FFF735
:101CE00039FA0546306880077FF526AFFFF732FAEC
:101CF000401B02284FF00300F4D952E7306F40F048
:101D000004003067306F40F001003067FFF722FABF
:101D1000002D054641F2883714D000BF306F800790
:101D200013D4FFF717FA401BB842F7D9032002B0CB
:101D3000BDE8F081FFF70EFA401BB8424FF00300F8
:101D40003FF62FAF306F8007F4D4B8F1000F7FF467
:101D5000F9AE306C20F080503064F3E604F11C05DD
:101D60002FCD08430021CFF6FF7140EA821001EB2E
:101D7000C3316FF30F0140EA056008437060012032
:101D80003866FFF7E7F90446306880013FF508AF91
:101D9000FFF7E0F9001B02284FF00300F4D900E739
:101DA00080B500F0BBFF80BD7047000070470000A9
:101DB000002804BF0120704710B5044690F83D008C
:101DC00028B9002084F83C00204600F01FF80220CB
:101DD00084F83D002068211D01F01EF8012084F8E0
:101DE000460084F83E0084F83F0084F8400084F800
:101DF000410084F8420084F8430084F8440084F8E9
:101E0000450084F83D00002010BD000080B582B080
:101E1000006844F20001C4F20101884201D002B01E
:101E200080BD0020019043F64400C4F20200016826
:101E3000002241F4803101600068002100F480300C
:101E4000019001981820FFF7E5FC1820FFF7DEFC51
:101E500002B080BD10B5044690F83C0001284FF058
:101E6000020008BF10BD012284F83C2084F83D0028
:101E700020684FF6777382689A4382600A684F2A17
:101E80000FDC1F2A22DD202A23D0302A21D0402A2D
:101E90004DD14B68CA68194601F040F820684021CE
:101EA0003BE06F2A17DDB2F5005F20D0B2F5805F0E
:101EB0002AD0702A3BD1D1E9012CCB68614601F0D0
:101EC00019F82068816841F077011AE00AB1102AF8
:101ED0002DD1114621E0502A18D0602A27D14B6815
:101EE000CA68194601F02CF82068602115E0D1E994
:101EF000012CCB68614600F0FDFF2068816841F449
:101F00008041816000200BE0002009E04B68CA6836
:101F1000194601F003F82068502100F0F7FF002077
:101F2000012184F83D10002184F83C1010BD0120EF
:101F3000F6E700007047000010B50446006801692C
:101F4000890744BFC1685FEA817138D4206801699C
:101F5000490744BFC1685FEA41713CD42068016908
:101F6000090744BFC1685FEA017141D42068016973
:101F7000C90644BFC1685FEAC16145D420680169F0
:101F8000C9071CBFC1685FEAC1714AD120680169F5
:101F9000090644BFC1685FEA016149D4206801694C
:101FA000490644BFC1685FEA416148D420680169BD
:101FB000890644BFC1685FEA816147D410BD6FF0F4
:101FC00002010161012121778069800745D0204607
:101FD000FFF7B0FF47E06FF00401016102212177B4
:101FE000806910F4407F41D02046FFF7A3FF43E013
:101FF0006FF00801016104212177C06980073ED09C
:102000002046FFF797FF40E06FF0100101610821C3
:102010002177C06910F4407F3AD02046FFF78AFF4D
:102020003CE06FF001010161204600F03FF8ADE7B0
:102030006FF0800101612046FFF7B6FEAEE76FF05A
:1020400040010161204600F033F8AFE76FF0200156
:1020500001612046FFF7AAFE10BD204600F022F8DD
:10206000204600F021F8002020776FE7204600F09E
:1020700019F8204600F018F8002020776EE7204677
:1020800000F010F8204600F00FF8002020776DE7F0
:10209000204600F007F8204600F006F800202077E0
:1020A0006CE70000704700007047000070470000B8
:1020B000704700007047000070470000002804BF10
:1020C0000120704710B5044690F83D0028B9002063
:1020D00084F83C00204600F021F8242084F83D00DC
:1020E0002068C16821F40051C160204601F00AF85F
:1020F0002068016921F490410161416921F02A01C0
:102100004161C16841F40051C16000202021206478
:1021100084F83D1084F83E1010BD00002DE9F04316
:1021200087B00446006844F20041C4F20001002672
:102130008842CDE90566CDE90366029632D041F2C8
:102140000001C4F20101884240F09280002043F671
:1021500030010190C4F202014A6942F010024A6162
:102160004A6902F010020192019A01900A6842F055
:1021700001020A60096801F00101019101994FF41F
:10218000C06102910221CDE90310032005900720D0
:1021900006900020C4F2020002A9FEF70DFF07B06E
:1021A000BDE8F08343F630000196C4F202000169F5
:1021B00046F2880841F4003101610169C4F2020865
:1021C00001F40031019101990196016841F001018A
:1021D0000160006802A900F00100019001980C2044
:1021E00002900220CDE90306032005900720069007
:1021F0000020C4F20200FEF7DFFE40F29015C2F2AA
:1022000000054FF480704FF000674FF48069C5E916
:1022100006602846C5E90087C5E90266C5E9049657
:10222000C5E90866FEF71AFE002818BFFEF72AFD6A
:10223000A563AC6340F2F01508F11800C2F2000586
:102240004021C5E9000705F10800002280E80602E8
:102250004FF48030C5E908022846C5E90522EA6145
:10226000FEF7FCFD002818BFFEF70CFD6563AC63AC
:1022700007B0BDE8F083000010B590F83E30202B89
:102280000BD100294FF0010418BF002A01D12046CC
:1022900010BD90F83C30012B01D1022010BD01236C
:1022A000002480F83C30046300F09AFF204610BD03
:1022B00070470000704700002DE9F04381B00446EC
:1022C00090F83D0020280BD10E4600294FF0010068
:1022D00055D01746002A52D094F83C00012803D16B
:1022E000022001B0BDE8F083012084F83C004FF0EB
:1022F000000921201D46C4F8409084F83D00FEF7F7
:1023000029FFA784E784A1680746B1F5805F07D15C
:10231000206900281CBF30464E46B046064601E004
:102320004FF0000884F83C9007E000BF16F8010B5E
:1023300021684860E08C0138E084E08C80B1204660
:1023400080213A462B4600F099FF80B9002EEDD14E
:1023500038F8020B21686FF35F2048600026E9E738
:10236000204640213A462B4600F088FF18B1032052
:1023700001B0BDE8F083202084F83D00002001B0CA
:10238000BDE8F083B0B5044690F83D0020281CBF9E
:102390000220B0BD4FF0010089B3002A134608BFE8
:1023A000B0BD4FF0000C21202162A384E384C4F867
:1023B00040C084F83D00606B43F24D0E43F28D0542
:1023C0002268C0F6000EC0F60005C0E90FE542F62F
:1023D0006575C0F600050432C0E9135CFEF7A6FD82
:1023E00020686FF040010160206850E8050F216807
:1023F00040F0800041E80502002AF5D10020B0BD80
:102400007047000070470000FEE700000268516955
:1024100049054FF000010FD56FF48063536120220E
:10242000016380F83D2080F83E10026C42F0040207
:10243000026480F83C100121084670472DE9F047FE
:1024400082B0044600680E460168DDF828A041F419
:10245000806101600168DDF82C9041F480711D46B7
:102460001746016020464FF0011100225346CDF877
:10247000009000F0F9F850B120680068C00544BF32
:102480004FF400702064032002B0BDE8F08740F2F2
:1024900002082068C0F2010806F0FE060661204628
:1024A000414652464B4600F019F948BB00200190C6
:1024B00020684A464169019180695146019001981E
:1024C000204600F081F998B9012D08D02068390A1A
:1024D0000161204651464A4600F076F940B920682D
:1024E000F9B20161204651464A4600F06DF958B1F3
:1024F000206C042804D12068016841F40071016057
:10250000012002B0BDE8F087206800220168534630
:1025100041F48071016020464FF00111CDF8009028
:1025200000F0A2F80028A7D1206846F0010101615F
:102530002046414652464B4600F0D0F8002818BFCE
:10254000012002B0BDE8F0872DE9F04383B00446D6
:1025500000680D4601680A9F0B9E41F48071994600
:102560009046016020464FF0011100223B46009644
:1025700000F07AF850B120680068C00544BF4FF4FD
:1025800000702064032003B0BDE8F083206805F0EC
:10259000FE0101610221C0F2010120463A463346A4
:1025A00000F09CF818B1012003B0BDE8F0830020D2
:1025B0000290206832464169029180693946029052
:1025C0000298204600F000F940B1206C0428EAD1BE
:1025D0002068016841F400710160E4E7B9F1010F7E
:1025E0000AD020684FEA1821016120463946324658
:1025F00000F0EAF80028E8D120685FFA88F101616C
:10260000002003B0BDE8F083F0B581B00446006857
:102610004069400724D415460E464F1C04E000BF15
:102620002068406940071BD42046FFF7EFFEA0B9A1
:10263000002FF5D0FEF78EFD16B1401BB042EFD94A
:1026400000202021206384F83D1084F83E00216C96
:1026500041F02001216484F83C00012001B0F0BD6C
:10266000002001B0F0BD00002DE9F047DDF820802A
:102670001D469146824601F47F078EB25C1C00BF66
:10268000DAF80000B7F5803F14BF18301430006846
:102690003040801BB0FA80F0400948451BD1002C27
:1026A000EED0FEF757FD1DB1A0EB0800A842E7D918
:1026B00000202021CAF830008AF83D108AF83E0038
:1026C000DAF8401041F02001CAF840108AF83C00C6
:1026D0000120BDE8F0870020BDE8F0872DE9F0413A
:1026E00004460068984643698FB203EA0701B9427D
:1026F00002D10020BDE8F0814169490512D4164697
:10270000551C00BF35B1FEF725FD16B3A0EB080040
:10271000B0421ED8206841693940B942E9D04169C8
:102720004905EFD5016841F4007101606FF48061E3
:10273000416100202021206384F83D1084F83E0090
:10274000216C41F00401216484F83C000120BDE8C3
:10275000F08100202021206384F83D1084F83E00A1
:10276000216C41F02001EEE770B515460E46044697
:1027700020684169490613D44169C90612D4FEF79D
:10278000E9FC16B1401BB042F2D9002020212063A1
:1027900084F83D1084F83E00206C40F020000CE0EE
:1027A000002070BD6FF010014161002020212063E6
:1027B00084F83D1084F83E00206C2064002084F8EA
:1027C0003C00012070BD0000F0B581B004460068F7
:1027D0004069000624D415460E464F1C04E000BF95
:1027E0002068406900061BD42046FFF70FFEA0B901
:1027F000002FF5D0FEF7AEFC16B1401BB042EFD96A
:1028000000202021206384F83D1084F83E00216CD4
:1028100041F02001216484F83C00012001B0F0BDAA
:10282000002001B0F0BD000070B582B014460D4626
:1028300006460DF1020368203B21062200F094F8C1
:1028400008B102B070BDBDF80210BDF8042009BA8D
:10285000090C318011BABDF80620090C298011BA83
:10286000090C218002B070BD80B582B00DF1060365
:1028700068204121022200F077F8BDF80600C0BAB6
:10288000FDF7ADFE9FED0C0B53EC102BFDF738FE62
:102890009FED0B0B53EC102BFDF719FDFDF7C3FE5D
:1028A0009FED090A01EE100A21EE000ABDEEC00AF2
:1028B00010EE100A02B080BD00000000004075401C
:1028C000A4703D0AD74342400000C84280B56B2047
:1028D000802100F0A1F86420FEF75AFB6B20002154
:1028E00000F09AF8032000F05FF8002000F054F8A0
:1028F000322000F07BF83820002100F08DF86A20AB
:10290000002100F089F82320002100F085F837200D
:10291000802100F081F8752000F00EF86B20012175
:1029200000F07AF86C20002100F076F8322000F0F8
:102930005DF8002080BD000080B584B00246012013
:102940000DF10F01CDE9001040F2A4204FF0FF0C73
:10295000C2F20000D0210123CDF808C0FEF7CCFC64
:102960009DF80F0004B080BD80B584B08C4640F265
:10297000A4204FF0FF0ECDE90032C2F20000D121B9
:1029800062460123CDF808E0FEF7B6FC0120FEF711
:10299000FFFA002004B080BD80B5C000C1B21C2089
:1029A00000F03AF880BD000080B5C000C1B21B2025
:1029B00000F032F880BD0000BB2801D901210FE0F2
:1029C000612801D902210BE0292801D9032107E060
:1029D000132801D9042103E00621092888BF052115
:1029E00080B51A2000F018F880BD000010B504462C
:1029F0004FF47A70B4F57A7F28BF0446042C98BF50
:102A00000424B0FBF4F00138C1B2192000F004F83E
:102A10006008FFF7D1FF10BD80B584B002468DF885
:102A20000F1001200DF10F01CDE9001040F2A4209C
:102A30004FF0FF0CC2F20000D0210123CDF808C0F6
:102A4000FEF762FD04B080BD80B584B08C4640F2D4
:102A5000A4204FF0FF0ECDE90032C2F20000D021D9
:102A600062460123CDF808E0FEF74EFD002004B0D9
:102A700080BD000080B582B00020019043F6300098
:102A8000C4F202000168002241F4001101600068F4
:102A9000002100F40010019001981020FEF7BAFE0A
:102AA0001020FEF7B3FE112000210022FEF7B2FE37
:102AB0001120FEF7ABFE02B080BD000083B0002005
:102AC00043F630010290C4F202010A6842F080022B
:102AD0000A600A6802F080020292029A01900A6873
:102AE00042F001020A600A6802F001020192019AB2
:102AF0000090086840F002000860086800F00200DA
:102B00000090009803B0704780B540F2502045F225
:102B10000041C2F20000C4F2000148F2A0620023AA
:102B20004FF4804CC0F2010280E80E00C0E9033C83
:102B3000C0E90533C0E90733FEF712FB002818BFD0
:102B4000FEF7A0F880BD000080B540F2A42045F655
:102B50000001C2F20000C4F2000148F2A0620023AA
:102B60004FF4804CC0F2010280E80E00C0E9033C43
:102B7000C0E90533C0E90733FEF7F2FA002818BFB1
:102B8000FEF780F880BD000080B584B040F2F820E8
:102B90000021C2F2000044F200024FF6FF7CCDE9B2
:102BA0000211CDE90011C4F201025323C0E9021C55
:102BB00001618021C0E900238161FFF7F9F8002855
:102BC00018BFFEF75FF84FF48050009040F2F820F5
:102BD000C2F200006946FFF73DF9002818BFFEF772
:102BE00051F804B080BD000080B540F2403041F2A1
:102BF0000001C2F20000C4F2010100234FF00C0CEE
:102C00004FF4E13280E80E00C0E90333C0E905C3A8
:102C1000C361FFF753FA002818BFFEF733F880BDF1
:102C200080B540F2843044F20041C2F20000C4F2A8
:102C3000000100234FF00C0C4FF4004E4FF496426D
:102C400080E80E00C0E90333C0E905C3C0F81CE00A
:102C5000FFF734FA002818BFFEF714F880BD000013
:102C6000FEE70000FEE7000000F0070080F0070329
:102C7000042B28BF04234FF0FF3C03380CFA03F366
:102C800038BF0020994381400CFA00F022EA00008E
:102C90000843704780B540F2843040F25501C2F2DB
:102CA0000000C2F200011222FFF7E6FA80BD000028
:102CB00070470000704700002DE9F04140F28200AB
:102CC000C2F20000007A00281CBF0020BDE8F0819D
:102CD00040F2843540F28208C2F20005C2F20008D8
:102CE000284641460822FFF74DFB022811D140F249
:102CF000820620270024C2F2000600BF2846314683
:102D0000082285F83D7085F83C40FFF73BFB022820
:102D1000F4D0012088F80800BDE8F081B0B5013892
:102D20000024B4EB106F1CBF0120B0BD4EF21005A3
:102D3000CEF2000568604FF0FF300F2100F0DAFBA3
:102D40000720AC6028602046B0BD000080B5FEF7CB
:102D5000EFFC80BD70B592B006AC20463021FDF787
:102D60009EFA002543F640000595CDE90355CDE9CF
:102D700001550095C4F202000168022641F080511D
:102D80000160006800F080500090009847F2000059
:102D90000095C4F20000016866F38F31016000689D
:102DA00000F4404000900098012006904FF48030DD
:102DB00007904FF480000D9019200E90A820CDE9C7
:102DC0000F060420119020460C96FEF745FE78B9B8
:102DD0000F20CDE901064FF48050CDE9040501A88C
:102DE00002210395FEF72AFD002804BF12B070BD32
:102DF000FDF748FF4EF68850CEF20000016841F41E
:102E0000700101607047000080B540F2F820C2F206
:102E10000000FFF791F880BD10B540F2FF7E036817
:102E2000C4F2000E40F2000C7045C4F2010C0ADD41
:102E300040F60002C4F2000290420DD060450BD073
:102E400040F6004204E0B0F1804F05D040F200426D
:102E5000C4F20002904203D14A6823F07003134386
:102E60004FF6FF72C4F20002904209DC704512DC9A
:102E7000B0F1804F26D040F20042C4F200021FE0C1
:102E800044F2FF32C4F2010290420FDC604519D0D7
:102E900044F2000212E040F60002C4F20002904246
:102EA00010D040F60042C4F2000209E044F60002ED
:102EB000C4F20102904205D044F20042C4F2010281
:102EC000904203D1CA6823F44073134323F0800275
:102ED0004B69D1F800E08C681A4360450260C46217
:102EE000C0F828E002D10969CCF830100121416115
:102EF00010BD0000D0F808C011432CF47F4C41EA0B
:102F0000032141EA0C01816070470000826822F0D1
:102F10007002114341F0070181607047D0F820C072
:102F2000036A23F001030362836923F0F00343EA99
:102F300002122CF00A0319438261016270470000FB
:102F4000036A23F0100303628369D0F820C023F4DE
:102F5000704343EA02322CF0A00343EA011182617C
:102F60000162704710B5846B2068406994F83D1089
:102F7000212907D110F0800004D00020E0842046F1
:102F800000F0B2F82068406994F83E10222907D179
:102F900010F0400004D00020E085204600F07CF8CE
:102FA000206C40F0100020642046FFF785F810BD2B
:102FB00080B50168806B0968C9052FD40021C185DF
:102FC000016851E8031F026821F4807142E803138D
:102FD000002BF5D1016851E8051F026821F00101BD
:102FE00042E80513002BF5D1016851E8051F02687E
:102FF00021F0400142E80513002BF5D1202180F893
:103000003E10016B012909D1016851E8031F0268D4
:1030100021F0100142E80313002BF5D1016B0129C7
:1030200003D1818DFFF746F880BDFFF741F980BDE0
:1030300080B5806B016B012904D1818D4908FFF7B0
:1030400039F880BDFFF736F980BD000080B5016812
:10305000806B0968C90516D40021C184016851E854
:10306000051F026821F0800142E80513002BF5D10D
:10307000016851E8031F026841F0400142E8031370
:10308000002BF5D180BDFFF7BBF980BD80B5806B0B
:10309000FFF7B8F980BD0000016851E8031F02681E
:1030A00021F4907142E80313002BF5D1016851E837
:1030B000051F026821F0010142E80513002BF5D13C
:1030C000016B01290AD100BF016851E8031F0268A2
:1030D00021F0100142E80313002BF5D1202180F8E4
:1030E0003E10002101637047016851E8031F026828
:1030F00021F0C00142E80313002BF5D1202180F814
:103100003D10704710B504460068D4E902C2236937
:10311000016921F4405111430161626943EA0C01E4
:10312000E3691143C268194349F20C639A4311439E
:10313000C1604169A26921F4407141F20043114329
:1031400040F48062C4F201039A42416102D1FEF769
:103150003DFC01E0FEF728FCE16963681922B1F546
:10316000004FA0FB02011CD15A00DB0FFDF72EF827
:1031700048F21F51C5F2EB11A0FB01235A096FF071
:10318000630302FB0300322303EBC000A0FB010139
:103190004FF4F87000EA111000EB0210C1F3421175
:1031A0001AE09A009B0FFDF711F848F21F51C5F283
:1031B000EB11A0FB01235A096FF0630302FB03002C
:1031C000322303EB0010A0FB0101F02000EA5110B4
:1031D00000EB0210C1F3431122680843906010BD58
:1031E00070B582B01346002604468162838506646A
:1031F000222084F83E000A462168A06B42F6B17C8A
:1032000043F2310E42F66575C0F6000CC0F6000EB2
:10321000C0F600050431C0E90FCEC0E91356FDF732
:1032200085FE01962068016801914068019001982F
:10323000206984F83C6048B1206850E8030F216899
:1032400040F4807041E80302002AF5D1206850E87C
:10325000050F216840F0010041E80502002AF5D180
:10326000206850E8050F216840F0400041E8050261
:10327000002AF5D1002002B070BD00002DE9F04118
:103280000446006800680840884202D10020BDE87A
:10329000F0811D460E4690465F1C04E020680068E1
:1032A0003040B042F2D0002FF8D02DB1FDF752FFE0
:1032B000A0EB0800A842F1D9206850E8030F21686C
:1032C00020F4D07041E80302002AF5D1206850E8CC
:1032D000050F216820F0010041E80502002AF5D120
:1032E000202084F83D0084F83E00002084F83C0053
:1032F0000320BDE8F081000080B500F0ADF880BD8E
:1033000010B540F28200C2F20000017A71B366216A
:1033100040F2F032017040F2F131C2F20002C2F22A
:10332000000140F2F23392F800C091F800E0C2F2DE
:10333000000340F2F3321C78C2F2000240F2F43192
:103340001278C2F200018EEA0C0309786340027120
:103350005A40417151408171992180F801C080F833
:1033600002E0C470A0F80710012010BD002010BDBD
:1033700040F25400C2F200000178012909D140F264
:103380005301C2F200010A78AAB1012A15D1022222
:1033900012E040F25000C2F20000017840F2510207
:1033A000C2F200020529117002BF002101707047AE
:1033B00001310170704701220A700978022918BF93
:1033C000704740F25103C2F200031A780021052A27
:1033D0001EBF511C1970114640F250024FF0000CF4
:1033E000C2F20002117080F800C0704780B5FDF78E
:1033F000B1FE40F2C831C2F20001086080BD000099
:1034000010B540F26804C2F2000404F10800211D66
:10341000224601F0B1F904F10C0004F10E0104F1AF
:103420001002FFF701FAFFF71FFA608210BD0000DB
:10343000FEE7000040F2F131C2F20001087070476F
:1034400040F2F031C2F200010870704740F2F231F0
:10345000C2F200010870704710B540F2550000221A
:10346000C2F20000002100BF835CFE2B08BF1146A2
:1034700001320A2AF8D1425CFE2A21D1084441785F
:1034800004291DD1017AAA291AD190F802E0C17845
:1034900090F804C0437901EB0E0262441A44847927
:1034A000D2B2A24218BF10BD40F27C024EEA012106
:1034B000C2F20002C07951804CEA032111801071E0
:1034C00010BD0000002848BF704700F01F01012216
:1034D00002FA01F14EF200124009CEF2000242F867
:1034E000201070474EF60C50CEF200000068C0F37A
:1034F000022070474EF6145300F00F02CEF2000384
:1035000009011A4400F16043B0F1FF3FC8BF03F561
:1035100064421170704700004EF60C51CEF200016B
:103520000A684FF6FF031A4060F30A2242F08060F7
:1035300040F0FD700860704770B584B001AE05467C
:1035400030460C4600F0AAFD9FED220A9FED242A8A
:103550009FED213A9FED214A0021BFEE001A4FF066
:10356000010C002008E000BF0CFA01F21043013109
:10357000032906F104062AD055F8213054F82120F9
:103580009B1A48BF5B4296ED006A05EE103AB8EE12
:10359000C55AB5EE406AF1EE10FA25EE005A0BD08E
:1035A00085EE065A35EE015AB0EEC55AB4EE425ACF
:1035B000F1EE10FADBDDD7E7B4EE435AF1EE10FA84
:1035C000D2DBB4EE445AF1EE10FAD0DDCCE704B011
:1035D00070BD00BF000080379A99993E3333733F26
:1035E000295C0F3EB0B504464078E578C0070BD0A3
:1035F00040F27C10C2F2000002682AB105F0070018
:10360000411CC5F3C20090476078000709D540F21D
:103610008010C2F200000168002908BFB0BDA809EF
:103620008847B0BD80B582B000280EBF4FF0A330F0
:1036300042F62000C3F63000019001AA40F69E2019
:10364000042101F0F3FF01F065FC02B080BD000031
:103650002DE9F04184B004464CF60220C0F6E31098
:103660000DF10605CDF80600682004212A4601F078
:10367000DDFFA3206FF03F018DF8060014F0400637
:1036800008BF6FF05C016FF037026FF03D0308BFB9
:103690006FF05C0208BF6FF05C038DF807106FF0ED
:1036A0003B018DF808208DF8093014F4C07708BF6D
:1036B0006FF05C016FF033026FF0390308BF6FF0F9
:1036C0005C0208BF6FF05C038DF80A104AF2A33168
:1036D0008DF80B20ADF80D108DF80F0040F6A720E7
:1036E0000A212A468DF80C3001F0A0FF202014F0AA
:1036F000030808BF6FF027008DF8060040F6B620DB
:1037000001212A4601F092FFC4F3401000F08CF82A
:10371000CFB1E00504D49020B4218022B02303E08F
:103720009B20B6218B22B2238DF807208DF808103C
:103730008DF809000DF1060240F6A22004218DF853
:10374000063001F073FFE0070AD1D8208DF806009B
:103750000DF106024FF40B60012101F067FF27E035
:10376000F8208DF806000DF106024FF40B600121E0
:1037700001F05CFF0720FA2100F06CFB072000F04D
:1037800035FB012000F052FB642000F007FC4FF4F1
:10379000FA7000F019FC4EF20930C0F2CA20C821BC
:1037A00000F0E2FA282000F0F5FA0A2000F008FB09
:1037B000A0076FF0260058BF6FF027008DF80600B5
:1037C0000DF1060240F23D70012101F02FFFC4F31C
:1037D000800000F04FF8C4F30010FFF723FF40F221
:1037E000881144F00800C2F20001088001F092FB49
:1037F000002E18BF0626002F40F28E1018BF063686
:10380000C2F2000014F0140F067002D001781031DB
:103810000170B8F1000F02D001780431017000206E
:1038200004B0BDE8F081000080B584B060B15D20D7
:103830008DF80C0049F6B400C3F20D5002904AF620
:10384000B820C8F6B3500BE0C7208DF80C0048F63E
:10385000B000CCF2C35002904AF6B820CAF6AA20B3
:10386000019001AA4FF49760092101F0DFFE04B036
:1038700080BD000080B582B000280EBF4FF08B30B5
:103880004CF2C020CCF2C460019001AA40F698200E
:10389000042101F0CBFE01F03DFB02B080BD000031
:1038A00080B546F69E61C0F6000140F6F6304FF452
:1038B0008062C82301F0DEF980BD00002DE9F04FE1
:1038C00089B01446DDE9129288460021A9F800105B
:1038D00040F28E11C2F2000109780DF1040B82460C
:1038E000084659461D4601F08FFA20B14FF0FF30CF
:1038F00009B0BDE8F08F40F28817C2F2000738889F
:1039000010F0140F4DD09DF805109DF804009DF89F
:10391000062009049DF8073041EA006040EA0221D0
:10392000194421609DF809109DF80820090441EA16
:1039300002619DF80A209DF80B3041EA02221A44E8
:1039400062609DF80D209DF80C30120442EA03627B
:103950009DF80E3000959DF80F5042EA03232B444A
:10396000A3609DF811309DF810501B0410FB30F03F
:1039700043EA05639DF8125011FB31009DF8136076
:1039800012FB320043EA052513FB33002E4400F1FD
:103990007145B5F1007FE66005D901F0BBFA002062
:1039A00005E000200AE0B9F8000040F48070B5F1AD
:1039B000007FA9F8000099D8009D102039884A0698
:1039C00029D540F001031BF800201BF8033040F01C
:1039D000030643EA022240F002031BF803301BF8FF
:1039E0000660A8F8002046EA032240F0040340F0F5
:1039F00005061BF803301BF80660A8F8022046EA0B
:103A00000322A8F80420B9F8002040F0060042F094
:103A10000802A9F8002011F4C07F18D03BF800205C
:103A20000BEB000312BA5F88120CAAF800203ABA16
:103A30009B88120CAAF802201ABA120CAAF80420C9
:103A4000B9F80020063042F07002A9F8002089077A
:103A500002D05844FFF7C6FD284600F05DFE002066
:103A600009B0BDE8F08F0000B0B584B004460DF198
:103A7000020000F0ABFF40F28411C2F2000109889D
:103A8000BDF8020001F003024B0754F822204FF06A
:103A90000C034FEAC03C48BF524203EA5103880678
:103AA000E358C1F3811048BF5B4254F82000C905B8
:103AB00048BF40428CFB00018CFB02E2800F8CFB74
:103AC000035440EA810C900D8DF80400900B8DF8A2
:103AD000050090098DF80600A00D8DF80800A00BD8
:103AE0008DF80900A0098DF80A00880D8DF80C00EA
:103AF000880B4FEA9E73AD0F8DF80D00880943EADD
:103B0000820345EA84058DF80E0001AA4FF4257062
:103B10000C218DF807308DF80B508DF80FC001F097
:103B200085FD04B0B0BD000010B586B004464AF66D
:103B3000BB70CDF6DF7005904FF2AA10CDF6DF70A6
:103B400004904FF2FE20CCF2AB40C82C039015D865
:103B5000C820B0FBF4F001AA013800BA000CADF89F
:103B6000040040F21620022101F060FD30B903AAE2
:103B700040F6C1200C2101F059FD18B14FF0FF3083
:103B800006B010BD40F28C10C2F20000048000208C
:103B900006B010BD70B582B040F28411C2F20001CF
:103BA00009884EF2093401F0030250F822200C2655
:103BB0004B0748BF5242C0F2CA2406EA5106C1F37D
:103BC000811582FB0423865950F82550880648BF8A
:103BD0007642C8054FEA935148BF6D42900F8DF869
:103BE0000410990B40EA83008DF8051099098DF8AF
:103BF00006108DF8070001AA4FF47470042101F03B
:103C000015FD68B986FB0401800F40EA810000BA07
:103C1000019001AA4FF47570042101F007FD18B15D
:103C20004FF0FF3002B070BD85FB0401800F40EA09
:103C30008100010E8DF80410010C8DF80510010AA9
:103C40008DF806108DF8070001AA4FF47670042154
:103C500001F0ECFC02B070BDB0B582B0054646F68E
:103C60008361C0F60001C5F3C10300F00300CC5C22
:103C70000A5C8DF8054046F680648DF80420C5F393
:103C80008112C0F60004895C205C8DF806108DF866
:103C90000000E05CA15C8DF801008DF8021001AA23
:103CA00040F22640032101F0C1FCA0BB6A4640F26D
:103CB0002A40032101F0BAFC68BB76208DF806008B
:103CC00045F23660ADF8040044F22660ADF800001D
:103CD000662069078DF8020021D4A8062DD4E805D6
:103CE0000BD59DF806009DF8021040F001008DF8FC
:103CF000060041F001008DF8020001AA4FF488602F
:103D0000032101F093FC30B96A4640F231400321AF
:103D100001F08CFC00B34FF0FF3002B0B0BD9DF855
:103D200004009DF8001040F001008DF8040041F0FF
:103D300001008DF80000A806D1D59DF805009DF87A
:103D4000011040F001008DF8050041F001008DF8F0
:103D50000100E805C5D4D0E740F28410C2F20000AB
:103D60000580002002B0B0BD80B582B044F6D352C9
:103D7000C1F2620250FB02F0821102EBD0704843A4
:103D800000BA019001AA4FF4AE70042101F04EFC7C
:103D900002B080BD80B582B04CF6CD41CCF6CC41AE
:103DA000A0FB0101880840BAADF806000DF106023B
:103DB0004FF4AD70022101F039FC02B080BD00006B
:103DC00080B582B04CF6CD41CCF6CC41A0FB0101D0
:103DD000880840BAADF806000DF106024FF4AC7049
:103DE000022101F023FC02B080BD000080B582B04A
:103DF00000F001025242410802F0300261F38202F7
:103E000061F3C30240078DF8072005D59DF8070030
:103E100040F003008DF807000DF107024FF4A47085
:103E2000012101F003FC02B080BD000080B582B02A
:103E30000428014628BF0421002818BF481E8DF819
:103E400007000DF1070240F24F10012101F0EEFBD7
:103E500002B080BDB0B582B00446B1F5C86F4FF076
:103E6000FF3045D80D4614F0070141D00DF1030095
:103E700000F090FD9DF8030002384FEA700007281B
:103E800065D8C1B28B2222FA01F1C9075FD000EEDA
:103E9000105A9FED311AB8EE400A80EE010A2FA1A8
:103EA00001EB800191ED001A34A101EB800090ED4F
:103EB000002A20EE011A20EE020ABDEEC00A10EE22
:103EC000100ABDEEC10A10EE101A0A0A8DF804207D
:103ED0008DF80510010A01AA951C8DF80610E1075E
:103EE0008DF8070006D1A00713D4600720D4002066
:103EF00002B0B0BD01AA4FF4EA70022101F096FBB6
:103F000028BB4FF4927002212A4601F08FFBF0B9D2
:103F1000E9E701AA4FF4EC70022101F087FBB0B988
:103F20004FF4947002212A4601F080FB78B9DCE757
:103F300001AA4FF4EE70022101F078FB38B94FF47A
:103F4000967002212A4601F071FB0028CFD04FF075
:103F5000FF3002B0B0BD00BF000048430000804603
:103F600000000046000080460000804500008046BA
:103F700000008046000080460000004500004046EA
:103F80000000C0450000404600004045000040469B
:103F900000004046000040460000C04480B582B0AA
:103FA0004CF6CD41CCF6CC41A0FB0101880840BACB
:103FB000ADF806000DF106024FF4EF70022101F09A
:103FC00035FB02B080BD000080B582B04CF6CD411B
:103FD000CCF6CC41A0FB0101880840BAADF8060040
:103FE0000DF106024FF4ED70022101F01FFB02B04B
:103FF00080BD000010B54FF4FA60FCF7C9FF40F235
:10400000F030C2F200008021017040F2F130C2F2C3
:104010000000017040F2F230C2F20000017040F284
:10402000F330C2F20000017040F2F430C2F200003E
:104030000021017040F28200C2F2000001210172F1
:10404000FFF75EF9032400BF8020FFF7FFF9FFF7B9
:1040500057F9FEF731FE4FF47A70FCF799FFFF2015
:10406000FFF7F4F9FFF74CF9FEF726FE4FF47A70EC
:10407000FCF78EFF013CE7D110BD000080B582B097
:10408000019040F24030C2F2000001A901224FF637
:10409000FF73FEF711F9019802B080BDB0B582B090
:1040A00040F21801C2F2000149680446097801ABE8
:1040B00008460D210422FEF757FC08B102B0B0BD3E
:1040C0009DF804009DF807304FF01C0E9DF8051078
:1040D0000EEAD000C3F3011210449DF806C08DF81B
:1040E00001000EEAD100C3F3810108448DF80200FB
:1040F0000EEADC0003F0030141F27B4C9FED160A4F
:104100009FED161A08444FF0000E0DF10101C3F6A1
:10411000AE6C00238DF8030005E000BFC2F800E09C
:104120000133032BCAD0C85C04EB83020028F5D00E
:10413000C85CC2F800C001380506C854F0D0C85C9D
:10414000B0EE402A0138050622EE012AFAD182EDAE
:10415000002A01F803E0E3E77B14AE3E1D5A843FDA
:104160002DE9F04383B040F2180705460120C2F262
:1041700000070C46ADF80000D7E90010164600789D
:10418000897C6B460222FEF75FFC10B14FF0FF37CF
:104190008CE1C820FCF7FCFE00208DF80000D7E978
:1041A00000106B460078C97B0122FEF74DFC10B170
:1041B0004FF0FF377AE1D7E900106B460078497974
:1041C0000122FEF741FC10B14FF0FF376EE1D7E955
:1041D00000106B460078897C0122FEF735FC10B197
:1041E0004FF0FF3762E1D7E900106B460078C97DD8
:1041F0000122FEF729FC10B14FF0FF3756E1D7E955
:1042000000106B46007809790122FEF71DFC10B101
:104210004FF0FF374AE10C208DF80000D7E900107D
:104220006B46007809790122FEF70EFC10B14FF0C1
:10423000FF373BE10F20FCF7ABFEB86A3968407AE4
:104240007A688DF80000107889786B460122FEF7B5
:10425000FBFB10B14FF0FF3728E1B86A3968007AEC
:104260007A688DF80000107849786B460122FEF7D5
:10427000EBFB10B14FF0FF3718E1B86AD7E9001235
:10428000807A002E18BF40F0E0008DF80000107812
:1042900089796B460122FEF7D7FB10B14FF0FF374B
:1042A00004E126B1B86AC07A60F01F0000E018206F
:1042B0008DF80000D7E900106B460078C97901221B
:1042C000FEF7C2FB10B14FF0FF37EFE016B1C82088
:1042D000FCF75EFE40208DF80000D7E900106B4629
:1042E000007809790122FEF7AFFB10B14FF0FF37DC
:1042F000DCE078208DF80000D7E900106B460078EC
:1043000049790122FEF7A0FB10B14FF0FF37CDE055
:104310003220FCF73DFE00208DF80000D7E90010A8
:104320006B46007849790122FEF78EFB10B14FF001
:10433000FF37BBE0D7E900106B460078897A02228C
:10434000FEF712FB10B14FF0FF37AFE0BDF80000F1
:104350004AF6AB2100BA000CCAF6AA21A0FB010163
:10436000C1F3C7090020B9F1000FC5E90000A8603A
:10437000C4E90000A0603ED00026E846D7E900105E
:104380000C220078C97A4346FEF7EEFA002840F086
:104390008B80BDF80000BDF80210BDF8042090FA33
:1043A00080FCD4E9003009BA92FA82FEA26803EBDD
:1043B0002C4300EB214002EB2E41C4E90030BDF854
:1043C0000600A160BDF8081090FA80FCBDF80A2034
:1043D000D5E9003009BA92FA82FEAA6803EB2C43B1
:1043E00000EB21400136C5E90030F0B202EB2E416E
:1043F0008145A960C2D895E841018322C11709040B
:1044000041EA1041000400230027FBF710FF4A4651
:104410000023FBF70CFF2860F017000440EA164168
:10442000300483220023FBF702FF4A460023FBF7F8
:10443000FEFE68604FEAE870000440EA18414FEA67
:10444000084083220023FBF7F2FE4A460023FBF7D5
:10445000EEFEA860D4E90006A568C117490141EA4B
:10446000D06140014A460023FBF7E1FE2060F017CF
:10447000400140EAD66170014A460023FBF7D7FEAF
:104480006060E817400140EAD56168014A460023B0
:10449000FBF7CDFE4FF480310028C4BF0021CFF6DA
:1044A000FF710844A06001E04FF0FF37384603B0C9
:1044B000BDE8F08370B582B040F21802C2F200028B
:1044C00052680C4611780DF10506054608460D2187
:1044D00003223346FEF748FA10B1072002B070BD40
:1044E0009DF805009DF806109DF8072000F01F00BC
:1044F0008DF8050001F01F008DF8060002F01F0086
:104500009FED2C0A9FED2E2A9FED2C5A9FED2A6AD3
:104510008DF807004FF0000CB2EE041A4FF0010EB8
:10452000B3EE093ABFEE004A0023002006E000BFC8
:104530000EFA03F108430133032B38D055F823104A
:1045400054F82320891A48BF494207EE101AF15C3B
:10455000B8EEC77A27EE007AF1B1F15CF0EE430ACB
:104560000139F15409060AD0F15CF0EE430A00BFAC
:1045700001390A0660EE860AFAD106F803C087EE12
:10458000207A37EE047AB0EEC77AB4EE457AF1EECF
:1045900010FAD0DDCCE700BFB4EE417AF1EE10FAAC
:1045A000C6DBB4EE427AF1EE10FAC4DDC0E702B029
:1045B00070BD00BF0000803754E3853F295C0F3E8B
:1045C0000000D242B0B5044600F00EF80546E01CEB
:1045D00000F00AF845EAC005A01D00F005F845EA1C
:1045E000801080B2B0BD000090F900100029C4BF57
:1045F0000020704744BF0420704790F90110002943
:10460000C4BF0120704744BF0520704790F90200E5
:104610000028C4BF022070474FF0060008BF0720E3
:1046200070470000FCF798FAFEF750F900F06AF9BD
:10463000014629A001F0E8F9FEF72CFBFCF78AFD02
:1046400040F2E831C2F200010860FCF783FD40F25D
:10465000EC3140F25004C2F20001C2F200040860E2
:1046600001E0FEF785FEFEF7C1FE20780528F8D8A8
:10467000DFE800F0091119212903FEF7B7FE6620D3
:1046800001F09EF9EDE7FEF7B1FE002001F074F8AD
:10469000FEF76EFEE7E7FEF7A9FE222001F07AF8AA
:1046A000FEF766FEDFE7FEF7A1FE332001F09EF87D
:1046B000FEF75EFED7E7FEF799FE442001F0B4F85E
:1046C000FEF756FECFE7FEF791FE552001F0D2F837
:1046D000FEF74EFEC7E700BF0D0A6D707520646DD2
:1046E00070203D2025640D0A00000000FDF72EF823
:1046F000FEF730FBFEF7E2F9FEF7BCF9FEF790FAA1
:10470000FEF772FAFEF720FAFEF73EFAFEF7FCF922
:10471000FFF788FFFCE7000070470000F0B581B0AC
:1047200040F21805C2F2000595F8241019B10024D2
:10473000204601B0F0BDA97AC1B100F0FE07287D86
:104740003940CC1B2E7C297418BF4FF0FF343843FE
:1047500018BF012000F0E4FF002FE9D000F0DAFBE1
:1047600000281CBF2E744FF0FF34E1E74FF0FF34F8
:10477000DEE70000000000002DE9F0412DED0E8B7A
:104780008CB004460DF11E0090460D460DF11D073C
:1047900000900DF1260008A903AA0BAB0197FFF7C3
:1047A0008DF808B10120A0E0BDF81E00C00501D4BD
:1047B00002209AE09DED030A9DED041A9FED504AF8
:1047C0009DED052AB8EEC00A9DED063A20EE049A4A
:1047D000B8EEC10A20EE04AAB8EEC20A20EE04BA6E
:1047E000B8EEC30A20EE04CAB8EE000A2AEE00DAD8
:1047F00039EE098A2DEE0C0A28EE0B1A31EE000A6A
:1048000010EE100AFBF7FCFE41EC100B01F024F94E
:1048100051EC100B9FED380B56EC107B3A463346AB
:10482000FBF7FCFDFBF7FFFE3BEE0BEA2EEE0C0A5E
:1048300028EE0A1A31EE000A206010EE100AFBF78B
:10484000DFFE2AEE0D0A2BEE0E1A30EE410AB7EE0D
:10485000001A30EE010A41EC180B10EE100AFBF7BB
:10486000CFFE41EC110BB0EE480AF0EE680A01F001
:104870000FFC51EC100B3A463346FBF7CFFDFBF72C
:10488000D2FE2AEE0B0A29EE0C1A30EE010A30EEA7
:10489000000A286010EE100AFBF7B2FE29EE090AA2
:1048A0002AEE0A1A30EE010A2BEE0B1A30EE410AFC
:1048B0002CEE0C1A30EE410A41EC180B10EE100AE7
:1048C000FBF79EFE41EC110BB0EE480AF0EE680AD1
:1048D00001F0DEFB51EC100B3A463346FBF79EFD30
:1048E000FBF7A1FEC8F8000000200CB0BDEC0E8B59
:1048F000BDE8F08100BF00BF6666666666A64C40F4
:104900000000803080B500F0F3F800281CBF0A20BA
:1049100080BD782000F02CFE00061CBF012080BD69
:104920007820FFF7FBFE00061CBF022080BD32206E
:1049300000F0D8FD00061CBF032080BDFEF7B0FFCD
:1049400000061CBF042080BD40F20C00C2F2000033
:10495000FFF738FEFFF780F900061CBF052080BD79
:1049600040F27310FEF774FE00061CBF062080BDE7
:104970003220FFF7D9F800061CBF072080BD00F0E9
:1049800087FE012000F0BCFCC0B2002818BF09203F
:1049900080BD000040F21801C2F200014A7A032AE9
:1049A00084BF4FF0FF30704740F20243D200C1F2A3
:1049B000080323FA02F20270C97C002904BF002018
:1049C00070470178490001700020704740F2180CD0
:1049D000C2F2000C9CF80930032B84BF4FF0FF306B
:1049E00070474FF48042DFE803F00A02050841F601
:1049F0009C7204E04FF4805201E04FF400629CF896
:104A000013100280002904BF002070470188490864
:104A10000180002070470000014640F21800C2F2F9
:104A20000000027C00200A707047000040F218016C
:104A3000C2F200010B7A0146032B07D8FA22DFE805
:104A400003F00C02070A4FF4FA7206E0002204E0B9
:104A50004FF47A7201E04FF4FA6200200A80704746
:104A600040F21801C2F2000191F90810032984BF35
:104A70004FF0FF30704703A252F821100160002070
:104A8000704700BF000003430000834233330342FA
:104A90003333834140F21801C2F20001C97A4B1E40
:104AA000052B014607D8BC22DFE803F00E030709F7
:104AB0000B0D622208E0002206E02A2204E0142204
:104AC00002E00A2200E0052200200A807047000070
:104AD00040F21801C2F2000191F82420002A1CBF04
:104AE0004FF0FF307047C9890180002070470000F7
:104AF000B0B582B040F218058020C2F200058DF8F2
:104B00000200D5E900100DF102030078897C012232
:104B1000FDF79AFF10B14FF0FF3497E06420FCF7E7
:104B200037FA00208DF80200D5E900100DF10203DC
:104B30000078897C0122FDF787FF10B14FF0FF3428
:104B400084E0D5E900100DF102030078897D06228A
:104B5000FDF70AFF10B14FF0FF3477E09DF8071022
:104B60009DF803009DF80520890062F3410100F0E3
:104B70000100084410F0070003D0022822D10020D1
:104B800021E0D5E900100DF102030078C978012277
:104B9000FDF7EAFE10B14FF0FF3457E09DF8020038
:104BA00000F00F0004280AD00028E8D147F6D020F2
:104BB000C0F6000002F0A0F84FF0FF3446E025A058
:104BC00002F09AF80120E8744FF6FF70E881FF20A8
:104BD0002874A8740120287385F8220000204FF063
:104BE000FF34C5E90500E8612884C5F8230085F88D
:104BF00027004FF4FA60AC6000F0C8FB30BB022025
:104C000000F0CCFA10B14FF0FF341FE02A2000F082
:104C100031FC10B14FF0FF3418E0322000F062FC9C
:104C200010B14FF0FF3411E00020FFF777FD10B115
:104C30004FF0FF340AE0002000F0ECFA10B14FF022
:104C4000FF3403E00020002400F092FC204602B074
:104C5000B0BD00BF48616C662073656E736974698E
:104C600076697479207061727420666F756E642E37
:104C7000000000002DE9F04F87B0074600294FF0F3
:104C8000FF3052D08B4640F21801C2F2000191F879
:104C90002510002949D1CDE900324FB300200DF194
:104CA0000C0A4FF0000800BFA7EB0009B9F1100F84
:104CB000A8BF4FF010090BEB00041FFA89F51FFA8B
:104CC00088F630462946224600F0B0FC10BB30463C
:104CD0002946524600F0ECF8E0B9204651462A46F3
:104CE000FBF7E8FA20BBC8441FFA88F0B842DBD3D0
:104CF000019840F2180440BAC2F20004ADF80A006C
:104D0000D4E900100DF10A030078897E0222FDF734
:104D10009BFE20B14FF0FF3007B0BDE8F08F0120BF
:104D200084F825000098E084002007B0BDE8F08FEB
:104D30006FF0010007B0BDE8F08F0000B0B582B0A1
:104D4000282802D94FF0FF344EE0044648B1012034
:104D500000F05CFB2020012C8DF806001CD1002007
:104D60001DE00020002400F051FB40F218054FF434
:104D7000E060C2F20005ADF80600D5E900100DF1C3
:104D800006030078897C0222FDF75EFE00280CBF36
:104D90002C754FF0FF3427E0052C28D801208DF822
:104DA0000700052000F066FB9DF8070040F218059B
:104DB00080010730C2F200058DF80700D5E9001028
:104DC0000DF106030078897C0222FDF73DFE10B14B
:104DD0004FF0FF3408E00820A87201200024287555
:104DE00000202C73FFF79AFC204602B0B0BD142CB3
:104DF00004D802208DF807000A20D3E703208DF89D
:104E000007001420CEE700002DE9F04182B040F207
:104E10001807C2F200070E4697F8241005464FF017
:104E2000FF30D9B3B97AC9B3D7E900101446007876
:104E3000897A0DF106030222FDF796FD20BBBDF82D
:104E40000600000490FA80F8A84502D200202070E5
:104E50001AE078684188B8EB510F0CD939680078AE
:104E6000497C0DF106030122FDF77EFD60B99DF836
:104E70000600C00615D4D7E90010EAB20078C97A56
:104E80003346FDF771FD20B14FF0FF3002B0BDE8B1
:104E9000F081B8FBF5F001382070002002B0BDE8C9
:104EA000F08100F037F86FF0010002B0BDE8F0814A
:104EB00070B582B00D4601464FF0FF3042B340F26C
:104EC0001806C2F200061446B27A0AB370684ABAEB
:104ED000438955FA81F19942ADF8062008D8316826
:104EE0000078097E0DF106030222FDF7ADFD18B131
:104EF0004FF0FF3002B070BDD6E90010EAB2007882
:104F0000497D2346FDF730FD002818BF4FF0FF30E4
:104F100002B070BD10B582B040F21804C2F20004B5
:104F2000A07A00B300208DF80700D4E900100DF13D
:104F300007030078C97B0122FDF786FD98B9D4E903
:104F400000100DF10703007849790122FDF77CFD7F
:104F500048B9D4E900100DF107030078097901225E
:104F6000FDF772FD18B14FF0FF3002B010BD94F89C
:104F70002400002845D00C208DF80700D4E900104B
:104F80000DF10703007809790122FDF75DFD002886
:104F9000E9D13220FBF7FCFFA07A0DF10703C0072F
:104FA0006FF01F0008BF6FF03F008DF80700D4E9D5
:104FB0000010012200780979FDF746FD0028D2D1C2
:104FC000607C0DF10703002818BF012040008DF818
:104FD0000700D4E9001001220078C97BFDF734FDF9
:104FE0000028C0D100208DF80700D4E900100DF191
:104FF0000703007849790122FDF726FD0028B2D188
:1050000045E004208DF80700D4E900100DF10703F6
:10501000007809790122FDF717FD0028A3D1A07AB5
:10502000A17CC0074FF0600008BF4020002918BFD6
:1050300040208DF80700D4E900100DF10703007837
:1050400009790122FDF700FD00288CD13220FBF701
:105050009FFF607C0DF10703002818BF01208DF829
:105060000700D4E9001001220078C97BFDF7ECFCB1
:1050700000287FF478AFD4E9001004F11003007821
:1050800049790122FDF7E0FC00287FF46CAF002095
:1050900002B010BD2DE9F04F89B040F2180AC2F2FB
:1050A000000A9AF824900E46B9F1000F054602D086
:1050B000002000F025F902A8FFF7B8FC0DF10B0065
:1050C000FFF768FC01A8FFF7E5FC0DF10600FFF70C
:1050D000FFFC9AF80A800DF10A00FFF79DFC0024FE
:1050E000284631460022FFF73BF818B10134012C65
:1050F000F6D00224022C0FD000270DF1180B03ACC0
:10510000584621460122FFF72BF818B10137012F2D
:10511000F6D00227022F01D100250FE003A9304667
:10512000FEF70AFA044606A92846FFF7C3F9C0B2FB
:10513000B0FA80F04509200608BF02354FF6FF702F
:10514000AAF80E00FF208AF810004FF0FF30CAF8CE
:105150000800BDF8080001218AF80C1000F016F9CB
:105160009DF80B0000F01AF8BDF8040000F082F979
:10517000BDF8060000F0B6F9404600F0F9F99DF8D8
:105180000A00FFF7CBFAB9F1000F02D0012000F0BE
:10519000B7F8284609B0BDE8F08F000010B582B01E
:1051A00040F21804C2F20004A17A41B302384FEA77
:1051B000700107294FF0FF302AD8DFE801F004061C
:1051C00029082929290A002004E0082002E01020EB
:1051D00000E018208DF80700607A9DF80710B0EB0A
:1051E000D10F02D1002002B010BDD4E900100DF1A2
:1051F00007030078C9790122FDF726FC18B14FF0AA
:10520000FF3002B010BD9DF80700C008607200209A
:1052100002B010BDB0B582B040F21805C2F2000570
:10522000A97C814202D1002002B0B0BD0446D5E97C
:1052300000100DF10703007809790122FDF794FBB6
:1052400084B3002844D19DF807000DF1070300F056
:10525000DF008DF80700D5E90010012200780979F8
:10526000FDF7F2FBA0BB0320FBF792FE95F822109E
:1052700095F823206FF07D00002908BF02208DF8EB
:1052800007001AB140F030008DF80700D5E9001092
:105290000DF107030078097D0122FDF7D5FBB8B9B0
:1052A000AC74C0E7A0B99DF80700A97A00F0DF0050
:1052B00001F0010140EA41108DF80700D5E9001026
:1052C0000DF10703007809790122FDF7BDFB18B144
:1052D0004FF0FF3002B0B0BD0320FBF759FE95F848
:1052E000220095F82310024600281CBF01226FF00F
:1052F0007F00D20100298DF80720C3D1C6E7000046
:1053000070B582B040F21805C2F2000595F824107D
:10531000814201D1002436E0F8B195F8250080B330
:105320000020002400F0FCF90020FFF773FFE88C58
:1053300000F0D8F868688DF8074000780DF1070391
:10534000232101220126FDF77FFB012085F824603F
:1053500000F0E6F9FFF7DEFD15E00020002400F084
:10536000DFF9287C69688DF8070008780DF10703DC
:1053700023210122FDF768FB85F82440FFF7CAFDD1
:1053800001E04FF0FF34204602B070BD10B582B08E
:1053900040F21804C2F20004A17A61B30146B0F5EC
:1053A0007A7F4FF0FF3006DAFA290CD0B1F5FA7F98
:1053B0002AD108200AE0B1F57A7F06D0B1F5FA6F5C
:1053C00022D1182002E0002000E010208DF8070014
:1053D000207A9DF80710B0EBD10F02D1002002B067
:1053E00010BDD4E900100DF107030078897901227E
:1053F000FDF72AFB18B14FF0FF3002B010BD9DF849
:105400000700C0082072002002B010BDB0B582B005
:1054100040F21805C2F2000595F82310814225D00C
:10542000A97C0446002818BF302000298DF8070009
:105430001CBF40F002008DF8070095F8220028B14B
:105440009DF8070040F080008DF80700D5E90010B6
:105450000DF107030078097D0122FDF7F5FA18B177
:105460004FF0FF3002B0B0BD85F82340002002B0FD
:10547000B0BD000010B582B040F21804C2F20004C2
:10548000A17A21B3BC2801D301200FE0622801D307
:1054900002200BE02A2801D3032007E0142801D3BF
:1054A000042003E00A2834BF062005208DF80700F9
:1054B000E07A9DF80710884210D0D4E900100DF171
:1054C0000703007889780122FDF7BEFA18B14FF082
:1054D000FF3002B010BD9DF80700E072002002B05E
:1054E00010BD000070B582B040F21805C2F2000590
:1054F000A97A04464FF0FF30B9B395F82410A1BB48
:10550000287D60B1601E80B2272805D8E0B2FFF781
:1055100015FC002002B070BD0020FFF70FFC4FF417
:105520007A76B4F57A7F28BF3446042C98BF0424D9
:10553000B6FBF4F00DF1070301388DF80700D5E94B
:105540000010012200784978FDF77EFA18B14FF07B
:10555000FF3002B070BD9DF807000130B6FBF0F0DF
:10556000E8814008FFF786FF002002B070BD000010
:10557000B0B582B0044610F0700F01D0012003E0F6
:10558000002C0CBF4020002040F21805C2F200059C
:105590008DF80700D5E900100DF107030078897C2C
:1055A0000122FDF751FA20B10020A8724FF0FF341C
:1055B00039E09DF80700A10600F0BF0028734FF006
:1055C000040020EA141058BF0230E1068DF80700ED
:1055D00005D49DF8070040F001008DF80700200772
:1055E00005D49DF8070040F038008DF80700D5E994
:1055F00000100DF107030078C97C0122FDF724FAA1
:1056000020B10020A8724FF0FF340CE044F00800F5
:10561000082802D00020FFF7F9FEAC7200243220E7
:105620002C75FBF7B5FC204602B0B0BD70B582B05A
:105630000D4601464FF0FF3042B340F21806C2F269
:1056400000061446B27A0AB370684ABA438955FA1A
:1056500081F19942ADF8062008D831680078097EBA
:105660000DF106030222FDF7EFF918B14FF0FF30FC
:1056700002B070BDD6E90010EAB20078497D234639
:10568000FDF7E2F9002818BF4FF0FF3002B070BDFF
:1056900010B588B005A802A9FFF7FCFC07283BD18C
:1056A00001A801ACFFF7DCF994ED040A94ED051AAA
:1056B00094ED062A94ED003AB8EEC00AB8EEC11A8D
:1056C000B8EEC22A23EE000A23EE011A23EE022AC4
:1056D000BDEEC00ABDEEC11ABDEEC22A05A884ED1A
:1056E000040A84ED051A84ED062AFEF753FA0DF13B
:1056F0000200FFF76BF902ABBDF802000ECB41438D
:10570000029102FB00F15843049002A80391FEF7B6
:10571000ABF9002008B010BD012008B010BD00009A
:1057200010B582B040F21804C2F2000494F82410BC
:1057300089B1002818BF012040008DF80700D4E986
:1057400000100DF107030078C97B0122FDF77CF9F9
:1057500060B102B010BDA17A0029FAD010B1617C0D
:105760000029F6D1002818BF0120E6E79DF80700C0
:10577000607402B010BD000010B540F28F14C2F288
:1057800000042078002818BF10BDFEF733FC01206C
:10579000207010BDB0B504464FF4FA702146FBF7F7
:1057A000E9F9002818BFB0BDFDF7AAFDFDF784FA9E
:1057B000FBF7D0FC40F2E835C2F200052968401A38
:1057C00040F6B831884205D30420FBF7D1F8FBF747
:1057D000C1FC2860FBF75CFA024647F6BB20C0F626
:1057E0000000214600F010F9B0BD000010B50446DD
:1057F0004FF4FA702146FBF7BDF9002818BF10BD21
:105800008020FDF723FE8220FDF714FE7820FDF7AF
:1058100017FEFBF73DFA024647F6BB20C0F6000034
:10582000214600F0F1F810BD10B586B004461420F2
:105830002146FBF79FF908B106B010BDFDF7E0FD6A
:1058400001A8FBF72FFA0DF1040E40F2CC309EE8D0
:105850000E50C2F2000080E80E50FBF719FA024623
:1058600047F6BB20C0F60000214600F0CDF806B098
:1058700010BD00002DE9F04381B02DED028B84B006
:1058800004464FF461702146FBF774F9002852D1A9
:1058900040F2CC37C2F20007B868D7E90056FAF7F1
:1058A000AFFE814630468846FAF7AAFE41EC180B57
:1058B0002846FAF7A5FE41EC100B22A04A464346C3
:1058C0008DED008B8DED020B00F09EF8B7F90C10FA
:1058D000B7F90E20B7F9103023A000F095F8B7F90A
:1058E00012102AA000F090F840F2E030C2F200005E
:1058F000B0F90020B0F90210037928A000F084F874
:10590000FBF7C6F9024647F6BB20C0F60000214669
:1059100000F07AF8FBF71EFC40F2EC34C2F200040F
:105920002168401AB0F5FA6F05D30220FBF720F882
:10593000FBF710FC206004B0BDEC028B01B0BDE8A9
:10594000F08300BF7069746368203D2025662020C5
:10595000726F6C6C203D2025662020796177203D98
:105960002025660D0A0000006178202020203D20BF
:105970002564202061792020203D2025642020619D
:105980007A20203D2025640D0A00000074656D70AA
:1059900020203D202564200D0A0000007679203D5E
:1059A000203A20256420207678203D203A20256466
:1059B00020207175616C203D203A2025640D0A007D
:1059C00010B582B0044614202146FBF7D3F808B185
:1059D00002B010BDFDF790FC6846FBF76FF940F28E
:1059E000E030BDF80410009AC2F20000818002602D
:1059F000FBF74EF9024647F6BB20C0F600002146F1
:105A000000F002F802B010BD0FB4054B10B503A9A9
:105A1000044A029800F0C4FD10BC5DF814FB0000BD
:105A20007D4000080000002003B401984100009868
:105A300050EAC12018BF04204A0D18BF40F00100F1
:105A400040F2FF72B2EB515F08BF40F00200012844
:105A500008BF052002B0704770B5C1482DED020B9C
:105A60002DED0E8B82B0119D25F000449FEDBEDB25
:105A70009FEDBFEB84423EDBA4F140511098A1F1B1
:105A80007F6108430FD0BC48844202DC28D11098C3
:105A900030B39DED100B02B0BDEC0E8B02B0BDE833
:105AA000704000F071BC9DED100B53EC1D2B51ECC0
:105AB000100BFAF7B3FC9DED100B41EC180B53ECF7
:105AC0001E2B51EC100BFAF7A9FC53EC182BFAF72C
:105AD000FEFB41EC100B02B0BDEC0E8B02B070BDB2
