:020000040800F2
:10000000280C0020A90100082D3000082D2600082A
:1000100029300008710900087D3E0008000000003A
:100020000000000000000000000000006D35000826
:10003000510A000800000000693500082D3600084C
:10004000C3010008C3010008C3010008C301000880
:10005000C3010008C3010008C3010008C301000870
:10006000C3010008C3010008C3010008C301000860
:10007000C3010008C3010008C3010008C301000850
:100080007509000885090008C30100080000000088
:10009000000000000000000000000000C301000894
:1000A000E9360008C3010008C3010008C3010008C5
:1000B000C3010008C3010008C3010008C301000810
:1000C000C3010008C3010008C3010008C301000800
:1000D000C3010008C3010008C301000800000000BC
:1000E000C3010008C3010008C301000800000000AC
:1000F000000000000000000000000000C301000834
:1001000000000000C3010008C3010008C30100088B
:1001100000000000000000000000000000000000DF
:10012000C3010008C3010008C3010008C30100089F
:10013000C3010008000000000000000000000000F3
:10014000000000000000000000000000C3010008E3
:10015000C3010008C3010008C3010008FD3C0008FA
:10016000C3010008C30100080000000000000000F7
:10017000000000000000000000000000000000007F
:1001800000000000C30100080000000000000000A3
:10019000C3010008DFF80CD000F086FB00480047E0
:1001A000D94F0008280C0020064880470648004721
:1001B000FEE7FEE7FEE7FEE7FEE7FEE7FEE7FEE717
:1001C000FEE7FEE7D5360008950100082DE9F05F4F
:1001D0000546002092469B468846064681464024B6
:1001E0001BE0284641464746224600F05DFA53464A
:1001F0005A46C01A914110D311461846224600F0C3
:1002000044FA2D1A67EB01084F46224601200021CF
:1002100000F03BFA17EB00094E41201EA4F1010447
:10022000DFDC484631462A464346BDE8F09F2DE9CB
:10023000F0410024061B254671F1000605DA012471
:100240000027D0EB070067EB0101161E73F10006D3
:1002500005DA0027D2EB0702012567EB0303FFF75E
:10026000B5FF86460E4617469C46AC4204D0002594
:10027000D0EB050E65EB010624B10020D2EB0007A0
:1002800060EB030C704631463A466346BDE8F081A8
:10029000D2B201E000F8012B491EFBD270470022C8
:1002A000F6E710B513460A4604461946FFF7F0FF75
:1002B000204610BD30B504460020034600E05B1C1C
:1002C000934203D2E05CCD5C401BF8D030BD2DE9F9
:1002D000FE4F804681EA0300C00F0C46009021F0DB
:1002E000004123F00045B8EB0200A94105D2404689
:1002F000214690461C460B46024623F00040104320
:1003000047D0270DC7F30A00C3F30A510290401AE1
:10031000019040286BDAC3F3130040F4801B00986F
:10032000924620B10023D2EB030A63EB0B0B01983A
:100330005946C0F14002504600F0A7F906460D4666
:1003400050465946019A00F0BFF910EB0800614190
:10035000002487EA115284EAE7731A4340D0009AD6
:1003600062B3019A012A4FEA075215DC001B61EBC8
:1003700002014FF0004202EA0752CDE90042001CA0
:1003800041F5801132462B4600F0F6F903B0BDE886
:10039000F08F40462146F9E7001B61EB0201001C8B
:1003A00041F5801300185B412018A2F5001747EBB8
:1003B000030140EAD570B6196D4111E06D084FEAAE
:1003C000360645EAC0754FEA0752001B61EB020191
:1003D000001C41F5801149084FEA300000195141D5
:1003E00032462B4603B0BDE8F04F00F0B6B9009896
:1003F000012240000023D0EB020263EBE07300987F
:1004000021464FEAE074B8EB000061EB0401E9E734
:1004100083F000435BE781F0004158E72DE9FE4F90
:1004200081EA030404F0004421F0004100944FF0FD
:10043000000B23F0004350EA01045ED052EA0304AB
:100440005BD0C3F30A54C1F30A552C44A4F2F3342D
:100450000194A0FB0254C1F3130141F48011C3F3D2
:10046000130343F4801301FB024400FB034E840A90
:10047000970A44EA815447EA8357A4FB0768029528
:100480008D0A05FB07854FEA932C04FB0C542705C6
:10049000029D4FEA065847EA1637B5EB08056EEBA2
:1004A000070C870E920E47EA811742EA8312A7FBD8
:1004B0000201B6EB0B0164EB00042B0D43EA0C3395
:1004C0005E1844EB1C50DA465146E7FB0201C5F3C7
:1004D00013044FEA0B3343EA14534FEA0432019CEE
:1004E00043EA0603A4F10C040294009CCDE900B495
:1004F00000F042F903B0BDE8F08F00200146F9E7B3
:100500002DE9F04D81EA030404F0004B21F0004591
:1005100014464FF0000A23F0004150EA050220D0B3
:1005200054EA01021DD0C5F30A570246C5F313036E
:10053000C1F31300C1F30A5640F4801543F480134D
:10054000A7EB0608101BD64608F2FD3873EB050032
:1005500002D308F1010801E092185B41B8F1000FE5
:1005600003DA00200146BDE8F08D00204FF4801131
:10057000064684460EE0171B73EB050705D3121BD6
:1005800063EB050306434CEA010C49084FEA3000CF
:1005900092185B4150EA0107EDD152EA030012D0F4
:1005A00082EA040083EA0501084305D0101BAB4131
:1005B00006D20122002306E000224FF0004302E0B1
:1005C0006FF0010253101AEB06004CEB085110EBD0
:1005D0000A0041EB0B01BDE8F04D00F0BEB80EB5CE
:1005E000C10F80EAE0700844CA07002140F233439B
:1005F0008DE80E000A460B4600F0BEF803B000BDC1
:1006000000F0004230F000400AD0C10D01F56071E9
:10061000C0F3160042EA0151C20840071143704777
:1006200000200146704701F0004330B421F0004142
:1006300050EA010206D00A0DA2F56072C1F313015F
:10064000002A02DC30BC00207047440F44EAC10499
:10065000C100E01830BC00EBC25000F047B830B524
:100660000B46014600202022012409E021FA02F570
:100670009D4205D303FA02F5491B04FA02F528440A
:10068000151EA2F10102F1DC30BD202A04DB203A64
:1006900000FA02F1002070479140C2F1200320FAD5
:1006A00003F3194390407047202A04DB203A21FAD3
:1006B00002F00021704721FA02F3D040C2F120027B
:1006C0009140084319467047202A06DBCB17203A91
:1006D00041FA02F043EAE07306E041FA02F3D04047
:1006E000C2F1200291400843194670470029A8BF73
:1006F0007047401C490008BF20F00100704710B44B
:10070000B0FA80FC00FA0CF050EA010404BF10BCFF
:10071000704749B1CCF1200421FA04F411FA0CF12C
:1007200018BF012121430843A3EB0C01CB1D4FEA65
:1007300000614FEA102042BF002010BC704700EB60
:10074000C35010440029A4BF10BC7047401C49008E
:1007500008BF20F0010010BC704710B5141E73F1E3
:10076000000408DA401C41F1000192185B411A4371
:1007700001D120F0010010BD2DE9F04D92469B46BD
:1007800011B1B1FA81F202E0B0FA80F22032904663
:10079000FFF77BFF04460F4640EA0A0041EA0B01DF
:1007A00053465A46084313D0114653EA010019D064
:1007B000C8F140025046FFF777FF05460E46504607
:1007C00059464246FFF761FF084305D0012004E087
:1007D00020463946BDE8F08D0020054346EAE07624
:1007E0002C4337430A986305E40AA0EB0800002273
:1007F000FD0A44EA47540A3002D500200146E9E7E1
:10080000010510196941DDE9084500196941BDE894
:10081000F04DA2E7C1F30A52C1F3130140F2FF33D6
:1008200041F480119A4202DA00200146704740F2FA
:1008300033439A42A2F2334202DC5242FFF734BF02
:10084000FFF723BF30B5041E71F1000404DB4FF045
:100850000044404264EB0101141E73F1000405DB07
:100860001C464FF00043524263EB04038B4208BF27
:10087000824230BD30B5041E71F1000404DB4FF03C
:100880000044404264EB0101141E73F1000405DBD7
:100890001C464FF00043524263EB0403994208BFE9
:1008A000904230BD00207047064C074D06E0E068DE
:1008B00040F0010394E8070098471034AC42F6D3A7
:1008C000FFF76CFCD0940008F09400082DE9F04D7F
:1008D00000231A461B1A8A4103DB00200146BDE8AB
:1008E000F08DC1F30A52C1F3130141F480154FF0AA
:1008F000000BD10702D100186D41521E002704469B
:1009000040F2FF11384601EB620A3E46804602463D
:1009100000204FF48011FFF7C7FEC2197141BB18C8
:1009200046EB0100B4EB030C75EB000C04D3E41AA6
:1009300065EB000517460E46241908F101006D41CC
:1009400080463428E3DDF91946EB0600091BA8416F
:1009500003D24FF0FF32134601E0002213461BEB97
:10096000070046EB0A51BDE8F04DFFF7F6BE000068
:10097000FEE7000080B540F22C40C2F2000000F01B
:100980009BF980BD80B540F28C40C2F2000000F0BF
:1009900093F980BDD0F800C06FF00F024AF6AB2388
:1009A00052FA8CF2CAF6AA230146A2FB03300009D0
:1009B00005A31B5C40F2FF302CEA00005F2A88BFD1
:1009C0000430C1E916037047000610160006101621
:1009D0008269816AB2F5005F06D06AB9022912D035
:1009E000012914D0D1B90EE0032917D8DFE801F0AE
:1009F000020B020F0120704703293CBF0120704702
:100A00001CBF00207047C06AC0F300607047C06A16
:100A1000A0F1C070B0FA80F0400970470020704724
:100A200080B5D0F800C0D0F808E0DCF80000BEF1D6
:100A3000400F20F48020CCF800000846CCF80430A9
:100A400004BF10460A46CCF80800CCF80C2080BD44
:100A50007047000040F2FC210020C2F20001002299
:100A60008B1888540C32F02A58609860F8D170477F
:100A7000F0B581B040F2CB02C2F20002127840F22F
:100A8000FC24C2F2000482B1221D002505E000BF53
:100A90000135142D02F10C0220D012F8043C8B42D7
:100AA000F6D113688342F3D119E0251D00260122F7
:100AB0002B4609E0132E06F101064FF0000238BF65
:100AC00001220C33142E12D013F8047C8F42F1D182
:100AD0001F688742EED1D2070CD01DE0002500F040
:100AE00033FB05EB450104EB8101886029E000261A
:100AF000D20711D1002700BF15F8042C2AB1013705
:100B0000142F05F10C05F7D106E005F8041C286048
:100B100000F01AFB68603E4600F016FBF1B2490097
:100B200051FA86F104EB810454F8081F54F8042CA0
:100B3000401A904202D2012001B0F0BD00F004FB47
:100B40002060002001B0F0BDEFF3108072B600BF4E
:100B5000FEE700002DE9F04740F29C21C2F20001BF
:100B600001F1200491E80053D1E904A5D1E9066719
:100B70001CCCC96A026243628462C16280E800538D
:100B8000C0E904A5C0E90667BDE8F0872DE9F04794
:100B900040F29C26C2F2000696ED020A044640F29C
:100BA000CC00C2F2000001F051FF40F2CC2596EDDE
:100BB000011AC2F2000540F2DC0085ED020AC2F221
:100BC0000000B0EE410A01F041FF96ED001A40F23C
:100BD000EC0085ED010AC2F20000B0EE410A01F01E
:100BE00035FF85ED000A95E8000705F10C0ED5E903
:100BF0000770243526CD9EE84850616204F10C014F
:100C0000A262E56284E8000781E84850C4E9077001
:100C1000BDE8F08770B5866D044600F095FA94F84B
:100C20003510022925D105462068216C026822F082
:100C300016020260426922F08002426109B9A16C89
:100C400019B1016821F008010160016821F001017A
:100C5000016000BF20680068C0070ED000F074FA81
:100C6000401B0628F6D320206065032084F8350059
:100C70000CE080206065012008E0E06D3F2101FA72
:100C800000F0B060012084F835000020002184F8D5
:100C9000341070BD90F83510022909D1052180F873
:100CA00035100068016821F00101016000207047E3
:100CB0008021416501207047F0B581B004460020D5
:100CC000009040F22400C2F200000268D4E91660ED
:100CD00048F2B51337680821C1F64E3381403942D6
:100CE000A2FB03250CD0226813685B0708D51368A4
:100CF00023F004031360B160616D41F0010161658F
:100D000001218140394208D022685269120604D577
:100D1000B160616D41F00201616504218140394299
:100D200008D022681268920704D5B160616D41F065
:100D30000401616510218140394215D020680268A4
:100D4000120711D5B16002680168520306D4C905C3
:100D500006D4016821F00801016001E0080342D4D3
:100D6000216C09B120468847E16D202000FA01F28C
:100D70003A4244D020680368DB0640D5B26094F85C
:100D800035300268052B1ED122F01602026042693E
:100D900022F080024261226C0AB9A26C1AB1026888
:100DA00022F0080202603F208840B060012084F8F1
:100DB0003500216D0020002984F8340040D0204601
:100DC000884701B0F0BD0168520310D4C90512D4A0
:100DD000016821F010010160012084F83500002035
:100DE00084F8340007E0A16C0029BBD1BCE70803FC
:100DF00001D4616C00E0E16B09B120468847606D69
:100E0000F0B1606DC00717D0052084F83500206868
:100E1000A90A026822F00102026000BF009A0132B2
:100E20008A42009202D80268D207F7D1012084F8E2
:100E30003500002084F83400E16C09B12046884771
:100E400001B0F0BD2DE9F041044600F07DF9C4B1D8
:100E50000546022084F835000020216884F834001B
:100E6000086820F00100086026683068C0070BD0D1
:100E700000F06AF9401B0528F6D90321202203203F
:100E800042E00120BDE8F081306848F23F01CFF236
:100E90001001251D00EA010C2ECDD4E9050E41EA12
:100EA0000C01114319432943D4E90778084340EA68
:100EB0000E01606A3943042841EA080103D1D4E9EC
:100EC0000B231143194331607169042821F0070194
:100ED00041EA00050CD1D4E90A1045EA010538B110
:100EE0002046FFF775FD18B10121402201200BE0DB
:100EF00020467561FFF74EFDE16D3F2202FA01F1D8
:100F00008160002201210020626584F83510BDE86F
:100F1000F0810000B0B5044690F83400012828D0D4
:100F2000012084F83400A56D94F8350001281DD106
:100F3000022084F83500002060652046FFF770FD30
:100F4000E26D3F23206803FA02F2216CAA60026876
:100F500042F01602026019B1016841F00801016017
:100F6000016841F0010101600020B0BD002084F85B
:100F700034000220B0BD0000B0B5044600F0E4F833
:100F8000054640F26000C2F200000078611C18BF04
:100F9000044400BF00F0D8F8401BA042FAD3B0BD13
:100FA0002DE9F04F83B000F13E4202F1FF724FEAAB
:100FB000B22241F200070192C4F2020707224FF069
:100FC000010E00254FF0000A4FF00008B84208BF9C
:100FD000042200920AE000BF08F101080AF1040AA5
:100FE000B8F1100F05F1020500F0A4800C680EFAAC
:100FF00008FB14EA0B09EFD04C6804F0030CACF1C9
:10100000010EBEF1010F11D80322876802FA05F61E
:10101000CA68B743AA403A4382604268C4F30017E3
:1010200022EA0B0207FA08F73A434260BCF1030FC9
:101030001CD0C26803238E6803FA05F7BA4306FA88
:1010400005F73A43BCF1020FC2600FD16FF0030203
:1010500002EA580202440AF01C060F23176A03FA38
:1010600006F40B69A743B3403B43136202680323B2
:101070004F68AB409A4307F00303AB401A4317F4A1
:10108000403F4FF0010E0260A6D0002243F6440319
:101090000292C4F202031A6843F6004442F480420A
:1010A0001A601A68C4F2010402F480420292029AA1
:1010B00028F003024FF6084B2244CFF6FF7B52F88C
:1010C0000B300AF00C070F26BE4023EA060C019BEA
:1010D000009E042B38BF1E4606FA07F747EA0C03AA
:1010E00042F80B30A2684B6842EA090743F60C4C01
:1010F000DE0258BF22EA0907A760C4F2010CDCF83F
:1011000000209E0242EA090758BF22EA0907CCF8EC
:10111000007062689E0342EA090758BF22EA090785
:1011200067602268DB0342EA090358BF22EA090329
:10113000236051E703B0BDE8F08F0000006908406C
:1011400018BF01207047000040F62400C2F20000E2
:1011500000687047F0B581B0B0B3044690F83D0028
:1011600028B9002084F83C00204600F05DFA2420D5
:1011700084F83D002068016821F0010101600168E8
:1011800041F400410160016821F40041016000F078
:1011900005FC48F28041C0F21E0140F6001265686D
:1011A00088424FF00001C0F23D0248F2A16C4FF0BE
:1011B000000338BF01219042C0F2010C38BF012367
:1011C000654538BF0B4613B1012001B0F0BD4DF6A7
:1011D0008361C4F21B31A0FB011221684FEA924ED9
:1011E0004B684FF4967623F03F0343EA92434B60FB
:1011F00044F6D3530F6A0EFB06F6C1F26203A6FB58
:10120000033627F03F03B709654538BF970C7A1CB2
:101210001A430A62CA6948F2A0674CF6FF73C0F22B
:101220000107BD4222EA030C0AD801386A00B0FB6C
:10123000F2F001306FF31F30042898BF04202BE038
:10124000A368A0F1010E9BB119206843BEFBF0F02A
:101250000422013062F31F30000512D09BB1192027
:101260006843BEFBF0F00422013062F31F3011E04E
:1012700005EB4500BEFBF0F001306FF31F300005B9
:10128000ECD1012008E005EB4500BEFBF0F0013099
:101290006FF31F3040F4004040EA0C00C86108685A
:1012A000D4E9072320F0C000104318430860886881
:1012B00048F2FF3204F10C0790438CCF18431043DF
:1012C000A6698860C86820F0FF0038433043C860D2
:1012D000086840F00100086000202021206484F8A4
:1012E0003D10206384F83E0001B0F0BD2DE9F043CD
:1012F00083B01F4616460D460446FFF725FF94F8B7
:101300003D1020290FD102218146C0F21001204654
:1013100001221923CDF8009001F0B8FA18B994F819
:101320003C00012803D1022003B0BDE8F083012175
:10133000226884F83C101368DDE90B080A99DB0782
:1013400003D1136843F001031360136823F40063AF
:101350001360222284F83D20402284F83E2000229F
:10136000226461626085608D294620850020CFF669
:10137000FF70E062204632463B46CDF80080CDF853
:10138000049001F06DF918B1012003B0BDE8F083BD
:10139000208D022806D0012810D000BB002002902A
:1013A000206812E02068016821F480610160016812
:1013B00041F4006101600021029113E0206801689E
:1013C00021F48061016000210291416902918169EB
:1013D00002910299016841F40071016007E0002068
:1013E0000290206841690291806902900298208DE4
:1013F000002877D00427C0F2010716E020464146B6
:101400004A4601F0C3FA0028BED12068616A00692B
:101410000870606A218D01306062481E2085608DF1
:1014200001386085208D00285CD003283ED8022832
:101430001CD00128E2D02046394600224346CDF890
:10144000009001F023FA00289ED12068616A0268AA
:1014500022F48062026000690870606A218D0130A8
:101460006062481E2085608D0138608520463946BF
:1014700000224346CDF8009001F008FA00287FF4DE
:1014800083AF2068616A026842F4007202600069FA
:101490000870606A2268411C6162218D01392185D2
:1014A000618D0139618511694170B2E7204641467D
:1014B0004A4601F06BFA00287FF466AF2068616A43
:1014C00000690870606A228D0130013A60622285ED
:1014D0002168628D013A62854A695207A2D509697D
:1014E000017096E7202084F83D00002084F83E003B
:1014F00084F83C0003B0BDE8F08300002DE9F04320
:1015000083B0994616460F460446FFF71DFE94F831
:101510003D1020290ED102210546C0F210012046BF
:1015200001221923009501F0B1F918B994F83C0093
:10153000012803D1022003B0BDE8F0830121226815
:1015400084F83C101368DDE90B080A99DB0703D126
:10155000136843F001031360136823F400631360FE
:10156000212284F83D20402284F83E20002222647B
:1015700061626085608D394620850020CFF6FF705E
:10158000E062204632464B46CDF80080019501F0DE
:10159000EDF830B3012003B0BDE8F08320464146AA
:1015A0002A4601F023FA28BB606A2168034613F833
:1015B000012B0A61228D6362571E2785638D3F04CC
:1015C000A3F1010363854B6918BF13F0040308D02E
:1015D000437802300B616062901E2085608D013877
:1015E0006085208D0028D9D1204641462A4601F049
:1015F0001DF940B1206C0428CCD12068016841F469
:1016000000710160C6E72068016841F40071016063
:10161000202084F83D00002084F83E0084F83C003F
:1016200003B0BDE8F08300002DE9F04387B0006807
:1016300045F60001C4F2000100268842CDE90566A6
:10164000CDE90366029631D045F20041C4F20001B3
:10165000884264D1002443F630050194C4F20205A7
:10166000286802A940F002002860286800F0020003
:1016700001900198C02002901220CDE903040320BC
:1016800005900420069040F20040C4F20200FFF7EB
:1016900087FC0194286940F400102861286900F44F
:1016A00000100190019807B0BDE8F08343F63007C1
:1016B0000196C4F20207386840F2004440F002008C
:1016C00038603868C4F2020400F00200019001980A
:1016D0004FF480600290042002AD4FF012084FF0EA
:1016E0000309069020462946CDE90386CDF81490DB
:1016F000FFF756FC0820CDE9020809200690204695
:101700002946CDE90469FFF74BFC0196386940F49E
:1017100080003861386900F480000190019807B0BA
:10172000BDE8F08340F2600040F62401C2F2000000
:10173000C2F2000100780A68104408607047000097
:1017400080B543F60040C4F20200016841F4007124
:101750000160016841F480610160016841F48071B9
:101760000160032000F060F80F2000F005F800F0A1
:101770002BF8002080BD0000B0B540F26002C2F23C
:10178000000240F224011278C2F200014FF47A7391
:101790000968B3FBF2F20446B1FBF2F1084600F02F
:1017A000F9FA0F2C4FF001050CD858B94FF0FF3063
:1017B00021460022002500F027F840F26400C2F222
:1017C000000004602846B0BD82B0002043F640010E
:1017D0000190C4F202014A6842F480424A604A68B9
:1017E00002F480420192019A0090086840F0805013
:1017F0000860086800F080500090009802B07047C0
:1018000080B502F03DFB80BD70B514460D4606461E
:1018100002F046FB2946224601F00AFC014630460A
:1018200002F046FB70BD000080B502F053FB80BDA6
:101830002DE9F041002800F08B8043F60808C4F23F
:1018400002080446D8F8F8030D4600F00700884265
:1018500007D288F8F853D8F8F80300F00700A84238
:1018600076D12068810717D5410705D5D8F8001033
:1018700041F4E051C8F80010010705D5D8F8001070
:1018800041F46041C8F80010D8F80010A26821F0B7
:10189000F0011143C8F80010C0073FD1D8F8F80391
:1018A00000F00700A84207D988F8F853D8F8F803E1
:1018B00000F00700A8424BD12068410707D5D8F8AF
:1018C0000010E26821F4E0511143C8F8001000074D
:1018D00008D5D8F80000216920F4604040EAC10032
:1018E000C8F8000000F07EF8D8F8001048F626028C
:1018F000C1F30311C0F60002515C40F2240220FA49
:1019000001F140F26400C2F200000068C2F200027D
:101910001160FFF731FF0020BDE8F0816068811E93
:10192000022907D258F8081C89015CBF0120BDE8D4
:10193000F08110E0012807D158F8081C89035CBF2A
:101940000120BDE8F08106E058F8081C890702D4A0
:101950000120BDE8F081D8F8001021F00301084310
:10196000C8F80000FFF7F0FB064641F2883700BFD9
:10197000D8F80000616800F00C00B0EB810F8DD04A
:10198000FFF7E2FB801BB842F2D90320BDE8F081EB
:1019900040F22400C2F200000068704780B5FFF7F3
:1019A000F7FF43F60801C4F20201096848F636025F
:1019B000C1F38221C0F60002515CC84080BD000026
:1019C00080B5FFF7E5FF43F60801C4F2020109689C
:1019D00048F63602C1F34231C0F60002515CC840FD
:1019E00080BD000010B543F60404C4F20204606830
:1019F00000F00C0008280AD0042819BF42F2004069
:101A0000C0F2F40047F64000C0F27D1010BD20681F
:101A100021682368490247F64001C0F27D1100F0B9
:101A20003F02C3F388105CBF42F20041C0F2F401F0
:101A3000A1FB00010023FEF7C9FB21680222C1F3CC
:101A4000014102EB4101B0FBF1F010BD2DE9F04185
:101A500082B0002800F0A2800446007843F6000619
:101A6000C007C4F2020643D0B06800F00C0004289E
:101A700005D1306880033BD56068C8BB8EE0B06894
:101A800000F00C00082802D170684002F1D46568AB
:101A9000B5F5A02F0AD0B5F5803F0BD0306820F403
:101AA00080303060306820F4802006E0306840F4F8
:101AB00080203060306840F480303060FFF744FBB5
:101AC000002D054611D000BF3068800310D4FFF709
:101AD0003BFB401B6428F7D922E100BFFFF734FB32
:101AE000401B64284FF0030055D830688003F5D4BC
:101AF000207880071AD5B06810F00C0F09D0B068B4
:101B000000F00C00082840F08A807068400200F164
:101B100086803068800702D5E06801283ED13068B1
:101B2000216920F0F80040EAC10030602078000709
:101B300038D4207840074CD4A5695DB3B06800F074
:101B40000C00082840F09E80012D27D07068E169C4
:101B500000F480028A4221D1216A00F03F028A42C9
:101B60001CD147F6C071626A0140B1EB821F15D1EA
:101B7000A26A0023CFF6FF7303EBC23200F44031B8
:101B80006FF30F02914209D1E16A00F07060B0EB8F
:101B9000016F03D1002002B0BDE8F081012002B046
:101BA000BDE8F0816069002840F20000C4F24720DF
:101BB00057D00121C0F8801EFFF7C6FA054600BFC6
:101BC000706F8007B5D4FFF7BFFA401B0228F7D922
:101BD000A6E0306C10F080580AD100200190306CE3
:101BE00040F080503064306C00F0805001900198DB
:101BF00047F20007C4F200073868C00524D43868EB
:101C000040F480703860FFF79FFA05463868C005D9
:101C10001AD4FFF799FA401B0228F7D980E0E06850
:101C2000002851D00020C4F2472001210160FFF7B5
:101C30008BFA0546306880073FF571AFFFF784FAED
:101C4000401B0228F6D96BE0A568052D50D0012D68
:101C500052D0306F20F001003067306F20F0040068
:101C60004DE00021C0F8801EFFF76EFA054600BF68
:101C7000706F80077FF55DAFFFF766FA401B0228A3
:101C8000F6D94DE00027C4F2472700203866FFF759
:101C90005BFA022D05460BD13068800158D5FFF75D
:101CA00053FA401B02284FF00300F5D973E700BF39
:101CB000306880017FF56EAFFFF746FA401B0228BF
:101CC0004FF00300F4D966E70020C4F2472000215A
:101CD0000160FFF739FA0546306880077FF526AFC7
:101CE000FFF732FA401B02284FF00300F4D952E705
:101CF000306F40F004003067306F40F00100306713
:101D0000FFF722FA002D054641F2883714D000BFB4
:101D1000306F800713D4FFF717FA401BB842F7D98A
:101D2000032002B0BDE8F081FFF70EFA401BB84275
:101D30004FF003003FF62FAF306F8007F4D4B8F1B7
:101D4000000F7FF4F9AE306C20F080503064F3E681
:101D500004F11C052FCD08430021CFF6FF7140EAA6
:101D6000821001EBC3316FF30F0140EA05600843B5
:101D7000706001203866FFF7E7F90446306880019B
:101D80003FF508AFFFF7E0F9001B02284FF0030012
:101D9000F4D900E780B501F031FC80BD7047000048
:101DA00070470000002804BF0120704710B50446AA
:101DB00090F83D0028B9002084F83C00204600F04F
:101DC0001FF8022084F83D002068211D01F094FCDA
:101DD000012084F8460084F83E0084F83F0084F82F
:101DE000400084F8410084F8420084F8430084F8FD
:101DF000440084F8450084F83D00002010BD000038
:101E000080B582B0006844F20001C4F2010188424A
:101E100001D002B080BD0020019043F64400C4F21E
:101E200002000168002241F4803101600068002155
:101E300000F48030019001981820FFF7E5FC18208D
:101E4000FFF7DEFC02B080BD10B5044690F83C0000
:101E500001284FF0020008BF10BD012284F83C2089
:101E600084F83D0020684FF6777382689A43826059
:101E70000A684F2A0FDC1F2A22DD202A23D0302AAD
:101E800021D0402A4DD14B68CA68194601F0B6FCF2
:101E9000206840213BE06F2A17DDB2F5005F20D0BB
:101EA000B2F5805F2AD0702A3BD1D1E9012CCB68F2
:101EB000614601F08FFC2068816841F077011AE0EB
:101EC0000AB1102A2DD1114621E0502A18D0602ADB
:101ED00027D14B68CA68194601F0A2FC206860212E
:101EE00015E0D1E9012CCB68614601F073FC206854
:101EF000816841F48041816000200BE0002009E00E
:101F00004B68CA68194601F079FC2068502101F03D
:101F10006DFC0020012184F83D10002184F83C1064
:101F200010BD0120F6E700007047000010B5044620
:101F300000680169890744BFC1685FEA817138D4CC
:101F400020680169490744BFC1685FEA41713CD418
:101F500020680169090744BFC1685FEA017141D483
:101F600020680169C90644BFC1685FEAC16145D400
:101F700020680169C9071CBFC1685FEAC1714AD105
:101F800020680169090644BFC1685FEA016149D45C
:101F900020680169490644BFC1685FEA416148D4CD
:101FA00020680169890644BFC1685FEA816147D43E
:101FB00010BD6FF002010161012121778069800766
:101FC00045D02046FFF7B0FF47E06FF00401016104
:101FD00002212177806910F4407F41D02046FFF72D
:101FE000A3FF43E06FF00801016104212177C0697C
:101FF00080073ED02046FFF797FF40E06FF01001CA
:10200000016108212177C06910F4407F3AD0204651
:10201000FFF78AFF3CE06FF001010161204600F00C
:102020003FF8ADE76FF0800101612046FFF7B6FE93
:10203000AEE76FF040010161204600F033F8AFE7F2
:102040006FF0200101612046FFF7AAFE10BD204677
:1020500000F022F8204600F021F8002020776FE7FA
:10206000204600F019F8204600F018F800202077EC
:102070006EE7204600F010F8204600F00FF8002030
:1020800020776DE7204600F007F8204600F006F8BC
:10209000002020776CE700007047000070470000C8
:1020A0007047000070470000704700007047000054
:1020B000B0B582B0036804461868D9685A6900F060
:1020C0002F05202D01F0200505D125B1204601F076
:1020D0008FFC02B0B0BD5FEA007C1EBF02F0010EB3
:1020E00001F4907212EB0E0248D1226B0840C10637
:1020F0003BD5012A39D10020019018680190586819
:10210000019001985869400640D4A08DE18DE28D80
:10211000002A1CBF401A5FEA004101D102B0B0BDE5
:10212000216851E8031F226821F4907142E80313EB
:10213000002BF5D1216851E8051F226821F001012B
:1021400042E80513002BF5D1202184F83E10002130
:10215000216300BF216851E8031F226821F01001AC
:1021600042E80313002BF5D152E0010656D4400695
:10217000D4D5204601F022FC02B0B0BDC20718BF82
:1021800011F480724FD1420753D459E0A06B01681B
:1021900049688AB2002AC1D0A38D9A42BED2E18595
:1021A000C069B0F5807F30D0206850E8030F216807
:1021B00020F4807041E80302002AF5D1206850E83D
:1021C000050F216820F0010041E80502002AF5D141
:1021D000206850E8050F216820F0400041E8050222
:1021E000002AF5D1202084F83E000020206300BFA3
:1021F000206850E8030F216820F0100041E8030236
:10220000002AF5D1A06BFEF705FDA08DE18D401AE7
:1022100081B22046FFF748FF02B0B0BD204601F072
:1022200005FD02B0B0BD226C42F0010222644207FB
:1022300006D5BEF1000F03D0226C42F002022264E8
:10224000820706D5BEF1000F03D0226C42F00402D3
:102250002264BCF1000F06D55EEA050203D0226CB1
:1022600042F008022264226C002A3FF457AF084073
:10227000800602D5204601F0BBFB20684069216C36
:1022800000F0400001F00801401827D0204601F07E
:102290006DFB2068406940061BD500BF206850E8F0
:1022A000050F216820F0400041E80502002AF5D121
:1022B000A06B70B143F67501C0F600010165FEF731
:1022C000E9FC00283FF42AAFA06B016D884702B0FB
:1022D000B0BD2046FFF7EAFE02B0B0BD2046FFF7D2
:1022E000E5FE0020206402B0B0BD0000002804BF5D
:1022F0000120704710B5044690F83D0028B9002031
:1023000084F83C00204600F021F8242084F83D00A9
:102310002068C16821F40051C160204601F0CAFB69
:102320002068016921F490410161416921F02A018D
:102330004161C16841F40051C16000202021206446
:1023400084F83D1084F83E1010BD00002DE9F043E4
:1023500087B00446006844F20041C4F20001002640
:102360008842CDE90566CDE90366029639D041F28F
:102370000041C4F20101884200F09C8041F200015A
:10238000C4F20101884240F0C680002043F63001CB
:102390000190C4F202014A6942F010024A614A699E
:1023A00002F010020192019A01900A6842F00102C3
:1023B0000A60096801F00101019101994FF4C061BF
:1023C00002910221CDE90310032005900720069019
:1023D0000020C4F2020002A9FEF7E2FD07B0BDE84A
:1023E000F08343F630000196C4F20200016946F220
:1023F000880841F4003101610169C4F2020801F466
:102400000031019101990196016841F001010160DB
:10241000006802A900F00100019001980C200290D0
:102420000220CDE903060320059007200690002036
:10243000C4F20200FEF7B4FD40F22C45C2F20005E2
:102440004FF480704FF000674FF48069C5E9066073
:102450002846C5E90087C5E90266C5E90496C5E9CD
:102460000866FEF7EFFC002818BFFEF76DFBA563BA
:10247000AC6340F28C4508F11800C2F2000540211F
:10248000C5E9000705F10800002280E806024FF4C4
:102490008030C5E908022846C5E90522EA61FEF751
:1024A000D1FC002818BFFEF74FFB6563AC6307B093
:1024B000BDE8F083002043F630010190C4F2020130
:1024C0004A6942F020024A614A6902F02002019200
:1024D000019A01900A6842F001020A60096801F05D
:1024E0000101019101994FF4C05102910221CDE9FE
:1024F000031003200590082006900020C4F202007B
:1025000002A9FEF74DFD472000210022FFF77CF9CC
:102510004720FFF775F907B0BDE8F08310B590F8D4
:102520003E30202B0BD100294FF0010418BF002AA8
:1025300001D1204610BD90F83C30012B01D1022082
:1025400010BD0123002480F83C30046301F020FB1F
:10255000204610BD70470000704700002DE9F04391
:1025600081B0044690F83D0020280BD10E4600298A
:102570004FF0010055D01746002A52D094F83C0085
:10258000012803D1022001B0BDE8F083012084F8C6
:102590003C004FF0000921201D46C4F8409084F80B
:1025A0003D00FEF7D1FDA784E784A1680746B1F599
:1025B000805F07D1206900281CBF30464E46B046D8
:1025C000064601E04FF0000884F83C9007E000BFA9
:1025D00016F8010B21684860E08C0138E084E08C3B
:1025E00080B1204680213A462B4601F049FB80B954
:1025F000002EEDD138F8020B21686FF35F204860A0
:102600000026E9E7204640213A462B4601F038FBF8
:1026100018B1032001B0BDE8F083202084F83D000C
:10262000002001B0BDE8F08370470000FEE7000025
:102630000268516949054FF000010FD56FF48063BE
:1026400053612022016380F83D2080F83E10026C27
:1026500042F00402026480F83C10012108467047F1
:102660002DE9F04782B0044600680E460168DDF8A7
:1026700028A041F4806101600168DDF82C9041F4EC
:1026800080711D461746016020464FF0011100225F
:102690005346CDF8009000F0F9F850B1206800687A
:1026A000C00544BF4FF400702064032002B0BDE8B1
:1026B000F08740F202082068C0F2010806F0FE062A
:1026C00006612046414652464B4600F019F948BB88
:1026D0000020019020684A46416901918069514675
:1026E00001900198204600F081F998B9012D08D099
:1026F0002068390A0161204651464A4600F076F9C1
:1027000040B92068F9B20161204651464A4600F0BE
:102710006DF958B1206C042804D12068016841F497
:1027200000710160012002B0BDE8F087206800223E
:102730000168534641F48071016020464FF0011159
:10274000CDF8009000F0A2F80028A7D1206846F04C
:10275000010101612046414652464B4600F0D0F847
:10276000002818BF012002B0BDE8F0872DE9F04332
:1027700083B0044600680D4601680A9F0B9E41F431
:10278000807199469046016020464FF00111002269
:102790003B46009600F07AF850B120680068C0050A
:1027A00044BF4FF400702064032003B0BDE8F08301
:1027B000206805F0FE0101610221C0F201012046FE
:1027C0003A46334600F09CF818B1012003B0BDE84A
:1027D000F0830020029020683246416902918069AE
:1027E000394602900298204600F000F940B1206C72
:1027F0000428EAD12068016841F400710160E4E72F
:10280000B9F1010F0AD020684FEA18210161204672
:102810003946324600F0EAF80028E8D120685FFA2D
:1028200088F10161002003B0BDE8F083F0B581B00C
:10283000044600684069400724D415460E464F1CE4
:1028400004E000BF2068406940071BD42046FFF722
:10285000EFFEA0B9002FF5D0FEF776FC16B1401BB5
:10286000B042EFD900202021206384F83D1084F885
:102870003E00216C41F02001216484F83C000120DD
:1028800001B0F0BD002001B0F0BD00002DE9F0471F
:10289000DDF820801D469146824601F47F078EB206
:1028A0005C1C00BFDAF80000B7F5803F14BF183099
:1028B000143000683040801BB0FA80F04009484571
:1028C0001BD1002CEED0FEF73FFC1DB1A0EB0800A1
:1028D000A842E7D900202021CAF830008AF83D102C
:1028E0008AF83E00DAF8401041F02001CAF84010A2
:1028F0008AF83C000120BDE8F0870020BDE8F087A1
:102900002DE9F04104460068984643698FB203EA16
:102910000701B94202D10020BDE8F08141694905B3
:1029200012D41646551C00BF35B1FEF70DFC16B388
:10293000A0EB0800B0421ED8206841693940B94276
:10294000E9D041694905EFD5016841F400710160A2
:102950006FF48061416100202021206384F83D10E4
:1029600084F83E00216C41F00401216484F83C00AD
:102970000120BDE8F08100202021206384F83D1073
:1029800084F83E00216C41F02001EEE770B5154659
:102990000E46044620684169490613D44169C906B8
:1029A00012D4FEF7D1FB16B1401BB042F2D9002081
:1029B0002021206384F83D1084F83E00206C40F014
:1029C00020000CE0002070BD6FF01001416100207C
:1029D0002021206384F83D1084F83E00206C2064A0
:1029E000002084F83C00012070BD0000F0B581B0EB
:1029F000044600684069000624D415460E464F1C64
:102A000004E000BF2068406900061BD42046FFF7A1
:102A10000FFEA0B9002FF5D0FEF796FB16B1401BB4
:102A2000B042EFD900202021206384F83D1084F8C3
:102A30003E00216C41F02001216484F83C0001201B
:102A400001B0F0BD002001B0F0BD000090ED001A13
:102A500090ED032A90ED013A31EE021A33EE012A8D
:102A600081EE022A90ED023A30EE430A20EE020A8D
:102A700033EE000AB7EE003A33EE422A21EE021A94
:102A800080ED020A80ED031A7047000040F2FC025C
:102A9000C2F20002136880ED020A642B26DB91ED7E
:102AA000033A91ED044A90ED017A91ED055A90EDCB
:102AB000006A91ED011A23EE003AD0ED041A24EEDB
:102AC000074A91ED022AD0ED030A33EE043A25EECF
:102AD000064A33EE043A21EE211A33EE411A22EE71
:102AE000202A31EE421A80ED051A03E0591C80EDD0
:102AF000050A1160416880ED010A016090ED050A48
:102B0000016980ED040AC1607047000070B582B0B1
:102B100014460D4606460DF1020368203B210622AD
:102B200000F0D6F808B102B070BDBDF80210BDF8D3
:102B3000042009BA090C318011BABDF80620090C2D
:102B4000298011BA090C218002B070BD000000007C
:102B500080B582B00DF1060368204121022200F009
:102B6000B7F8BDF80600C0BAFDF739FD9FED0C0BB4
:102B700053EC102BFDF7C4FC9FED0B0B53EC102B0B
:102B8000FDF7A5FBFDF74FFD9FED090A01EE100AC9
:102B900021EE000ABDEEC00A10EE100A02B080BDA0
:102BA0000000000000407540A4703D0AD743424039
:102BB0000000C842B0B56B20802100F0E1F864202D
:102BC000FEF7DAF96B200021002400F0D9F8032089
:102BD00000F09EF8002000F093F8322000F0BAF8E0
:102BE0003820002100F0CCF86A20002100F0C8F85D
:102BF0002320002100F0C4F83720802100F0C0F825
:102C0000752000F04DF86B200121012500F0B8F887
:102C10006C20002100F0B4F8322000F09BF800F0A6
:102C200011F840F29C2143F27300C2F20001C3F29A
:102C30009B608862002081F82050C1E903444C6108
:102C4000B0BD000070B540F2CC004DF20A71C2F286
:102C50000000C3F623414FF07C5E40F2DC0343F2F8
:102C6000333C40F2EC0241F6B8640026C2F20003A5
:102C7000C3F6337CC2F20002C3F6057449F69A1516
:102C8000C0E9001EC0E902660020C3F69965C3E9E9
:102C9000001CC3E9026682E87000D66070BD0000C7
:102CA00080B584B0024601200DF10F01CDE900107E
:102CB00040F240504FF0FF0CC2F20000D02101233F
:102CC000CDF808C0FEF712FB9DF80F0004B080BDE0
:102CD00080B584B08C4640F240504FF0FF0ECDE9F5
:102CE0000032C2F20000D12162460123CDF808E093
:102CF000FEF7FCFA0120FEF73FF9002004B080BD8A
:102D000080B5C000C1B21C2000F03AF880BD0000C0
:102D100080B5C000C1B21B2000F032F880BD0000B9
:102D2000BB2801D901210FE0612801D902210BE064
:102D3000292801D9032107E0132801D9042103E040
:102D40000621092888BF052180B51A2000F018F84F
:102D500080BD000010B504464FF47A70B4F57A7F58
:102D600028BF0446042C98BF0424B0FBF4F00138BB
:102D7000C1B2192000F004F86008FFF7D1FF10BDC0
:102D800080B584B002468DF80F1001200DF10F01BF
:102D9000CDE9001040F240504FF0FF0CC2F20000AD
:102DA000D0210123CDF808C0FEF7A8FB04B080BDF8
:102DB00080B584B08C4640F240504FF0FF0ECDE914
:102DC0000032C2F20000D02162460123CDF808E0B3
:102DD000FEF794FB002004B080BD000080B582B0F7
:102DE0000020019043F63000C4F202000168002286
:102DF00041F4001101600068002100F4001001900E
:102E000001981020FEF700FD1020FEF7F9FC1120BC
:102E100000210022FEF7F8FC1120FEF7F1FC02B0C1
:102E200080BD000080B586B0002043F630010590DB
:102E3000CDE90300CDE901000090C4F202010A6867
:102E400042F080020A600A6802F080020092009A52
:102E500000900A6842F001020A600A6802F001026A
:102E60000092009A00900A6842F002020A60096823
:102E700001F00201009100994FF48051CDE9011059
:102E80000120039040F20040C4F2020001A9FEF7C5
:102E900087F806B080BD000080B540F2EC4045F2F6
:102EA0000041C2F20000C4F2000148F2A062002317
:102EB0004FF4804CC0F2010280E80E00C0E9033CF0
:102EC000C0E90533C0E90733FEF744F9002818BF0D
:102ED000FDF73AFE80BD000080B540F2405045F657
:102EE0000001C2F20000C4F2000148F2A062002317
:102EF0004FF4804CC0F2010280E80E00C0E9033CB0
:102F0000C0E90533C0E90733FEF724F9002818BFEC
:102F1000FDF71AFE80BD000080B584B040F29450E9
:102F20000021C2F2000044F200024FF6FF7CCDE91E
:102F30000211CDE90011C4F201025323C0E9021CC1
:102F400001618021C0E900238161FEF72BFF002889
:102F500018BFFDF7F9FD4FF48050009040F29450F7
:102F6000C2F200006946FEF76FFF002818BFFDF7A8
:102F7000EBFD04B080BD000080B540F2DC5041F2B2
:102F80000001C2F20000C4F2010100234FF00C0C5A
:102F90004FF4E13280E80E00C0E90333C0E905C315
:102FA000C361FFF7A3F9002818BFFDF7CDFD80BD71
:102FB00080B540F2206044F20041C2F20000C4F249
:102FC000000100234FF00C0C4FF4004E4FF49642DA
:102FD00080E80E00C0E90333C0E905C3C0F81CE077
:102FE000FFF784F9002818BFFDF7AEFD80BD000093
:102FF00080B540F2646041F20041C2F20000C4F2C8
:10300000010100234FF00C0C4FF4165280E80E0023
:10301000C0E90333C0E905C3C361FFF767F90028BE
:1030200018BFFDF791FD80BDFEE70000FEE7000040
:1030300000F0070080F00703042B28BF04234FF0A3
:10304000FF3C03380CFA03F338BF0020994381405A
:103050000CFA00F022EA00000843704780B52DED1D
:103060000C8B40F2206040F28821C2F20000C2F2D4
:1030700000011222FFF752FA9FED269A9FED26AA31
:103080009FED26BA9FED26CA9FED26DA40F23870F2
:10309000B1EE048AC2F20000B0EE480AF0EE490A2E
:1030A000B0EE491AF0EE4A1AB0EE4B2AF0EE4C2A76
:1030B000B0EE4D3A00F044FA40F26C70C2F20000FB
:1030C000B0EE480AF0EE490AB0EE491AF0EE4A1A9C
:1030D000B0EE4B2AF0EE4C2AB0EE4D3A00F030FA4A
:1030E0009FED118A40F21C10C2F20000F3EE040AB8
:1030F000B0EE480A00F03CFA40F20410C2F20000C0
:10310000F2EE000AB0EE480A00F032FABDEC0C8B89
:1031100080BD00BF0000000000004843000048C31D
:1031200000000243000002C3000048422DE9F041C4
:103130002DED028B40F288200022C2F20000002117
:10314000835CFE2B08BF114601320A2AF8D1425C8B
:10315000FE2A40F0AC8008444178042940F0A78062
:10316000017AAA2940F0A3808178C3780279457951
:103170005E1816442E448479F6B2A64240F23076A8
:10318000C2F2000608D141EA0321718042EA05211A
:10319000C079494231803071B6F9000040F26804CC
:1031A00040F21C1500EE100AC2F20004C2F2000543
:1031B000B8EEC00A20462946FFF768FCB6F90210AF
:1031C000BDEEC00A40F21A7710EE100AC2F20007F4
:1031D00000EE101A3880B8EEC00A04F11800294633
:1031E000FFF754FCB7F90020BDEEC00AB8EEC01AD4
:1031F00010EE100A00EE102A9FED2F2A7880307909
:10320000B8EEC00A40F2207640F2B06740F210718A
:1032100020EE020AC2F20006C2F2000740F2980451
:1032200040F20418C2F2000186ED000A97ED020A8E
:10323000C2F20004C2F20008087221EE021A20460F
:10324000414686ED011AFFF721FC9FED1C8A40F2F2
:10325000244580EE081A97ED010AC2F2000504F138
:103260001800414685ED001AFFF710FC80EE088A31
:1032700096ED000AD5ED000A782085ED018A00F070
:103280004BF940F2287496ED011AC2F2000484ED65
:10329000000AB0EE410AF0EE480A792000F03CF94D
:1032A00084ED010A0120BDEC028BBDE8F081002015
:1032B000BDEC028BBDE8F0819A99993D33336542AC
:1032C00080B5FFF733FF40F20011C2F20001087031
:1032D00040F2B060C2F20000B0F91810B0F91A0064
:1032E000494200EE101AF8EEC00A00EE100A40F251
:1032F0002870C2F20000D0EC021AB8EEC01AB7EE85
:10330000000A00F001F880BD70B52DED0C8B40F285
:103310007424C2F200042046B0EE42AAB0EE61BAB4
:10332000B0EE418AB0EE609AB0EE40CA00F08AFA80
:1033300094ED020A9FED741A40F2001080EE01DA5B
:10334000C2F20000017840F23C1640F26C2540F2D7
:1033500044140129C2F20006C2F20005C2F20004C0
:103360004DD140F264212BEE0C0AC2F200012AEE8C
:103370000C1A81ED000A81ED011A0021017040F262
:1033800034109FED622AC2F2000040F2200190ED5D
:10339000004A90ED015AC2F2000120EE023A21EEFD
:1033A000022A098833EE043A32EE052A80ED003A0B
:1033B00080ED012A04EB810090ED272A90ED313A4F
:1033C0009FED53BA9FED53CA30EE420A31EE43AA45
:1033D000F0EE4B0AB0EE4C1A85ED000A85ED01AA1D
:1033E00000F0DEFD85ED000AB0EE4A0AF0EE4B0A71
:1033F000B0EE4C1A00F0D4FD85ED010A04E0002087
:10340000C5E90000C6E9000040F2080029EE4D2A97
:1034100094ED034AB6EE007AC2F2000062EE070AAB
:10342000D0ED011AD6ED002AB1EE490A2DEE046A5C
:103430006DEE200A84ED060A28EE0D3A94ED000A9E
:1034400094ED045A30EE866A61EEA22AD6ED013A76
:1034500036EE226A23EE077A30EE060A2DEE056A72
:103460002DEE077A94ED011A37EE066A21EEA37A63
:1034700036EE076AD0ED000A31EE061A95ED006AC5
:1034800095ED017A20EE866A32EE062A34EE022AA3
:1034900020EE874A33EE043A35EE033ABDEEC34AD6
:1034A00040F2107114EE100AC2F20001BDEEC24AE1
:1034B000488014EE100A0880002084ED078A84ED0D
:1034C000000A84ED011A84ED032A84ED043A00BF5A
:1034D00021184A6CCB6ED1F8BC60D1F8E4500438A6
:1034E0008A6410F124020B67C1F8E850C1F8C0608B
:1034F000EED184ED131A84ED090A84ED313A84ED9E
:10350000272ABDEC0C8B70BD00007A440AD7A33C7F
:10351000000048C30000484380B52DED028BB0EE9B
:10352000602AB0EE408AF8EE080AB0EE081AB0EE53
:10353000420A00F035FD38EE400ABDEC028B80BD3A
:1035400000F1140181EC030A00210162C0E90011BD
:10355000C0E90211016180ED092AC0ED0A1AC0ED2F
:103560000B2A80ED0C3A704770470000704700004E
:1035700010B52DED028B80EE200A9FED1E1AB0EEE5
:10358000608A044681EE000A04F00CF9B5EE408A28
:10359000F1EE10FA2ADD9FED181AB7EE002A20EEA0
:1035A000011A31EE023A20EE000ABFEE005A30EE68
:1035B000033A30EE055A32EE411A80EE034A35EEF8
:1035C000055A30EE010A85EE035A80EE030A4FF0E9
:1035D0007E50206034EE041A84ED034A84ED041A10
:1035E00084ED015A84ED020A84ED054ABDEC028B9C
:1035F00010BD00BFF90F4940DE04B53FB0B501383A
:103600000024B4EB106F1CBF0120B0BD4EF21005BA
:10361000CEF2000568604FF0FF300F2100F048FC4B
:103620000720AC6028602046B0BD000080B5FEF7E2
:1036300079F880BD70B592B006AC20463021FCF719
:103640002EFE002543F640000595CDE90355CDE952
:1036500001550095C4F202000168022641F0805134
:103660000160006800F080500090009847F2000070
:103670000095C4F20000016866F38F3101600068B4
:1036800000F4404000900098012006904FF48030F4
:1036900007904FF480000D9019200E90A820CDE9DE
:1036A0000F060420119020460C96FEF7CFF978B94A
:1036B0000F20CDE901064FF48050CDE9040501A8A3
:1036C00002210395FEF7B4F8002804BF12B070BDC4
:1036D000FDF73AFA4EF68850CEF20000016841F448
:1036E000700101607047000080B540F29450C2F252
:1036F0000000FEF71BFC80BD10B540F2FF7E0368A2
:10370000C4F2000E40F2000C7045C4F2010C0ADD58
:1037100040F60002C4F2000290420DD060450BD08A
:1037200040F6004204E0B0F1804F05D040F2004284
:10373000C4F20002904203D14A6823F0700313439D
:103740004FF6FF72C4F20002904209DC704512DCB1
:10375000B0F1804F26D040F20042C4F200021FE0D8
:1037600044F2FF32C4F2010290420FDC604519D0EE
:1037700044F2000212E040F60002C4F2000290425D
:1037800010D040F60042C4F2000209E044F6000204
:10379000C4F20102904205D044F20042C4F2010298
:1037A000904203D1CA6823F44073134323F080028C
:1037B0004B69D1F800E08C681A4360450260C4622E
:1037C000C0F828E002D10969CCF83010012141612C
:1037D00010BD0000D0F808C011432CF47F4C41EA22
:1037E000032141EA0C01816070470000826822F0E9
:1037F0007002114341F0070181607047D0F820C08A
:10380000036A23F001030362836923F0F00343EAB0
:1038100002122CF00A031943826101627047000012
:10382000036A23F0100303628369D0F820C023F4F5
:10383000704343EA02322CF0A00343EA0111826193
:103840000162704710B5044640682060FDF77CFCBB
:1038500000EE100A94ED001AB8EE400A30EE411A5C
:1038600084ED010ABDEEC10A10EE100A84ED021AC1
:10387000A08110BD80B5806B0021C185C184FEF799
:1038800015FC80BD10B5846B2068406994F83D102C
:10389000212907D110F0800004D00020E0842046C8
:1038A00000F098F82068406994F83E10222907D16A
:1038B00010F0400004D00020E085204600F056F8CB
:1038C000206C40F0100020642046FEF7EFFB10BD96
:1038D00080B50168806B0968C9052FD40021C185B6
:1038E000016851E8031F026821F4807142E8031364
:1038F000002BF5D1016851E8051F026821F0010194
:1039000042E80513002BF5D1016851E8051F026854
:1039100021F0400142E80513002BF5D1202180F869
:103920003E10016B012909D1016851E8031F0268AB
:1039300021F0100142E80313002BF5D1016B01299E
:1039400003D1818DFEF7B0FB80BDFEF703FE80BD85
:1039500080B5806B016B012904D1818D4908FEF788
:10396000A3FB80BDFEF7F8FD80BD0000016851E8B3
:10397000031F026821F4907142E80313002BF5D174
:10398000016851E8051F026821F0010142E80513B2
:10399000002BF5D1016B01290AD100BF016851E864
:1039A000031F026821F0100142E80313002BF5D138
:1039B000202180F83E1000210163704780B5016826
:1039C000CA6822F04002CA60202180F83D10FEF74C
:1039D0002BFE80BD016851E8031F026821F0C00181
:1039E00042E80313002BF5D1202180F83D107047E9
:1039F00080B582B090F83E1022291ED18268B2F5BF
:103A0000805F02D10169002948D0816AB2F5805FE8
:103A100007D00AB9026922B10268526802F07F0237
:103A200001E0026852680A700121826A11448162D1
:103A3000C18D01390A04C18501D002B080BD016881
:103A4000CA6822F02002CA60CA6822F48072CA6082
:103A50004A6922F001024A61202180F83E10016B80
:103A6000012923D100210163016851E8031F026885
:103A700021F0100142E80313002BF5D101680A6818
:103A8000D20606D5002201920A6801924968019186
:103A90000199818DFEF708FB02B080BD0168826A42
:103AA00049686FF35F2111800221BEE7FEF752FDE6
:103AB00002B080BD10B504460068D4E902C2236993
:103AC000016921F4405111430161626943EA0C012B
:103AD000E3691143C268194349F20C639A431143E5
:103AE000C1604169A26921F4407141F20043114370
:103AF00040F48062C4F201039A42416102D1FDF7B1
:103B00005FFF01E0FDF74AFFE16963681922B1F543
:103B1000004FA0FB02011CD15A00DB0FFCF756FB43
:103B200048F21F51C5F2EB11A0FB01235A096FF0B7
:103B3000630302FB0300322303EBC000A0FB01017F
:103B40004FF4F87000EA111000EB0210C1F34211BB
:103B50001AE09A009B0FFCF739FB48F21F51C5F29F
:103B6000EB11A0FB01235A096FF0630302FB030072
:103B7000322303EB0010A0FB0101F02000EA5110FA
:103B800000EB0210C1F3431122680843906010BD9E
:103B900070B582B0134600260446816283850664B0
:103BA000222084F83E000A462168A06B43F6D10C1F
:103BB00043F6511E43F68505C0F6000CC0F6000E14
:103BC000C0F600050431C0E90FCEC0E91356FDF779
:103BD000A1F901962068016801914068019001985F
:103BE000206984F83C6048B1206850E8030F2168E0
:103BF00040F4807041E80302002AF5D1206850E8C3
:103C0000050F216840F0010041E80502002AF5D1C6
:103C1000206850E8050F216840F0400041E80502A7
:103C2000002AF5D1002002B070BD000090F83D10D0
:103C3000212923D18168B1F5805F01D1016931B1BA
:103C4000016A02684B1C03620978516007E0016A4F
:103C5000036831F8022B6FF35F225A600162C18C56
:103C600001390A04C18418BF70470068C16821F097
:103C70008001C160C16841F04001C160704700002F
:103C80002DE9F0410446006800680840884202D1EE
:103C90000020BDE8F0811D460E4690465F1C04E002
:103CA000206800683040B042F2D0002FF8D02DB12B
:103CB000FDF74AFAA0EB0800A842F1D9206850E8C5
:103CC000030F216820F4D07041E80302002AF5D1E7
:103CD000206850E8050F216820F0010041E8050246
:103CE000002AF5D1202084F83D0084F83E00002011
:103CF00084F83C000320BDE8F081000080B540F26C
:103D00006460C2F20000FEF7D3F980BD40F2CB0040
:103D1000C2F200000178012909D140F2CA01C2F2C1
:103D200000010A78AAB1012A15D1022212E040F25C
:103D3000C800C2F20000017840F2C902C2F20002DB
:103D40000529117002BF0021017070470131017017
:103D5000704701220A700978022918BF704740F2A3
:103D6000C903C2F200031A780021052A1EBF511CA4
:103D70001970114640F2C8024FF0000CC2F2000266
:103D8000117080F800C0704780B5FDF7DDF940F292
:103D9000AC61C2F20001086080BD000010B540F2C5
:103DA0009C24C2F2000494F82000012807D0E0B956
:103DB000FDF7CAF96062012084F8200015E0FDF7E4
:103DC000C3F9616A401A49F6404188420DD304F1B3
:103DD0000800211D224601F06BF994E8070004F168
:103DE0000C0307C3022084F8200004F10800211D01
:103DF000224601F05DF994ED050A9FED1F1AB1EE20
:103E0000402AB4EE410AF1EE10FAC8BFB0EE420A01
:103E100094ED024A94ED013A34EE000A94ED044A1E
:103E200084ED020AB1EE440AB4EE414A94ED002A50
:103E300094ED035AF1EE10FAC8BFB0EE440A33EE27
:103E4000000A84ED010AB1EE450AB4EE415AF1EEE2
:103E500010FAC8BFB0EE450A32EE000A04F11800AD
:103E600004F11A0104F11C0284ED000AFEF74EFE73
:103E7000FEF76EFEE08310BD00008025FEE7000027
:103E8000002848BF704700F01F01012202FA01F12B
:103E90004EF200124009CEF2000242F820107047A4
:103EA0004EF60C50CEF200000068C0F302207047BE
:103EB0004EF6145300F00F02CEF2000309011A442B
:103EC00000F16043B0F1FF3FC8BF03F564421170D9
:103ED000704700004EF60C51CEF200010A684FF612
:103EE000FF031A4060F30A2242F0806040F0FD7048
:103EF0000860704770B584B001AE054630460C4688
:103F000000F076FD9FED220A9FED242A9FED213AD5
:103F10009FED214A0021BFEE001A4FF0010C002056
:103F200008E000BF0CFA01F210430131032906F149
:103F300004062AD055F8213054F821209B1A48BF96
:103F40005B4296ED006A05EE103AB8EEC55AB5EE42
:103F5000406AF1EE10FA25EE005A0BD085EE065AB3
:103F600035EE015AB0EEC55AB4EE425AF1EE10FAEF
:103F7000DBDDD7E7B4EE435AF1EE10FAD2DBB4EE54
:103F8000445AF1EE10FAD0DDCCE704B070BD00BFAA
:103F9000000080379A99993E3333733F295C0F3E76
:103FA000B4EE410AF1EE10FAB4EE600AC8BFB0EE0A
:103FB000410AF1EE10FAB8BFB0EE600A7047000097
:103FC000B0B504464078E578C0070BD040F2EC303D
:103FD000C2F2000002682AB105F00700411CC5F3D7
:103FE000C20090476078000709D540F2F030C2F275
:103FF00000000168002908BFB0BDA8098847B0BD0E
:1040000080B582B000280EBF4FF0A33042F62000EA
:10401000C3F63000019001AA40F69E20042101F071
:10402000A1FF01F013FC02B080BD00002DE9F041BA
:1040300084B004464CF60220C0F6E3100DF10605EC
:10404000CDF80600682004212A4601F08BFFA3204A
:104050006FF03F018DF8060014F0400608BF6FF0C6
:104060005C016FF037026FF03D0308BF6FF05C0238
:1040700008BF6FF05C038DF807106FF03B018DF8FF
:1040800008208DF8093014F4C07708BF6FF05C0188
:104090006FF033026FF0390308BF6FF05C0208BFA6
:1040A0006FF05C038DF80A104AF2A3318DF80B20F3
:1040B000ADF80D108DF80F0040F6A7200A212A4612
:1040C0008DF80C3001F04EFF202014F0030808BFDB
:1040D0006FF027008DF8060040F6B62001212A4631
:1040E00001F040FFC4F3401000F08CF8CFB1E005C0
:1040F00004D49020B4218022B02303E09B20B62179
:104100008B22B2238DF807208DF808108DF8090056
:104110000DF1060240F6A22004218DF8063001F0D0
:1041200021FFE0070AD1D8208DF806000DF1060224
:104130004FF40B60012101F015FF27E0F8208DF806
:1041400006000DF106024FF40B60012101F00AFF99
:104150000720FA2100F06CFB072000F035FB01205E
:1041600000F052FB642000F007FC4FF4FA7000F0FE
:1041700019FC4EF20930C0F2CA20C82100F0E2FA60
:10418000282000F0F5FA0A2000F008FBA0076FF0E5
:10419000260058BF6FF027008DF806000DF10602CB
:1041A00040F23D70012101F0DDFEC4F3800000F01B
:1041B0004FF8C4F30010FFF723FF40F2F83144F04A
:1041C0000800C2F20001088001F040FB002E18BF79
:1041D0000626002F40F2FE3018BF0636C2F200005D
:1041E00014F0140F067002D0017810310170B8F18C
:1041F000000F02D0017804310170002004B0BDE846
:10420000F081000080B584B060B15D208DF80C00B5
:1042100049F6B400C3F20D5002904AF6B820C8F631
:10422000B3500BE0C7208DF80C0048F6B000CCF27C
:10423000C35002904AF6B820CAF6AA20019001AAFB
:104240004FF49760092101F08DFE04B080BD00009D
:1042500080B582B000280EBF4FF08B304CF2C020EA
:10426000CCF2C460019001AA40F69820042101F02C
:1042700079FE01F0EBFA02B080BD000080B548F68F
:104280003E01C0F6000140F6F6304FF48062C823CC
:1042900001F08CF980BD00002DE9F04F89B0144683
:1042A000DDE9129288460021A9F8001040F2FE31A3
:1042B000C2F2000109780DF1040B82460846594606
:1042C0001D4601F03DFA20B14FF0FF3009B0BDE8C6
:1042D000F08F40F2F837C2F20007388810F0140F60
:1042E0004DD09DF805109DF804009DF806200904A6
:1042F0009DF8073041EA006040EA0221194421603C
:104300009DF809109DF80820090441EA02619DF812
:104310000A209DF80B3041EA02221A4462609DF89F
:104320000D209DF80C30120442EA03629DF80E3015
:1043300000959DF80F5042EA03232B44A3609DF89B
:1043400011309DF810501B0410FB30F043EA056358
:104350009DF8125011FB31009DF8136012FB3200E2
:1043600043EA052513FB33002E4400F17145B5F1F6
:10437000007FE66005D901F069FA002005E0002021
:104380000AE0B9F8000040F48070B5F1007FA9F8A8
:10439000000099D8009D102039884A0629D540F0A0
:1043A00001031BF800201BF8033040F0030643EA2A
:1043B000022240F002031BF803301BF80660A8F845
:1043C000002046EA032240F0040340F005061BF8F3
:1043D00003301BF80660A8F8022046EA0322A8F87A
:1043E0000420B9F8002040F0060042F00802A9F8C5
:1043F000002011F4C07F18D03BF800200BEB000325
:1044000012BA5F88120CAAF800203ABA9B88120CE4
:10441000AAF802201ABA120CAAF80420B9F800204F
:10442000063042F07002A9F80020890702D05844F3
:10443000FFF7C6FD284600F00DFE002009B0BDE8DC
:10444000F08F0000B0B584B004460DF1020000F01A
:1044500059FF40F2F431C2F200010988BDF80200B0
:1044600001F003024B0754F822204FF00C034FEAEF
:10447000C03C48BF524203EA51038806E358C1F3E7
:10448000811048BF5B4254F82000C90548BF404234
:104490008CFB00018CFB02E2800F8CFB035440EA92
:1044A000810C900D8DF80400900B8DF8050090099B
:1044B0008DF80600A00D8DF80800A00B8DF80900FE
:1044C000A0098DF80A00880D8DF80C00880B4FEAC2
:1044D0009E73AD0F8DF80D00880943EA820345EA0B
:1044E00084058DF80E0001AA4FF425700C218DF87B
:1044F00007308DF80B508DF80FC001F033FD04B07C
:10450000B0BD000010B586B004464AF6BB70CDF6CB
:10451000DF7005904FF2AA10CDF6DF7004904FF2D5
:10452000FE20CCF2AB40C82C039015D8C820B0FBBD
:10453000F4F001AA013800BA000CADF8040040F212
:104540001620022101F00EFD30B903AA40F6C12069
:104550000C2101F007FD18B14FF0FF3006B010BD7F
:1045600040F2FC30C2F200000480002006B010BD12
:1045700070B582B040F2F431C2F2000109884EF207
:10458000093401F0030250F822200C264B0748BFE3
:104590005242C0F2CA2406EA5106C1F3811582FBD9
:1045A0000423865950F82550880648BF7642C8052E
:1045B0004FEA935148BF6D42900F8DF80410990B4C
:1045C00040EA83008DF8051099098DF806108DF8E2
:1045D000070001AA4FF47470042101F0C3FC68B90C
:1045E00086FB0401800F40EA810000BA019001AA15
:1045F0004FF47570042101F0B5FC18B14FF0FF3095
:1046000002B070BD85FB0401800F40EA8100010EFD
:104610008DF80410010C8DF80510010A8DF80610B4
:104620008DF8070001AA4FF47670042101F09AFC7E
:1046300002B070BDB0B582B0054648F62301C0F6A1
:104640000001C5F3C10300F00300CC5C0A5C8DF8E7
:10465000054048F620048DF80420C5F38112C0F609
:104660000004895C205C8DF806108DF80000E05C89
:10467000A15C8DF801008DF8021001AA40F22640DD
:10468000032101F06FFCA0BB6A4640F22A400321DF
:1046900001F068FC68BB76208DF8060045F23660B4
:1046A000ADF8040044F22660ADF80000662069070A
:1046B0008DF8020021D4A8062DD4E8050BD59DF86D
:1046C00006009DF8021040F001008DF8060041F050
:1046D00001008DF8020001AA4FF48860032101F067
:1046E00041FC30B96A4640F23140032101F03AFC06
:1046F00000B34FF0FF3002B0B0BD9DF804009DF84C
:10470000001040F001008DF8040041F001008DF828
:104710000000A806D1D59DF805009DF8011040F0D5
:1047200001008DF8050041F001008DF80100E80559
:10473000C5D4D0E740F2F430C2F20000058000207A
:1047400002B0B0BD80B582B044F6D352C1F262026D
:1047500050FB02F0821102EBD070484300BA019086
:1047600001AA4FF4AE70042101F0FCFB02B080BD41
:1047700080B582B04CF6CD41CCF6CC41A0FB010116
:10478000880840BAADF806000DF106024FF4AD708E
:10479000022101F0E7FB02B080BD000080B582B0CD
:1047A0004CF6CD41CCF6CC41A0FB0101880840BAC3
:1047B000ADF806000DF106024FF4AC70022101F0D5
:1047C000D1FB02B080BD000080B582B000F00102D4
:1047D0005242410802F0300261F3820261F3C302E7
:1047E00040078DF8072005D59DF8070040F003002D
:1047F0008DF807000DF107024FF4A470012101F0BC
:10480000B1FB02B080BD000080B582B00428014633
:1048100028BF0421002818BF481E8DF807000DF19D
:10482000070240F24F10012101F09CFB02B080BD55
:10483000B0B582B00446B1F5C86F4FF0FF3045D82F
:104840000D4614F0070141D00DF1030000F03EFDCC
:104850009DF8030002384FEA7000072865D8C1B2FE
:104860008B2222FA01F1C9075FD000EE105A9FEDAA
:10487000311AB8EE400A80EE010A2FA101EB800147
:1048800091ED001A34A101EB800090ED002A20EE9A
:10489000011A20EE020ABDEEC00A10EE100ABDEEAB
:1048A000C10A10EE101A0A0A8DF804208DF80510BE
:1048B000010A01AA951C8DF80610E1078DF8070082
:1048C00006D1A00713D4600720D4002002B0B0BDE9
:1048D00001AA4FF4EA70022101F044FB28BB4FF417
:1048E000927002212A4601F03DFBF0B9E9E701AAE6
:1048F0004FF4EC70022101F035FBB0B94FF4947025
:1049000002212A4601F02EFB78B9DCE701AA4FF418
:10491000EE70022101F026FB38B94FF496700221A7
:104920002A4601F01FFB0028CFD04FF0FF3002B025
:10493000B0BD00BF000048430000804600000046B4
:104940000000804600008045000080460000804650
:104950000000804600000045000040460000C045C1
:104960000000404600004045000040460000404630
:10497000000040460000C04480B582B04CF6CD41F6
:10498000CCF6CC41A0FB0101880840BAADF8060086
:104990000DF106024FF4EF70022101F0E3FA02B0CC
:1049A00080BD000080B582B04CF6CD41CCF6CC4144
:1049B000A0FB0101880840BAADF806000DF106021F
:1049C0004FF4ED70022101F0CDFA02B080BD00007D
:1049D00080B582B0019040F2DC50C2F2000001A923
:1049E00001224FF6FF73FDF7B9FD019802B080BDBB
:1049F000B0B582B040F23401C2F200014968044609
:104A0000097801AB08460D210422FEF761F908B1CF
:104A100002B0B0BD9DF804009DF807304FF01C0EA9
:104A20009DF805100EEAD000C3F3011210449DF862
:104A300006C08DF801000EEAD100C3F381010844DD
:104A40008DF802000EEADC0003F0030141F27B4C1A
:104A50009FED160A9FED161A08444FF0000E0DF157
:104A60000101C3F6AE6C00238DF8030005E000BF22
:104A7000C2F800E00133032BCAD0C85C04EB830208
:104A80000028F5D0C85CC2F800C001380506C8543B
:104A9000F0D0C85CB0EE402A0138050622EE012AAB
:104AA000FAD182ED002A01F803E0E3E77B14AE3E81
:104AB0001D5A843F2DE9F04383B040F23407054688
:104AC0000120C2F200070C46ADF80000D7E9001043
:104AD00016460078897C6B460222FEF769F910B110
:104AE0004FF0FF378CE1C820FCF746FA00208DF824
:104AF0000000D7E900106B460078C97B0122FEF761
:104B000057F910B14FF0FF377AE1D7E900106B4643
:104B1000007849790122FEF74BF910B14FF0FF37C9
:104B20006EE1D7E900106B460078897C0122FEF720
:104B30003FF910B14FF0FF3762E1D7E900106B4643
:104B40000078C97D0122FEF733F910B14FF0FF372D
:104B500056E1D7E900106B46007809790122FEF78B
:104B600027F910B14FF0FF374AE10C208DF8000013
:104B7000D7E900106B46007809790122FEF718F991
:104B800010B14FF0FF373BE10F20FCF7F5F9B86AA1
:104B90003968407A7A688DF80000107889786B4619
:104BA0000122FEF705F910B14FF0FF3728E1B86A8E
:104BB0003968007A7A688DF80000107849786B4679
:104BC0000122FEF7F5F810B14FF0FF3718E1B86A8F
:104BD000D7E90012807A002E18BF40F0E0008DF86F
:104BE0000000107889796B460122FEF7E1F810B1D8
:104BF0004FF0FF3704E126B1B86AC07A60F01F00B9
:104C000000E018208DF80000D7E900106B4600780E
:104C1000C9790122FEF7CCF810B14FF0FF37EFE071
:104C200016B1C820FCF7A8F940208DF80000D7E99C
:104C300000106B46007809790122FEF7B9F810B12F
:104C40004FF0FF37DCE078208DF80000D7E9001046
:104C50006B46007849790122FEF7AAF810B14FF0AF
:104C6000FF37CDE03220FCF787F900208DF80000F7
:104C7000D7E900106B46007849790122FEF798F8D1
:104C800010B14FF0FF37BBE0D7E900106B4600785A
:104C9000897A0222FEF71CF810B14FF0FF37AFE01F
:104CA000BDF800004AF6AB2100BA000CCAF6AA21F2
:104CB000A0FB0101C1F3C7090020B9F1000FC5E94C
:104CC0000000A860C4E90000A0603ED00026E846CD
:104CD000D7E900100C220078C97A4346FDF7F8FFA7
:104CE000002840F08B80BDF80000BDF80210BDF830
:104CF000042090FA80FCD4E9003009BA92FA82FECE
:104D0000A26803EB2C4300EB214002EB2E41C4E9E7
:104D10000030BDF80600A160BDF8081090FA80FCD4
:104D2000BDF80A20D5E9003009BA92FA82FEAA68D5
:104D300003EB2C4300EB21400136C5E90030F0B213
:104D400002EB2E418145A960C2D895E8410183223A
:104D5000C117090441EA1041000400230027FBF7B2
:104D600066FA4A460023FBF762FA2860F01700044F
:104D700040EA1641300483220023FBF758FA4A46E2
:104D80000023FBF754FA68604FEAE870000440EA39
:104D900018414FEA084083220023FBF748FA4A46AD
:104DA0000023FBF744FAA860D4E90006A568C11700
:104DB000490141EAD06140014A460023FBF737FA36
:104DC0002060F017400140EAD66170014A46002396
:104DD000FBF72DFA6060E817400140EAD5616801F1
:104DE0004A460023FBF723FA4FF480310028C4BF62
:104DF0000021CFF6FF710844A06001E04FF0FF37BB
:104E0000384603B0BDE8F08370B582B040F234029A
:104E1000C2F2000252680C4611780DF105060546F3
:104E200008460D2103223346FDF752FF10B107203B
:104E300002B070BD9DF805009DF806109DF8072092
:104E400000F01F008DF8050001F01F008DF806002E
:104E500002F01F009FED2C0A9FED2E2A9FED2C5A89
:104E60009FED2A6A8DF807004FF0000CB2EE041A8D
:104E70004FF0010EB3EE093ABFEE004A00230020C6
:104E800006E000BF0EFA03F108430133032B38D0CC
:104E900055F8231054F82320891A48BF494207EED9
:104EA000101AF15CB8EEC77A27EE007AF1B1F15C26
:104EB000F0EE430A0139F15409060AD0F15CF0EE34
:104EC000430A00BF01390A0660EE860AFAD106F8E5
:104ED00003C087EE207A37EE047AB0EEC77AB4EEDC
:104EE000457AF1EE10FAD0DDCCE700BFB4EE417A9E
:104EF000F1EE10FAC6DBB4EE427AF1EE10FAC4DD40
:104F0000C0E702B070BD00BF0000803754E3853FAA
:104F1000295C0F3E0000D242B0B5044600F00EF806
:104F20000546E01C00F00AF845EAC005A01D00F0A7
:104F300005F845EA801080B2B0BD000090F900107D
:104F40000029C4BF0020704744BF0420704790F977
:104F500001100029C4BF0120704744BF05207047DD
:104F600090F902000028C4BF022070474FF00600ED
:104F700008BF072070470000FBF76CFDFDF71AFE25
:104F800000F05CF9FEF76AF801F06EFA40F2C8042E
:104F9000C2F2000401E0FEF7B9FEFEF7F5FE20784C
:104FA0000528F8D8DFE800F0040404070F0400BF68
:104FB000FEF7EAFEEFE7FEF7E7FE442001F07CFB98
:104FC000FEF7A4FEE9E7FEF7DFFE552001F0B8FB8F
:104FD000FEF79CFEE1E7000040F20044C4F2020448
:104FE000FCF7AEFBFEF726FBFDF71CFFFDF7F6FE18
:104FF000FDF7DEFFFDF7C0FFFDF76EFFFDF78CFF4D
:10500000FDF74AFFFDF7F4FF10A500BF20464FF45F
:105010008051FCF793F80028F8D1C820FBF7ACFFCB
:1050200020464FF48051FCF789F80028EED100BFEC
:1050300020464FF48051FCF781F80028F8D028462C
:1050400003F07AFAFFF798FFE0E700BF737461722C
:10505000740D000070470000F0B581B040F23405D7
:10506000C2F2000595F8241019B10024204601B0C1
:10507000F0BDA97AC1B100F0FE07287D3940CC1BF4
:105080002E7C297418BF4FF0FF34384318BF01201D
:1050900001F002F8002FE9D000F0D8FB00281CBF77
:1050A0002E744FF0FF34E1E74FF0FF34DEE70000ED
:1050B0002DE9F0412DED0E8B8CB004460DF11E0054
:1050C00090460D460DF11D0700900DF1260008A930
:1050D00003AA0BAB0197FFF7DFF808B10120A0E0AE
:1050E000BDF81E00C00501D402209AE09DED030A20
:1050F0009DED041A9FED504A9DED052AB8EEC00AB9
:105100009DED063A20EE049AB8EEC10A20EE04AAFC
:10511000B8EEC20A20EE04BAB8EEC30A20EE04CA02
:10512000B8EE000A2AEE00DA39EE098A2DEE0C0AF2
:1051300028EE0B1A31EE000A10EE100AFBF760FAA7
:1051400041EC100B01F0E0FB51EC100B9FED380B24
:1051500056EC107B3A463346FBF760F9FBF763FAEF
:105160003BEE0BEA2EEE0C0A28EE0A1A31EE000A8C
:10517000206010EE100AFBF743FA2AEE0D0A2BEE20
:105180000E1A30EE410AB7EE001A30EE010A41EC79
:10519000180B10EE100AFBF733FA41EC110BB0EECE
:1051A000480AF0EE680A01F0CBFE51EC100B3A46CB
:1051B0003346FBF733F9FBF736FA2AEE0B0A29EEF2
:1051C0000C1A30EE010A30EE000A286010EE100AC8
:1051D000FBF716FA29EE090A2AEE0A1A30EE010A3E
:1051E0002BEE0B1A30EE410A2CEE0C1A30EE410A6F
:1051F00041EC180B10EE100AFBF702FA41EC110B10
:10520000B0EE480AF0EE680A01F09AFE51EC100B7D
:105210003A463346FBF702F9FBF705FAC8F80000F7
:1052200000200CB0BDEC0E8BBDE8F08100BF00BFCC
:105230006666666666A64C400000803080B500F069
:10524000F3F800281CBF0A2080BD782000F02CFE57
:1052500000061CBF012080BD7820FFF7FDFE000680
:105260001CBF022080BD322000F0D8FD00061CBF0C
:10527000032080BDFFF702F800061CBF042080BD9C
:1052800040F22900C2F20000FFF746FEFFF7D2F914
:1052900000061CBF052080BD40F27310FEF7C6FE5D
:1052A00000061CBF062080BD3220FFF72BF9000648
:1052B0001CBF072080BD00F0A7FE012000F0BCFC51
:1052C000C0B2002818BF092080BD000040F23401A0
:1052D000C2F200014A7A032A84BF4FF0FF307047C0
:1052E00040F20243D200C1F2080323FA02F2027034
:1052F000C97C002904BF0020704701784900017073
:105300000020704740F2340CC2F2000C9CF80930C7
:10531000032B84BF4FF0FF3070474FF48042DFE82B
:1053200003F00A02050841F69C7204E04FF4805233
:1053300001E04FF400629CF813100280002904BFC2
:105340000020704701884908018000207047000054
:10535000014640F23400C2F20000027C00200A70D4
:105360007047000040F23401C2F200010B7A01469E
:10537000032B07D8FA22DFE803F00C02070A4FF4E8
:10538000FA7206E0002204E04FF47A7201E04FF472
:10539000FA6200200A80704740F23401C2F2000134
:1053A00091F90810032984BF4FF0FF30704703A222
:1053B00052F8211001600020704700BF0000034335
:1053C00000008342333303423333834140F23401DC
:1053D000C2F20001C97A4B1E052B014607D8BC2238
:1053E000DFE803F00E0307090B0D622208E000223C
:1053F00006E02A2204E0142202E00A2200E005224C
:1054000000200A807047000040F23401C2F200011F
:1054100091F82420002A1CBF4FF0FF307047C98943
:105420000180002070470000B0B582B040F2340522
:105430008020C2F200058DF80200D5E900100DF1C0
:1054400002030078897C0122FDF7B2FC10B14FF015
:10545000FF3497E06420FBF78FFD00208DF80200F9
:10546000D5E900100DF102030078897C0122FDF7D7
:105470009FFC10B14FF0FF3484E0D5E900100DF12E
:1054800002030078897D0622FDF722FC10B14FF05F
:10549000FF3477E09DF807109DF803009DF8052084
:1054A000890062F3410100F00100084410F0070098
:1054B00003D0022822D1002021E0D5E900100DF10F
:1054C00002030078C9780122FDF702FC10B14FF009
:1054D000FF3457E09DF8020000F00F0004280AD0C6
:1054E0000028E8D149F25B40C0F6000003F024F840
:1054F0004FF0FF3446E025A003F01EF80120E874C9
:105500004FF6FF70E881FF202874A87401202873EB
:1055100085F8220000204FF0FF34C5E90500E8615E
:105520002884C5F8230085F827004FF4FA60AC60A2
:1055300000F0C8FB30BB022000F0CCFA10B14FF0F5
:10554000FF341FE02A2000F031FC10B14FF0FF348F
:1055500018E0322000F062FC10B14FF0FF3411E08F
:105560000020FFF779FD10B14FF0FF340AE0002072
:1055700000F0ECFA10B14FF0FF3403E000200024FB
:1055800000F092FC204602B0B0BD00BF48616C66DE
:105590002073656E736974697669747920706172BD
:1055A0007420666F756E642E000000002DE9F04FC8
:1055B00087B0074600294FF0FF3052D08B4640F2AB
:1055C0003401C2F2000191F82510002949D1CDE93A
:1055D00000324FB300200DF10C0A4FF0000800BF5D
:1055E000A7EB0009B9F1100FA8BF4FF010090BEBA2
:1055F00000041FFA89F51FFA88F63046294622462C
:1056000000F0B0FC10BB30462946524600F0ECF8E2
:10561000E0B9204651462A46FAF74CFE20BBC84462
:105620001FFA88F0B842DBD3019840F2340440BA44
:10563000C2F20004ADF80A00D4E900100DF10A032B
:105640000078897E0222FDF7B3FB20B14FF0FF30D6
:1056500007B0BDE8F08F012084F825000098E084B1
:10566000002007B0BDE8F08F6FF0010007B0BDE883
:10567000F08F0000B0B582B0282802D94FF0FF3477
:105680004EE0044648B1012000F05CFB2020012CD4
:105690008DF806001CD100201DE00020002400F041
:1056A00051FB40F234054FF4E060C2F20005ADF862
:1056B0000600D5E900100DF106030078897C02226E
:1056C000FDF776FB00280CBF2C754FF0FF3427E068
:1056D000052C28D801208DF80700052000F066FB76
:1056E0009DF8070040F2340580010730C2F2000542
:1056F0008DF80700D5E900100DF106030078897CCC
:105700000222FDF755FB10B14FF0FF3408E00820EE
:10571000A87201200024287500202C73FFF79CFC40
:10572000204602B0B0BD142C04D802208DF807002A
:105730000A20D3E703208DF807001420CEE70000ED
:105740002DE9F04182B040F23407C2F200070E4664
:1057500097F8241005464FF0FF30D9B3B97AC9B392
:10576000D7E9001014460078897A0DF10603022269
:10577000FDF7AEFA20BBBDF80600000490FA80F8F1
:10578000A84502D2002020701AE078684188B8EB62
:10579000510F0CD939680078497C0DF106030122BC
:1057A000FDF796FA60B99DF80600C00615D4D7E952
:1057B0000010EAB20078C97A3346FDF789FA20B1C1
:1057C0004FF0FF3002B0BDE8F081B8FBF5F00138D2
:1057D0002070002002B0BDE8F08100F037F86FF0D3
:1057E000010002B0BDE8F08170B582B00D460146FF
:1057F0004FF0FF3042B340F23406C2F200061446C6
:10580000B27A0AB370684ABA438955FA81F199426B
:10581000ADF8062008D831680078097E0DF106033E
:105820000222FDF7C5FA18B14FF0FF3002B070BD8B
:10583000D6E90010EAB20078497D2346FDF748FA20
:10584000002818BF4FF0FF3002B070BD10B582B015
:1058500040F23404C2F20004A07A00B300208DF8B4
:105860000700D4E900100DF107030078C97B01227D
:10587000FDF79EFA98B9D4E900100DF107030078FE
:1058800049790122FDF794FA48B9D4E900100DF1E5
:105890000703007809790122FDF78AFA18B14FF061
:1058A000FF3002B010BD94F82400002845D00C2031
:1058B0008DF80700D4E900100DF10703007809798D
:1058C0000122FDF775FA0028E9D13220FBF754FBDD
:1058D000A07A0DF10703C0076FF01F0008BF6FF03B
:1058E0003F008DF80700D4E9001001220078097903
:1058F000FDF75EFA0028D2D1607C0DF10703002885
:1059000018BF012040008DF80700D4E900100122E3
:105910000078C97BFDF74CFA0028C0D100208DF833
:105920000700D4E900100DF107030078497901223E
:10593000FDF73EFA0028B2D145E004208DF80700BB
:10594000D4E900100DF10703007809790122FDF771
:105950002FFA0028A3D1A07AA17CC0074FF06000E5
:1059600008BF4020002918BF40208DF80700D4E967
:1059700000100DF10703007809790122FDF718FAEC
:1059800000288CD13220FBF7F7FA607C0DF1070379
:10599000002818BF01208DF80700D4E9001001226B
:1059A0000078C97BFDF704FA00287FF478AFD4E9CA
:1059B000001004F11003007849790122FDF7F8F98D
:1059C00000287FF46CAF002002B010BD2DE9F04F2D
:1059D00089B040F2340AC2F2000A9AF824900E46C6
:1059E000B9F1000F054602D0002000F025F902A809
:1059F000FFF7B8FC0DF10B00FFF768FC01A8FFF7FB
:105A0000E5FC0DF10600FFF7FFFC9AF80A800DF1A6
:105A10000A00FFF79DFC0024284631460022FFF7CC
:105A200049F818B10134012CF6D00224022C0FD011
:105A300000270DF1180B03AC584621460122FFF751
:105A400039F818B10137012FF6D00227022F01D102
:105A500000250FE003A93046FEF74CFA044606A9DC
:105A60002846FFF7D1F9C0B2B0FA80F04509200608
:105A700008BF02354FF6FF70AAF80E00FF208AF823
:105A800010004FF0FF30CAF80800BDF808000121EF
:105A90008AF80C1000F016F99DF80B0000F01AF8C7
:105AA000BDF8040000F082F9BDF8060000F0B6F978
:105AB000404600F0F9F99DF80A00FFF7CDFAB9F178
:105AC000000F02D0012000F0B7F8284609B0BDE869
:105AD000F08F000010B582B040F23404C2F200042E
